{
  "_format": "hh-sol-artifact-1",
  "contractName": "TokenManagerERC20",
  "sourceName": "contracts/schain/TokenManagers/TokenManagerERC20.sol",
  "abi": [
    {
      "anonymous": false,
      "inputs": [
        {
          "indexed": false,
          "internalType": "address",
          "name": "oldValue",
          "type": "address"
        },
        {
          "indexed": false,
          "internalType": "address",
          "name": "newValue",
          "type": "address"
        }
      ],
      "name": "DepositBoxWasChanged",
      "type": "event"
    },
    {
      "anonymous": false,
      "inputs": [
        {
          "indexed": true,
          "internalType": "bytes32",
          "name": "chainHash",
          "type": "bytes32"
        },
        {
          "indexed": true,
          "internalType": "address",
          "name": "erc20OnMainChain",
          "type": "address"
        },
        {
          "indexed": true,
          "internalType": "address",
          "name": "erc20OnSchain",
          "type": "address"
        }
      ],
      "name": "ERC20TokenAdded",
      "type": "event"
    },
    {
      "anonymous": false,
      "inputs": [
        {
          "indexed": true,
          "internalType": "bytes32",
          "name": "chainHash",
          "type": "bytes32"
        },
        {
          "indexed": true,
          "internalType": "address",
          "name": "erc20OnMainChain",
          "type": "address"
        },
        {
          "indexed": true,
          "internalType": "address",
          "name": "erc20OnSchain",
          "type": "address"
        }
      ],
      "name": "ERC20TokenCreated",
      "type": "event"
    },
    {
      "anonymous": false,
      "inputs": [
        {
          "indexed": true,
          "internalType": "bytes32",
          "name": "chainHash",
          "type": "bytes32"
        },
        {
          "indexed": true,
          "internalType": "address",
          "name": "contractOnMainnet",
          "type": "address"
        },
        {
          "indexed": false,
          "internalType": "uint256",
          "name": "amount",
          "type": "uint256"
        }
      ],
      "name": "ERC20TokenReady",
      "type": "event"
    },
    {
      "anonymous": false,
      "inputs": [
        {
          "indexed": true,
          "internalType": "bytes32",
          "name": "chainHash",
          "type": "bytes32"
        },
        {
          "indexed": true,
          "internalType": "address",
          "name": "erc20OnMainChain",
          "type": "address"
        },
        {
          "indexed": true,
          "internalType": "address",
          "name": "erc20OnSchain",
          "type": "address"
        },
        {
          "indexed": false,
          "internalType": "uint256",
          "name": "amount",
          "type": "uint256"
        }
      ],
      "name": "ERC20TokenReceived",
      "type": "event"
    },
    {
      "anonymous": false,
      "inputs": [
        {
          "indexed": false,
          "internalType": "uint8",
          "name": "version",
          "type": "uint8"
        }
      ],
      "name": "Initialized",
      "type": "event"
    },
    {
      "anonymous": false,
      "inputs": [
        {
          "indexed": true,
          "internalType": "bytes32",
          "name": "role",
          "type": "bytes32"
        },
        {
          "indexed": true,
          "internalType": "bytes32",
          "name": "previousAdminRole",
          "type": "bytes32"
        },
        {
          "indexed": true,
          "internalType": "bytes32",
          "name": "newAdminRole",
          "type": "bytes32"
        }
      ],
      "name": "RoleAdminChanged",
      "type": "event"
    },
    {
      "anonymous": false,
      "inputs": [
        {
          "indexed": true,
          "internalType": "bytes32",
          "name": "role",
          "type": "bytes32"
        },
        {
          "indexed": true,
          "internalType": "address",
          "name": "account",
          "type": "address"
        },
        {
          "indexed": true,
          "internalType": "address",
          "name": "sender",
          "type": "address"
        }
      ],
      "name": "RoleGranted",
      "type": "event"
    },
    {
      "anonymous": false,
      "inputs": [
        {
          "indexed": true,
          "internalType": "bytes32",
          "name": "role",
          "type": "bytes32"
        },
        {
          "indexed": true,
          "internalType": "address",
          "name": "account",
          "type": "address"
        },
        {
          "indexed": true,
          "internalType": "address",
          "name": "sender",
          "type": "address"
        }
      ],
      "name": "RoleRevoked",
      "type": "event"
    },
    {
      "inputs": [],
      "name": "AUTOMATIC_DEPLOY_ROLE",
      "outputs": [
        {
          "internalType": "bytes32",
          "name": "",
          "type": "bytes32"
        }
      ],
      "stateMutability": "view",
      "type": "function"
    },
    {
      "inputs": [],
      "name": "DEFAULT_ADMIN_ROLE",
      "outputs": [
        {
          "internalType": "bytes32",
          "name": "",
          "type": "bytes32"
        }
      ],
      "stateMutability": "view",
      "type": "function"
    },
    {
      "inputs": [],
      "name": "MAINNET_HASH",
      "outputs": [
        {
          "internalType": "bytes32",
          "name": "",
          "type": "bytes32"
        }
      ],
      "stateMutability": "view",
      "type": "function"
    },
    {
      "inputs": [],
      "name": "MAINNET_NAME",
      "outputs": [
        {
          "internalType": "string",
          "name": "",
          "type": "string"
        }
      ],
      "stateMutability": "view",
      "type": "function"
    },
    {
      "inputs": [],
      "name": "TOKEN_REGISTRAR_ROLE",
      "outputs": [
        {
          "internalType": "bytes32",
          "name": "",
          "type": "bytes32"
        }
      ],
      "stateMutability": "view",
      "type": "function"
    },
    {
      "inputs": [
        {
          "internalType": "string",
          "name": "originChainName",
          "type": "string"
        },
        {
          "internalType": "address",
          "name": "erc20OnOriginChain",
          "type": "address"
        },
        {
          "internalType": "address",
          "name": "newErc20OnSchain",
          "type": "address"
        }
      ],
      "name": "addERC20TokenByOwner",
      "outputs": [],
      "stateMutability": "nonpayable",
      "type": "function"
    },
    {
      "inputs": [
        {
          "internalType": "string",
          "name": "schainName",
          "type": "string"
        },
        {
          "internalType": "address",
          "name": "newTokenManager",
          "type": "address"
        }
      ],
      "name": "addTokenManager",
      "outputs": [],
      "stateMutability": "nonpayable",
      "type": "function"
    },
    {
      "inputs": [
        {
          "internalType": "contract ERC20OnChain",
          "name": "",
          "type": "address"
        }
      ],
      "name": "addedClones",
      "outputs": [
        {
          "internalType": "bool",
          "name": "",
          "type": "bool"
        }
      ],
      "stateMutability": "view",
      "type": "function"
    },
    {
      "inputs": [],
      "name": "automaticDeploy",
      "outputs": [
        {
          "internalType": "bool",
          "name": "",
          "type": "bool"
        }
      ],
      "stateMutability": "view",
      "type": "function"
    },
    {
      "inputs": [
        {
          "internalType": "address",
          "name": "newDepositBox",
          "type": "address"
        }
      ],
      "name": "changeDepositBoxAddress",
      "outputs": [],
      "stateMutability": "nonpayable",
      "type": "function"
    },
    {
      "inputs": [
        {
          "internalType": "bytes32",
          "name": "",
          "type": "bytes32"
        },
        {
          "internalType": "address",
          "name": "",
          "type": "address"
        }
      ],
      "name": "clonesErc20",
      "outputs": [
        {
          "internalType": "contract ERC20OnChain",
          "name": "",
          "type": "address"
        }
      ],
      "stateMutability": "view",
      "type": "function"
    },
    {
      "inputs": [],
      "name": "communityLocker",
      "outputs": [
        {
          "internalType": "contract ICommunityLocker",
          "name": "",
          "type": "address"
        }
      ],
      "stateMutability": "view",
      "type": "function"
    },
    {
      "inputs": [],
      "name": "depositBox",
      "outputs": [
        {
          "internalType": "address",
          "name": "",
          "type": "address"
        }
      ],
      "stateMutability": "view",
      "type": "function"
    },
    {
      "inputs": [
        {
          "internalType": "address",
          "name": "",
          "type": "address"
        }
      ],
      "name": "deprecatedClonesErc20",
      "outputs": [
        {
          "internalType": "contract ERC20OnChain",
          "name": "",
          "type": "address"
        }
      ],
      "stateMutability": "view",
      "type": "function"
    },
    {
      "inputs": [],
      "name": "disableAutomaticDeploy",
      "outputs": [],
      "stateMutability": "nonpayable",
      "type": "function"
    },
    {
      "inputs": [],
      "name": "enableAutomaticDeploy",
      "outputs": [],
      "stateMutability": "nonpayable",
      "type": "function"
    },
    {
      "inputs": [
        {
          "internalType": "address",
          "name": "contractOnMainnet",
          "type": "address"
        },
        {
          "internalType": "uint256",
          "name": "amount",
          "type": "uint256"
        }
      ],
      "name": "exitToMainERC20",
      "outputs": [],
      "stateMutability": "nonpayable",
      "type": "function"
    },
    {
      "inputs": [
        {
          "internalType": "bytes32",
          "name": "role",
          "type": "bytes32"
        }
      ],
      "name": "getRoleAdmin",
      "outputs": [
        {
          "internalType": "bytes32",
          "name": "",
          "type": "bytes32"
        }
      ],
      "stateMutability": "view",
      "type": "function"
    },
    {
      "inputs": [
        {
          "internalType": "bytes32",
          "name": "role",
          "type": "bytes32"
        },
        {
          "internalType": "uint256",
          "name": "index",
          "type": "uint256"
        }
      ],
      "name": "getRoleMember",
      "outputs": [
        {
          "internalType": "address",
          "name": "",
          "type": "address"
        }
      ],
      "stateMutability": "view",
      "type": "function"
    },
    {
      "inputs": [
        {
          "internalType": "bytes32",
          "name": "role",
          "type": "bytes32"
        }
      ],
      "name": "getRoleMemberCount",
      "outputs": [
        {
          "internalType": "uint256",
          "name": "",
          "type": "uint256"
        }
      ],
      "stateMutability": "view",
      "type": "function"
    },
    {
      "inputs": [
        {
          "internalType": "bytes32",
          "name": "role",
          "type": "bytes32"
        },
        {
          "internalType": "address",
          "name": "account",
          "type": "address"
        }
      ],
      "name": "grantRole",
      "outputs": [],
      "stateMutability": "nonpayable",
      "type": "function"
    },
    {
      "inputs": [
        {
          "internalType": "bytes32",
          "name": "role",
          "type": "bytes32"
        },
        {
          "internalType": "address",
          "name": "account",
          "type": "address"
        }
      ],
      "name": "hasRole",
      "outputs": [
        {
          "internalType": "bool",
          "name": "",
          "type": "bool"
        }
      ],
      "stateMutability": "view",
      "type": "function"
    },
    {
      "inputs": [
        {
          "internalType": "string",
          "name": "schainName",
          "type": "string"
        }
      ],
      "name": "hasTokenManager",
      "outputs": [
        {
          "internalType": "bool",
          "name": "",
          "type": "bool"
        }
      ],
      "stateMutability": "view",
      "type": "function"
    },
    {
      "inputs": [
        {
          "internalType": "string",
          "name": "newChainName",
          "type": "string"
        },
        {
          "internalType": "contract IMessageProxyForSchain",
          "name": "newMessageProxy",
          "type": "address"
        },
        {
          "internalType": "contract ITokenManagerLinker",
          "name": "newIMALinker",
          "type": "address"
        },
        {
          "internalType": "contract ICommunityLocker",
          "name": "newCommunityLocker",
          "type": "address"
        },
        {
          "internalType": "address",
          "name": "newDepositBox",
          "type": "address"
        }
      ],
      "name": "initialize",
      "outputs": [],
      "stateMutability": "nonpayable",
      "type": "function"
    },
    {
      "inputs": [
        {
          "internalType": "string",
          "name": "newSchainName",
          "type": "string"
        },
        {
          "internalType": "contract IMessageProxyForSchain",
          "name": "newMessageProxy",
          "type": "address"
        },
        {
          "internalType": "contract ITokenManagerLinker",
          "name": "newIMALinker",
          "type": "address"
        },
        {
          "internalType": "contract ICommunityLocker",
          "name": "newCommunityLocker",
          "type": "address"
        },
        {
          "internalType": "address",
          "name": "newDepositBox",
          "type": "address"
        }
      ],
      "name": "initializeTokenManager",
      "outputs": [],
      "stateMutability": "nonpayable",
      "type": "function"
    },
    {
      "inputs": [],
      "name": "messageProxy",
      "outputs": [
        {
          "internalType": "contract IMessageProxyForSchain",
          "name": "",
          "type": "address"
        }
      ],
      "stateMutability": "view",
      "type": "function"
    },
    {
      "inputs": [
        {
          "internalType": "bytes32",
          "name": "fromChainHash",
          "type": "bytes32"
        },
        {
          "internalType": "address",
          "name": "sender",
          "type": "address"
        },
        {
          "internalType": "bytes",
          "name": "data",
          "type": "bytes"
        }
      ],
      "name": "postMessage",
      "outputs": [],
      "stateMutability": "nonpayable",
      "type": "function"
    },
    {
      "inputs": [
        {
          "internalType": "string",
          "name": "schainName",
          "type": "string"
        }
      ],
      "name": "removeTokenManager",
      "outputs": [],
      "stateMutability": "nonpayable",
      "type": "function"
    },
    {
      "inputs": [
        {
          "internalType": "bytes32",
          "name": "role",
          "type": "bytes32"
        },
        {
          "internalType": "address",
          "name": "account",
          "type": "address"
        }
      ],
      "name": "renounceRole",
      "outputs": [],
      "stateMutability": "nonpayable",
      "type": "function"
    },
    {
      "inputs": [
        {
          "internalType": "bytes32",
          "name": "role",
          "type": "bytes32"
        },
        {
          "internalType": "address",
          "name": "account",
          "type": "address"
        }
      ],
      "name": "revokeRole",
      "outputs": [],
      "stateMutability": "nonpayable",
      "type": "function"
    },
    {
      "inputs": [],
      "name": "schainHash",
      "outputs": [
        {
          "internalType": "bytes32",
          "name": "",
          "type": "bytes32"
        }
      ],
      "stateMutability": "view",
      "type": "function"
    },
    {
      "inputs": [
        {
          "internalType": "bytes4",
          "name": "interfaceId",
          "type": "bytes4"
        }
      ],
      "name": "supportsInterface",
      "outputs": [
        {
          "internalType": "bool",
          "name": "",
          "type": "bool"
        }
      ],
      "stateMutability": "view",
      "type": "function"
    },
    {
      "inputs": [],
      "name": "tokenManagerLinker",
      "outputs": [
        {
          "internalType": "contract ITokenManagerLinker",
          "name": "",
          "type": "address"
        }
      ],
      "stateMutability": "view",
      "type": "function"
    },
    {
      "inputs": [
        {
          "internalType": "bytes32",
          "name": "",
          "type": "bytes32"
        }
      ],
      "name": "tokenManagers",
      "outputs": [
        {
          "internalType": "address",
          "name": "",
          "type": "address"
        }
      ],
      "stateMutability": "view",
      "type": "function"
    },
    {
      "inputs": [
        {
          "internalType": "contract IERC20Upgradeable",
          "name": "",
          "type": "address"
        }
      ],
      "name": "totalSupplyOnMainnet",
      "outputs": [
        {
          "internalType": "uint256",
          "name": "",
          "type": "uint256"
        }
      ],
      "stateMutability": "view",
      "type": "function"
    },
    {
      "inputs": [
        {
          "internalType": "string",
          "name": "targetSchainName",
          "type": "string"
        },
        {
          "internalType": "address",
          "name": "contractOnMainnet",
          "type": "address"
        },
        {
          "internalType": "uint256",
          "name": "amount",
          "type": "uint256"
        }
      ],
      "name": "transferToSchainERC20",
      "outputs": [],
      "stateMutability": "nonpayable",
      "type": "function"
    },
    {
      "inputs": [
        {
          "internalType": "bytes32",
          "name": "",
          "type": "bytes32"
        },
        {
          "internalType": "address",
          "name": "",
          "type": "address"
        }
      ],
      "name": "transferredAmount",
      "outputs": [
        {
          "internalType": "uint256",
          "name": "",
          "type": "uint256"
        }
      ],
      "stateMutability": "view",
      "type": "function"
    }
  ],
  "bytecode": "0x608060405234801561001057600080fd5b5061606e806100206000396000f3fe60806040523480156200001157600080fd5b5060043610620002555760003560e01c80636d6112861162000149578063babc4a3311620000c7578063d547741f1162000086578063d547741f14620005da578063dec2deb614620005f1578063eafd15c81462000606578063edcc12b5146200061d578063f429e383146200063457600080fd5b8063babc4a33146200053f578063c0e312dc146200056d578063ca15c8731462000584578063cb703bff146200059b578063cc5b715b14620005b257600080fd5b80639010d07c11620001145780639010d07c14620004d857806391d1485414620004ef578063a217fddf1462000506578063aebaaca9146200050f578063b9581c50146200053557600080fd5b80636d61128614620004825780636d6c68e614620004965780638504950614620004aa578063884cee5a14620004c157600080fd5b806339927cf911620001d757806350f4428011620001a257806350f4428014620003d3578063510d8a5814620004095780635573b8b6146200044057806368eb202214620004545780636ce681d2146200046b57600080fd5b806339927cf9146200036f5780633b690b6b14620003865780633fa194ce1462000390578063467a5d8114620003a757600080fd5b8063248a9ca31162000224578063248a9ca314620002ee57806328c5e18214620003235780632dc151de146200032d5780632f2ff15d146200034157806336568abe146200035857600080fd5b806301ffc9a7146200025a578063029996b814620002865780630b885ac314620002925780630f1a8f7414620002a9575b600080fd5b620002716200026b3660046200352d565b62000657565b60405190151581526020015b60405180910390f35b6200029062000685565b005b62000290620002a336600462003669565b620006dd565b620002d5620002ba366004620036fe565b60ce602052600090815260409020546001600160a01b031681565b6040516001600160a01b0390911681526020016200027d565b62000314620002ff366004620036fe565b60009081526065602052604090206001015490565b6040519081526020016200027d565b62000314620006f3565b60ca54620002d5906001600160a01b031681565b620002906200035236600462003718565b6200073e565b620002906200036936600462003718565b6200076c565b62000271620003803660046200378f565b620007ee565b6200031460cc5481565b620003146000805160206200601983398151915281565b620002d5620003b8366004620037d4565b60cf602052600090815260409020546001600160a01b031681565b620003fa6040518060400160405280600781526020016613585a5b9b995d60ca1b81525081565b6040516200027d919062003848565b620002d56200041a36600462003718565b60d26020908152600092835260408084209091529082529020546001600160a01b031681565b60c954620002d5906001600160a01b031681565b62000290620004653660046200385d565b6200084b565b620002906200047c36600462003669565b6200095f565b60cd54620002d5906001600160a01b031681565b60cb54620002d5906001600160a01b031681565b62000290620004bb3660046200388c565b62000bd3565b62000290620004d2366004620038ee565b62000e64565b620002d5620004e93660046200394f565b62000ff1565b620002716200050036600462003718565b62001012565b62000314600081565b6200027162000520366004620037d4565b60d16020526000908152604090205460ff1681565b620002906200103d565b620003146200055036600462003718565b60d360209081526000928352604080842090915290825290205481565b620002906200057e3660046200378f565b62001086565b6200031462000595366004620036fe565b620011a4565b62000290620005ac36600462003972565b620011bd565b620003147ffda70c2cc66a36c14884ee85424961f51b1d92b4494751699b6d105b3bcbcba881565b62000290620005eb36600462003718565b62001344565b60cd546200027190600160a01b900460ff1681565b6200029062000617366004620039ce565b6200136d565b620002906200062e366004620037d4565b620017d2565b6200031462000645366004620037d4565b60d06020526000908152604090205481565b60006001600160e01b03198216635a05180f60e01b14806200067f57506200067f82620018ee565b92915050565b620006a0600080516020620060198339815191523362001012565b620006c85760405162461bcd60e51b8152600401620006bf9062003a3d565b60405180910390fd5b60cd805460ff60a01b1916600160a01b179055565b620006ec85858585856200095f565b5050505050565b6040518060400160405280600781526020016613585a5b9b995d60ca1b81525060405160200162000725919062003a7e565b6040516020818303038152906040528051906020012081565b6000828152606560205260409020600101546200075b8162001925565b62000767838362001934565b505050565b6001600160a01b0381163314620007de5760405162461bcd60e51b815260206004820152602f60248201527f416363657373436f6e74726f6c3a2063616e206f6e6c792072656e6f756e636560448201526e103937b632b9903337b91039b2b63360891b6064820152608401620006bf565b620007ea82826200195a565b5050565b6000806001600160a01b031660ce600085856040516020016200081392919062003a9c565b60408051808303601f19018152918152815160209283012083529082019290925201600020546001600160a01b031614159392505050565b60cb54604080518082018252600781526613585a5b9b995d60ca1b60208083019190915291516001600160a01b03909316926359315792926200089092910162003a7e565b60408051601f198184030181529082905280516020909101206001600160e01b031960e084901b1682526004820152336024820152604401600060405180830381600087803b158015620008e357600080fd5b505af1158015620008f8573d6000803e3d6000fd5b50505050620007ea6040518060400160405280600781526020016613585a5b9b995d60ca1b81525060405160200162000932919062003a7e565b60408051601f19818403018152919052805160209091012060cd546001600160a01b031684338562001980565b600054610100900460ff1615808015620009805750600054600160ff909116105b806200099c5750303b1580156200099c575060005460ff166001145b62000a015760405162461bcd60e51b815260206004820152602e60248201527f496e697469616c697a61626c653a20636f6e747261637420697320616c72656160448201526d191e481a5b9a5d1a585b1a5e995960921b6064820152608401620006bf565b6000805460ff19166001179055801562000a25576000805461ff0019166101001790555b6001600160a01b03821662000a7d5760405162461bcd60e51b815260206004820181905260248201527f4465706f736974426f7820616464726573732068617320746f206265207365746044820152606401620006bf565b62000a8762001eee565b62000a9460003362001f5d565b62000aaf600080516020620060198339815191523362001f5d565b62000adb7ffda70c2cc66a36c14884ee85424961f51b1d92b4494751699b6d105b3bcbcba83362001f5d565b8560405160200162000aee919062003a7e565b60408051601f19818403018152828252805160209182012060cc5560c980546001600160a01b038a81166001600160a01b03199283161790925560ca80548a841690831617905560cb805489841690831617905560cd8054928816929091168217905560008452908301527fc968af77923193016f61d74ba6827296db5e1f37ec4fab3ad1ef20e193395e59910160405180910390a1801562000bcb576000805461ff0019169055604051600181527f7f26b83ff96e1f2b6a682f133852f6798a09c465da95921460cefb38474024989060200160405180910390a15b505050505050565b83838080601f016020809104026020016040519081016040528093929190818152602001838380828437600092018290525060405133945090925062000c1f9150849060200162003a7e565b60408051601f1981840301815282825280516020918201208383018352600784526613585a5b9b995d60ca1b84830152915191935062000c6192910162003a7e565b60405160208183030381529060405280519060200120810362000ce05760405162461bcd60e51b815260206004820152603060248201527f546869732066756e6374696f6e206973206e6f7420666f72207472616e73666560448201526f1c9c9a5b99c81d1bc813585a5b9b995d60821b6064820152608401620006bf565b6001600160a01b03821662000d385760405162461bcd60e51b815260206004820152601a60248201527f496e636f727265637420726563656976657220616464726573730000000000006044820152606401620006bf565b600081815260ce60205260409020546001600160a01b031662000d9e5760405162461bcd60e51b815260206004820152601f60248201527f496e636f727265637420546f6b656e204d616e616765722061646472657373006044820152606401620006bf565b6000878760405160200162000db592919062003a9c565b60408051808303601f1901815290829052805160209091012060cb54632c98abc960e11b8352600483018290523360248401529092506001600160a01b031690635931579290604401600060405180830381600087803b15801562000e1957600080fd5b505af115801562000e2e573d6000803e3d6000fd5b505050600082815260ce602052604090205462000e5a915082906001600160a01b031688338962001980565b5050505050505050565b60c9546001600160a01b0316331462000ec05760405162461bcd60e51b815260206004820152601c60248201527f53656e646572206973206e6f742061204d65737361676550726f7879000000006044820152606401620006bf565b838360cc54821415801562000edc575062000edc828262001f69565b62000f2a5760405162461bcd60e51b815260206004820152601b60248201527f526563656976657220636861696e20697320696e636f727265637400000000006044820152606401620006bf565b600062000f38858562001ff4565b90506000600282600e81111562000f535762000f5362003aac565b148062000f745750600482600e81111562000f725762000f7262003aac565b145b8062000f945750600382600e81111562000f925762000f9262003aac565b145b1562000faf5762000fa78887876200204b565b905062000e5a565b60405162461bcd60e51b815260206004820152601660248201527526b2b9b9b0b3b2aa3cb8329034b9903ab735b737bbb760511b6044820152606401620006bf565b60008281526097602052604081206200100b908362002678565b9392505050565b60009182526065602090815260408084206001600160a01b0393909316845291905290205460ff1690565b62001058600080516020620060198339815191523362001012565b620010775760405162461bcd60e51b8152600401620006bf9062003a3d565b60cd805460ff60a01b19169055565b60ca546001600160a01b0316331480620010a85750620010a860003362001012565b620010ee5760405162461bcd60e51b81526020600482015260156024820152742737ba1030baba3437b934bd32b21031b0b63632b960591b6044820152606401620006bf565b600082826040516020016200110592919062003a9c565b60408051601f198184030181529181528151602092830120600081815260ce9093529120549091506001600160a01b0316620011845760405162461bcd60e51b815260206004820152601860248201527f546f6b656e204d616e61676572206973206e6f742073657400000000000000006044820152606401620006bf565b600090815260ce6020526040902080546001600160a01b03191690555050565b60008181526097602052604081206200067f9062002686565b60ca546001600160a01b0316331480620011df5750620011df60003362001012565b620012255760405162461bcd60e51b81526020600482015260156024820152742737ba1030baba3437b934bd32b21031b0b63632b960591b6044820152606401620006bf565b600083836040516020016200123c92919062003a9c565b60408051601f198184030181529181528151602092830120600081815260ce9093529120549091506001600160a01b031615620012bc5760405162461bcd60e51b815260206004820152601c60248201527f546f6b656e204d616e6167657220697320616c726561647920736574000000006044820152606401620006bf565b6001600160a01b038216620013145760405162461bcd60e51b815260206004820152601f60248201527f496e636f727265637420546f6b656e204d616e616765722061646472657373006044820152606401620006bf565b600090815260ce6020526040902080546001600160a01b0319166001600160a01b03929092169190911790555050565b600082815260656020526040902060010154620013618162001925565b6200076783836200195a565b620013997ffda70c2cc66a36c14884ee85424961f51b1d92b4494751699b6d105b3bcbcba83362001012565b620013e75760405162461bcd60e51b815260206004820181905260248201527f544f4b454e5f5245474953545241525f524f4c452069732072657175697265646044820152606401620006bf565b60008484604051602001620013fe92919062003a9c565b60408051601f198184030181528282528051602091820120600081815260d283528381206001600160a01b03808a1683529352929092205460c954634ccd5cd560e11b855292945081169291169063999ab9aa9062001464908990899060040162003ac2565b602060405180830381865afa15801562001482573d6000803e3d6000fd5b505050506040513d601f19601f82011682018060405250810190620014a8919062003af1565b620014ef5760405162461bcd60e51b815260206004820152601660248201527510da185a5b881a5cc81b9bdd0818dbdb9b9958dd195960521b6044820152606401620006bf565b6001600160a01b0383163b620015485760405162461bcd60e51b815260206004820152601f60248201527f476976656e2061646472657373206973206e6f74206120636f6e7472616374006044820152606401620006bf565b826001600160a01b03166318160ddd6040518163ffffffff1660e01b8152600401602060405180830381865afa15801562001587573d6000803e3d6000fd5b505050506040513d601f19601f82011682018060405250810190620015ad919062003b15565b156200160c5760405162461bcd60e51b815260206004820152602760248201527f546f74616c20737570706c79206f662061206e657720746f6b656e206973206e6044820152666f74207a65726f60c81b6064820152608401620006bf565b6001600160a01b03811615620016e557806001600160a01b03166318160ddd6040518163ffffffff1660e01b8152600401602060405180830381865afa1580156200165b573d6000803e3d6000fd5b505050506040513d601f19601f8201168201806040525081019062001681919062003b15565b15620016e55760405162461bcd60e51b815260206004820152602c60248201527f546f74616c20737570706c79206f6620612070726576696f757320746f6b656e60448201526b206973206e6f74207a65726f60a01b6064820152608401620006bf565b6001600160a01b038316600090815260d1602052604090205460ff1615620017505760405162461bcd60e51b815260206004820152601760248201527f436c6f6e652077617320616c72656164792061646465640000000000000000006044820152606401620006bf565b600082815260d2602090815260408083206001600160a01b0388811680865291845282852080546001600160a01b031916918916918217905580855260d1909352818420805460ff1916600117905590519192909185917f89b97f12155170c72b8eb3449d5f1ba0c6a29e5546051dc35694313b1b60741f91a4505050505050565b620017df60003362001012565b6200182d5760405162461bcd60e51b815260206004820152601e60248201527f44454641554c545f41444d494e5f524f4c4520697320726571756972656400006044820152606401620006bf565b6001600160a01b038116620018855760405162461bcd60e51b815260206004820181905260248201527f4465706f736974426f7820616464726573732068617320746f206265207365746044820152606401620006bf565b60cd54604080516001600160a01b03928316815291831660208301527fc968af77923193016f61d74ba6827296db5e1f37ec4fab3ad1ef20e193395e59910160405180910390a160cd80546001600160a01b0319166001600160a01b0392909216919091179055565b60006001600160e01b03198216637965db0b60e01b14806200067f57506301ffc9a760e01b6001600160e01b03198316146200067f565b62001931813362002691565b50565b62001940828262002700565b60008281526097602052604090206200076790826200278a565b620019668282620027a1565b60008281526097602052604090206200076790826200280b565b600085815260d2602090815260408083206001600160a01b0380881685529252822054168062001a1d57506001600160a01b038416600090815260d16020526040902054849060ff161562001a185760405162461bcd60e51b815260206004820152601a60248201527f496e636f7272656374206d61696e20636861696e20746f6b656e0000000000006044820152606401620006bf565b600191505b6001600160a01b0381163b62001a765760405162461bcd60e51b815260206004820152601860248201527f4e6f20746f6b656e20636c6f6e65206f6e2073636861696e00000000000000006044820152606401620006bf565b6040516370a0823160e01b815233600482015283906001600160a01b038316906370a0823190602401602060405180830381865afa15801562001abd573d6000803e3d6000fd5b505050506040513d601f19601f8201168201806040525081019062001ae3919062003b15565b101562001b285760405162461bcd60e51b8152602060048201526012602482015271496e73756666696369656e742066756e647360701b6044820152606401620006bf565b604051636eb1769f60e11b815233600482015230602482015283906001600160a01b0383169063dd62ed3e90604401602060405180830381865afa15801562001b75573d6000803e3d6000fd5b505050506040513d601f19601f8201168201806040525081019062001b9b919062003b15565b101562001bfc5760405162461bcd60e51b815260206004820152602860248201527f5472616e73666572206973206e6f7420617070726f76656420627920746f6b6560448201526737103437b63232b960c11b6064820152608401620006bf565b600062001c0b86868662002822565b9050821562001d84576040518060400160405280600781526020016613585a5b9b995d60ca1b81525060405160200162001c46919062003a7e565b60405160208183030381529060405280519060200120880362001cc85760405162461bcd60e51b815260206004820152603360248201527f4d61696e20636861696e20746f6b656e20636f756c64206e6f74206265207472604482015272185b9cd9995c9959081d1bc813585a5b9b995d606a1b6064820152608401620006bf565b62001cd68883338762002883565b905062001ce5888386620029ff565b6040516323b872dd60e01b8152336004820152306024820152604481018590526001600160a01b038316906323b872dd906064016020604051808303816000875af115801562001d39573d6000803e3d6000fd5b505050506040513d601f19601f8201168201806040525081019062001d5f919062003af1565b62001d7e5760405162461bcd60e51b8152600401620006bf9062003b2f565b62001e7a565b6040516323b872dd60e01b8152336004820152306024820152604481018590526001600160a01b038316906323b872dd906064016020604051808303816000875af115801562001dd8573d6000803e3d6000fd5b505050506040513d601f19601f8201168201806040525081019062001dfe919062003af1565b62001e1d5760405162461bcd60e51b8152600401620006bf9062003b2f565b604051630852cd8d60e31b8152600481018590526001600160a01b038316906342966c6890602401600060405180830381600087803b15801562001e6057600080fd5b505af115801562001e75573d6000803e3d6000fd5b505050505b60c954604051634a24490160e11b81526001600160a01b039091169063944892029062001eb0908b908b90869060040162003b5c565b600060405180830381600087803b15801562001ecb57600080fd5b505af115801562001ee0573d6000803e3d6000fd5b505050505050505050505050565b600054610100900460ff1662001f5b5760405162461bcd60e51b815260206004820152602b60248201527f496e697469616c697a61626c653a20636f6e7472616374206973206e6f74206960448201526a6e697469616c697a696e6760a81b6064820152608401620006bf565b565b620007ea828262001934565b60006040518060400160405280600781526020016613585a5b9b995d60ca1b81525060405160200162001f9d919062003a7e565b60405160208183030381529060405280519060200120831462001fdd57600083815260ce60205260409020546001600160a01b038381169116146200100b565b5060cd546001600160a01b03908116911614919050565b6000806200200583850185620036fe565b90506200201460208262003b91565b6000036200203d57620020346200202e8483818862003bb4565b62001ff4565b9150506200067f565b620020348385018562003bf5565b6000806200205a848462001ff4565b905060008060006200206d878762002a3d565b919450925090506000600285600e8111156200208d576200208d62003aac565b14620023ec576000600386600e811115620020ac57620020ac62003aac565b03620020f5576000620020c08a8a62002afd565b60209081015160008d815260d2835260408082206001600160a01b03808b1684529452902054909116935091506200225f9050565b6000620021038a8a62002bd8565b60208082015160008e815260d2835260408082206001600160a01b03808c1684529452902054909116945092509050826200225d5760cd54600160a01b900460ff16620021935760405162461bcd60e51b815260206004820152601c60248201527f4175746f6d61746963206465706c6f792069732064697361626c6564000000006044820152606401620006bf565b806040015160000151816040015160400151604051620021b3906200351f565b620021c092919062003c13565b604051809103906000f080158015620021dd573d6000803e3d6000fd5b5060008c815260d2602090815260408083206001600160a01b038a811680865291845282852080546001600160a01b031916918716918217905580855260d1909352818420805460ff191660011790559051939650909290918e917f817384d3c8c32b58342425cd864f5540355cc93dfbbfc2df8763793d2d3a5e129190a45b505b6001600160a01b038216600090815260d0602052604090205481146200229b576001600160a01b038216600090815260d0602052604090208190555b6000806200230e846001600160a01b03166318160ddd6040518163ffffffff1660e01b8152600401602060405180830381865afa158015620022e1573d6000803e3d6000fd5b505050506040513d601f19601f8201168201806040525081019062002307919062003b15565b8662002ccf565b90925090508180156200233957506001600160a01b038416600090815260d060205260409020548111155b6200237f5760405162461bcd60e51b8152602060048201526015602482015274151bdd185b081cdd5c1c1b1e48195e18d959591959605a1b6044820152606401620006bf565b6040516340c10f1960e01b81526001600160a01b038881166004830152602482018790528516906340c10f1990604401600060405180830381600087803b158015620023ca57600080fd5b505af1158015620023df573d6000803e3d6000fd5b50505050505050620025bb565b6001600160a01b0383163b151580156200241b5750600089815260d4602052604090206200241b908462002cfa565b620024695760405162461bcd60e51b815260206004820152601a60248201527f496e636f7272656374206d61696e20636861696e20746f6b656e0000000000006044820152606401620006bf565b6040516370a0823160e01b815230600482015282906001600160a01b038516906370a0823190602401602060405180830381865afa158015620024b0573d6000803e3d6000fd5b505050506040513d601f19601f82011682018060405250810190620024d6919062003b15565b1015620025195760405162461bcd60e51b815260206004820152601060248201526f4e6f7420656e6f756768206d6f6e657960801b6044820152606401620006bf565b6200252689848462002d1d565b60405163a9059cbb60e01b81526001600160a01b0385811660048301526024820184905284169063a9059cbb906044016020604051808303816000875af115801562002576573d6000803e3d6000fd5b505050506040513d601f19601f820116820180604052508101906200259c919062003af1565b620025bb5760405162461bcd60e51b8152600401620006bf9062003b2f565b806001600160a01b0316836001600160a01b03168a7f131b32ac87206ff25b3250e2d194c4cc6d63e928ab212dbd294b03b49af27b48856040516200260291815260200190565b60405180910390a460c95460405163e051116b60e01b81526001600160a01b0386811660048301529091169063e051116b90602401600060405180830381600087803b1580156200265257600080fd5b505af115801562002667573d6000803e3d6000fd5b50959b9a5050505050505050505050565b60006200100b838362002d51565b60006200067f825490565b6200269d828262001012565b620007ea57620026b8816001600160a01b0316601462002d7e565b620026c583602062002d7e565b604051602001620026d892919062003c3c565b60408051601f198184030181529082905262461bcd60e51b8252620006bf9160040162003848565b6200270c828262001012565b620007ea5760008281526065602090815260408083206001600160a01b03851684529091529020805460ff19166001179055620027463390565b6001600160a01b0316816001600160a01b0316837f2f8788117e7eff1d82e926ec794901d17c78024a50270940304540a733656f0d60405160405180910390a45050565b60006200100b836001600160a01b03841662002f37565b620027ad828262001012565b15620007ea5760008281526065602090815260408083206001600160a01b0385168085529252808320805460ff1916905551339285917ff6391f5c32d9c69d2a47ea670b442974b53935d1edc7fd64eb21e047a839171b9190a45050565b60006200100b836001600160a01b03841662002f89565b6040805160a08101825260026080820190815281526001600160a01b0380861660208084019190915290851682840152606080830185905292516200286a9183910162003d09565b6040516020818303038152906040529150509392505050565b606060008490506000816001600160a01b03166318160ddd6040518163ffffffff1660e01b8152600401602060405180830381865afa158015620028cb573d6000803e3d6000fd5b505050506040513d601f19601f82011682018060405250810190620028f1919062003b15565b9050808411156200293b5760405162461bcd60e51b8152602060048201526013602482015272105b5bdd5b9d081a5cc81a5b98dbdc9c9958dd606a1b6044820152606401620006bf565b600087815260d46020526040812062002955908862002cfa565b90508062002994576200296988886200308d565b6200298c8787876200297b87620031a6565b62002986886200320d565b62003380565b9350620029af565b620029ac878787620029a687620031a6565b620033f8565b93505b866001600160a01b0316887f759c7e29aa34dec4bb9f3af86e647e11cffa0fee371049fd55e8779a2c24484e87604051620029ec91815260200190565b60405180910390a3505050949350505050565b600083815260d3602090815260408083206001600160a01b03861684529091528120805483929062002a3390849062003d2f565b9091555050505050565b60008060008062002a4f868662001ff4565b9050600281600e81111562002a685762002a6862003aac565b0362002a9b57600062002a7c87876200346b565b9050806040015181602001518260600151945094509450505062002af6565b600381600e81111562002ab25762002ab262003aac565b0362002ae857600062002ac6878762002afd565b5160408101516020820151606090920151909650909450925062002af6915050565b600062002ac6878762002bd8565b9250925092565b62002b3d6040805160e081018252600060c08201818152928201928352606082018190526080820181905260a08201529081908152602001600081525090565b600362002b4b848462001ff4565b600e81111562002b5f5762002b5f62003aac565b1462002bca5760405162461bcd60e51b815260206004820152603360248201527f4d6573736167652074797065206973206e6f74204552433230207472616e7366604482015272657220616e6420746f74616c20737570706c7960681b6064820152608401620006bf565b6200100b8284018462003e08565b62002c356040805161010081018252600060e0820181815260608084019182526080840183905260a0840183905260c084018390529083526020808401839052845180830186528281529081019290925281840152909182015290565b600462002c43848462001ff4565b600e81111562002c575762002c5762003aac565b1462002cc15760405162461bcd60e51b815260206004820152603260248201527f4d6573736167652074797065206973206e6f74204552433230207472616e73666044820152716572207769746820746f6b656e20696e666f60701b6064820152608401620006bf565b6200100b8284018462003e73565b6000808383018481101562002cec57600080925092505062002cf3565b6001925090505b9250929050565b6001600160a01b038116600090815260018301602052604081205415156200100b565b600083815260d3602090815260408083206001600160a01b03861684529091528120805483929062002a3390849062003f78565b600082600001828154811062002d6b5762002d6b62003f8e565b9060005260206000200154905092915050565b6060600062002d8f83600262003fa4565b62002d9c90600262003d2f565b6001600160401b0381111562002db65762002db662003559565b6040519080825280601f01601f19166020018201604052801562002de1576020820181803683370190505b509050600360fc1b8160008151811062002dff5762002dff62003f8e565b60200101906001600160f81b031916908160001a905350600f60fb1b8160018151811062002e315762002e3162003f8e565b60200101906001600160f81b031916908160001a905350600062002e5784600262003fa4565b62002e6490600162003d2f565b90505b600181111562002ee6576f181899199a1a9b1b9c1cb0b131b232b360811b85600f166010811062002e9c5762002e9c62003f8e565b1a60f81b82828151811062002eb55762002eb562003f8e565b60200101906001600160f81b031916908160001a90535060049490941c9362002ede8162003fc6565b905062002e67565b5083156200100b5760405162461bcd60e51b815260206004820181905260248201527f537472696e67733a20686578206c656e67746820696e73756666696369656e746044820152606401620006bf565b600081815260018301602052604081205462002f80575081546001818101845560008481526020808220909301849055845484825282860190935260409020919091556200067f565b5060006200067f565b600081815260018301602052604081205480156200308257600062002fb060018362003f78565b855490915060009062002fc69060019062003f78565b90508181146200303257600086600001828154811062002fea5762002fea62003f8e565b906000526020600020015490508087600001848154811062003010576200301062003f8e565b6000918252602080832090910192909255918252600188019052604090208390555b855486908062003046576200304662003fe0565b6001900381819060005260206000200160009055905585600101600086815260200190815260200160002060009055600193505050506200067f565b60009150506200067f565b6001600160a01b0381163b620030e65760405162461bcd60e51b815260206004820152601f60248201527f476976656e2061646472657373206973206e6f74206120636f6e7472616374006044820152606401620006bf565b600082815260d46020526040902062003100908262002cfa565b156200314f5760405162461bcd60e51b815260206004820152601d60248201527f455243323020546f6b656e2077617320616c72656164792061646465640000006044820152606401620006bf565b600082815260d4602052604090206200316990826200278a565b506040516000906001600160a01b0383169084907f89b97f12155170c72b8eb3449d5f1ba0c6a29e5546051dc35694313b1b60741f908490a45050565b6000816001600160a01b03166318160ddd6040518163ffffffff1660e01b8152600401602060405180830381865afa158015620031e7573d6000803e3d6000fd5b505050506040513d601f19601f820116820180604052508101906200067f919062003b15565b604080516060808201835280825260006020830152918101919091526040518060600160405280836001600160a01b03166306fdde036040518163ffffffff1660e01b8152600401600060405180830381865afa15801562003273573d6000803e3d6000fd5b505050506040513d6000823e601f3d908101601f191682016040526200329d919081019062003ff6565b8152602001836001600160a01b031663313ce5676040518163ffffffff1660e01b8152600401602060405180830381865afa158015620032e1573d6000803e3d6000fd5b505050506040513d601f19601f820116820180604052508101906200330791906200406c565b60ff168152602001836001600160a01b03166395d89b416040518163ffffffff1660e01b8152600401600060405180830381865afa1580156200334e573d6000803e3d6000fd5b505050506040513d6000823e601f3d908101601f1916820160405262003378919081019062003ff6565b905292915050565b6040805161010081018252600460e0820190815260608083019182526001600160a01b03808a166080850152881660a084015260c08301879052908252602080830186905282840185905292519092620033dd918391016200408c565b60405160208183030381529060405291505095945050505050565b6040805160e081018252600360c082019081528183019081526001600160a01b03808816606080850191909152908716608084015260a08301869052908252602080830185905292519092620034519183910162004100565b604051602081830303815290604052915050949350505050565b6040805160a08101825260006080820181815282526020820181905291810182905260608101919091526002620034a3848462001ff4565b600e811115620034b757620034b762003aac565b14620035115760405162461bcd60e51b815260206004820152602260248201527f4d6573736167652074797065206973206e6f74204552433230207472616e736660448201526132b960f11b6064820152608401620006bf565b6200100b8284018462004125565b611ed4806200414583390190565b6000602082840312156200354057600080fd5b81356001600160e01b0319811681146200100b57600080fd5b634e487b7160e01b600052604160045260246000fd5b604051606081016001600160401b038111828210171562003594576200359462003559565b60405290565b604051601f8201601f191681016001600160401b0381118282101715620035c557620035c562003559565b604052919050565b60006001600160401b03821115620035e957620035e962003559565b50601f01601f191660200190565b600082601f8301126200360957600080fd5b8135620036206200361a82620035cd565b6200359a565b8181528460208386010111156200363657600080fd5b816020850160208301376000918101602001919091529392505050565b6001600160a01b03811681146200193157600080fd5b600080600080600060a086880312156200368257600080fd5b85356001600160401b038111156200369957600080fd5b620036a788828901620035f7565b9550506020860135620036ba8162003653565b93506040860135620036cc8162003653565b92506060860135620036de8162003653565b91506080860135620036f08162003653565b809150509295509295909350565b6000602082840312156200371157600080fd5b5035919050565b600080604083850312156200372c57600080fd5b823591506020830135620037408162003653565b809150509250929050565b60008083601f8401126200375e57600080fd5b5081356001600160401b038111156200377657600080fd5b60208301915083602082850101111562002cf357600080fd5b60008060208385031215620037a357600080fd5b82356001600160401b03811115620037ba57600080fd5b620037c8858286016200374b565b90969095509350505050565b600060208284031215620037e757600080fd5b81356200100b8162003653565b60005b8381101562003811578181015183820152602001620037f7565b50506000910152565b6000815180845262003834816020860160208601620037f4565b601f01601f19169290920160200192915050565b6020815260006200100b60208301846200381a565b600080604083850312156200387157600080fd5b82356200387e8162003653565b946020939093013593505050565b60008060008060608587031215620038a357600080fd5b84356001600160401b03811115620038ba57600080fd5b620038c8878288016200374b565b9095509350506020850135620038de8162003653565b9396929550929360400135925050565b600080600080606085870312156200390557600080fd5b843593506020850135620039198162003653565b925060408501356001600160401b038111156200393557600080fd5b62003943878288016200374b565b95989497509550505050565b600080604083850312156200396357600080fd5b50508035926020909101359150565b6000806000604084860312156200398857600080fd5b83356001600160401b038111156200399f57600080fd5b620039ad868287016200374b565b9094509250506020840135620039c38162003653565b809150509250925092565b60008060008060608587031215620039e557600080fd5b84356001600160401b03811115620039fc57600080fd5b62003a0a878288016200374b565b909550935050602085013562003a208162003653565b9150604085013562003a328162003653565b939692955090935050565b60208082526021908201527f4155544f4d415449435f4445504c4f595f524f4c4520697320726571756972656040820152601960fa1b606082015260800190565b6000825162003a92818460208701620037f4565b9190910192915050565b8183823760009101908152919050565b634e487b7160e01b600052602160045260246000fd5b60208152816020820152818360408301376000818301604090810191909152601f909201601f19160101919050565b60006020828403121562003b0457600080fd5b815180151581146200100b57600080fd5b60006020828403121562003b2857600080fd5b5051919050565b602080825260139082015272151c985b9cd9995c881dd85cc819985a5b1959606a1b604082015260600190565b8381526001600160a01b038316602082015260606040820181905260009062003b88908301846200381a565b95945050505050565b60008262003baf57634e487b7160e01b600052601260045260246000fd5b500690565b6000808585111562003bc557600080fd5b8386111562003bd357600080fd5b5050820193919092039150565b8035600f811062003bf057600080fd5b919050565b60006020828403121562003c0857600080fd5b6200100b8262003be0565b60408152600062003c2860408301856200381a565b828103602084015262003b8881856200381a565b7f416363657373436f6e74726f6c3a206163636f756e742000000000000000000081526000835162003c76816017850160208801620037f4565b7001034b99036b4b9b9b4b733903937b6329607d1b601791840191820152835162003ca9816028840160208801620037f4565b01602801949350505050565b805151600f811062003cd757634e487b7160e01b600052602160045260246000fd5b82526020818101516001600160a01b039081169184019190915260408083015190911690830152606090810151910152565b608081016200067f828462003cb5565b634e487b7160e01b600052601160045260246000fd5b808201808211156200067f576200067f62003d19565b6000818303608081121562003d5957600080fd5b604051608081016001600160401b03828210818311171562003d7f5762003d7f62003559565b81604052829450602084121562003d9557600080fd5b60a083019350818410818511171562003db25762003db262003559565b508260405262003dc28562003be0565b815281526020840135915062003dd88262003653565b8160208201526040840135915062003df08262003653565b81604082015260608401356060820152505092915050565b600060a0828403121562003e1b57600080fd5b604051604081018181106001600160401b038211171562003e405762003e4062003559565b60405262003e4f848462003d45565b815260809290920135602083015250919050565b60ff811681146200193157600080fd5b60006020828403121562003e8657600080fd5b81356001600160401b038082111562003e9e57600080fd5b9083019060c0828603121562003eb357600080fd5b62003ebd6200356f565b62003ec9868462003d45565b81526080830135602082015260a08301358281111562003ee857600080fd5b92909201916060838703121562003efe57600080fd5b62003f086200356f565b83358381111562003f1857600080fd5b62003f2688828701620035f7565b825250602084013562003f398162003e63565b602082015260408401358381111562003f5157600080fd5b62003f5f88828701620035f7565b6040830152508060408301525080935050505092915050565b818103818111156200067f576200067f62003d19565b634e487b7160e01b600052603260045260246000fd5b600081600019048311821515161562003fc15762003fc162003d19565b500290565b60008162003fd85762003fd862003d19565b506000190190565b634e487b7160e01b600052603160045260246000fd5b6000602082840312156200400957600080fd5b81516001600160401b038111156200402057600080fd5b8201601f810184136200403257600080fd5b8051620040436200361a82620035cd565b8181528560208385010111156200405957600080fd5b62003b88826020830160208601620037f4565b6000602082840312156200407f57600080fd5b81516200100b8162003e63565b60208152620040a060208201835162003cb5565b602082015160a08201526000604083015160c0808401528051606060e0850152620040d06101408501826200381a565b602083015160ff1661010086015260409092015184830360df190161012086015291905062003b8881836200381a565b600060a0820190506200411582845162003cb5565b6020830151608083015292915050565b6000608082840312156200413857600080fd5b6200100b838362003d4556fe60806040523480156200001157600080fd5b5060405162001ed438038062001ed48339810160408190526200003491620005a0565b600054610100900460ff1615808015620000555750600054600160ff909116105b806200008557506200007230620001d960201b620007211760201c565b15801562000085575060005460ff166001145b620000ee5760405162461bcd60e51b815260206004820152602e60248201527f496e697469616c697a61626c653a20636f6e747261637420697320616c72656160448201526d191e481a5b9a5d1a585b1a5e995960921b60648201526084015b60405180910390fd5b6000805460ff19166001179055801562000112576000805461ff0019166101001790555b62000127620001e860201b620007301760201c565b6200013e83836200024660201b620007591760201c565b62000153620001e860201b620007301760201c565b6200016e60008051602062001eb483398151915280620002b2565b6200018960008051602062001eb483398151915233620002fd565b8015620001d0576000805461ff0019169055604051600181527f7f26b83ff96e1f2b6a682f133852f6798a09c465da95921460cefb38474024989060200160405180910390a15b50505062000764565b6001600160a01b03163b151590565b600054610100900460ff16620002445760405162461bcd60e51b815260206004820152602b602482015260008051602062001e9483398151915260448201526a6e697469616c697a696e6760a81b6064820152608401620000e5565b565b600054610100900460ff16620002a25760405162461bcd60e51b815260206004820152602b602482015260008051602062001e9483398151915260448201526a6e697469616c697a696e6760a81b6064820152608401620000e5565b620002ae828262000309565b5050565b600082815260656020526040808220600101805490849055905190918391839186917fbd79b86ffe0ab8e8776151514217cd7cacd52c909f66475c3af44e129f0b00ff9190a4505050565b620002ae828262000387565b600054610100900460ff16620003655760405162461bcd60e51b815260206004820152602b602482015260008051602062001e9483398151915260448201526a6e697469616c697a696e6760a81b6064820152608401620000e5565b60cc62000373838262000698565b5060cd62000382828262000698565b505050565b6200039e8282620003c560201b6200078a1760201c565b6000828152609760209081526040909120620003829183906200081062000469821b17901c565b60008281526065602090815260408083206001600160a01b038516845290915290205460ff16620002ae5760008281526065602090815260408083206001600160a01b03851684529091529020805460ff19166001179055620004253390565b6001600160a01b0316816001600160a01b0316837f2f8788117e7eff1d82e926ec794901d17c78024a50270940304540a733656f0d60405160405180910390a45050565b600062000480836001600160a01b03841662000489565b90505b92915050565b6000818152600183016020526040812054620004d25750815460018181018455600084815260208082209093018490558454848252828601909352604090209190915562000483565b50600062000483565b634e487b7160e01b600052604160045260246000fd5b600082601f8301126200050357600080fd5b81516001600160401b0380821115620005205762000520620004db565b604051601f8301601f19908116603f011681019082821181831017156200054b576200054b620004db565b816040528381526020925086838588010111156200056857600080fd5b600091505b838210156200058c57858201830151818301840152908201906200056d565b600093810190920192909252949350505050565b60008060408385031215620005b457600080fd5b82516001600160401b0380821115620005cc57600080fd5b620005da86838701620004f1565b93506020850151915080821115620005f157600080fd5b506200060085828601620004f1565b9150509250929050565b600181811c908216806200061f57607f821691505b6020821081036200064057634e487b7160e01b600052602260045260246000fd5b50919050565b601f8211156200038257600081815260208120601f850160051c810160208610156200066f5750805b601f850160051c820191505b8181101562000690578281556001016200067b565b505050505050565b81516001600160401b03811115620006b457620006b4620004db565b620006cc81620006c584546200060a565b8462000646565b602080601f831160018114620007045760008415620006eb5750858301515b600019600386901b1c1916600185901b17855562000690565b600085815260208120601f198616915b82811015620007355788860151825594840194600190910190840162000714565b5085821015620007545787850151600019600388901b60f8161c191681555b5050505050600190811b01905550565b61172080620007746000396000f3fe608060405234801561001057600080fd5b50600436106101585760003560e01c806370a08231116100c3578063a457c2d71161007c578063a457c2d7146102ef578063a9059cbb14610302578063ca15c87314610315578063d539139314610328578063d547741f1461034f578063dd62ed3e1461036257600080fd5b806370a082311461026557806379cc67901461028e5780639010d07c146102a157806391d14854146102cc57806395d89b41146102df578063a217fddf146102e757600080fd5b80632f2ff15d116101155780632f2ff15d146101f5578063313ce5671461020a57806336568abe14610219578063395093511461022c57806340c10f191461023f57806342966c681461025257600080fd5b806301ffc9a71461015d57806306fdde0314610185578063095ea7b31461019a57806318160ddd146101ad57806323b872dd146101bf578063248a9ca3146101d2575b600080fd5b61017061016b36600461127f565b610375565b60405190151581526020015b60405180910390f35b61018d6103a0565b60405161017c91906112cd565b6101706101a836600461131c565b610432565b60cb545b60405190815260200161017c565b6101706101cd366004611346565b61044a565b6101b16101e0366004611382565b60009081526065602052604090206001015490565b61020861020336600461139b565b61046e565b005b6040516012815260200161017c565b61020861022736600461139b565b610498565b61017061023a36600461131c565b61051b565b61020861024d36600461131c565b61053d565b610208610260366004611382565b6105b6565b6101b16102733660046113c7565b6001600160a01b0316600090815260c9602052604090205490565b61020861029c36600461131c565b6105c3565b6102b46102af3660046113e2565b6105d8565b6040516001600160a01b03909116815260200161017c565b6101706102da36600461139b565b6105f7565b61018d610622565b6101b1600081565b6101706102fd36600461131c565b610631565b61017061031036600461131c565b6106ac565b6101b1610323366004611382565b6106ba565b6101b17f9f2df0fed2c77648de5860a4cc508cd0818c85b8b8a1ab4ceeef8d981c8956a681565b61020861035d36600461139b565b6106d1565b6101b1610370366004611404565b6106f6565b60006001600160e01b03198216635a05180f60e01b148061039a575061039a82610825565b92915050565b606060cc80546103af9061142e565b80601f01602080910402602001604051908101604052809291908181526020018280546103db9061142e565b80156104285780601f106103fd57610100808354040283529160200191610428565b820191906000526020600020905b81548152906001019060200180831161040b57829003601f168201915b5050505050905090565b60003361044081858561085a565b5060019392505050565b60003361045885828561097e565b6104638585856109f8565b506001949350505050565b60008281526065602052604090206001015461048981610bc6565b6104938383610bd0565b505050565b6001600160a01b038116331461050d5760405162461bcd60e51b815260206004820152602f60248201527f416363657373436f6e74726f6c3a2063616e206f6e6c792072656e6f756e636560448201526e103937b632b9903337b91039b2b63360891b60648201526084015b60405180910390fd5b6105178282610bf2565b5050565b60003361044081858561052e83836106f6565b610538919061147e565b61085a565b6105677f9f2df0fed2c77648de5860a4cc508cd0818c85b8b8a1ab4ceeef8d981c8956a6336105f7565b6105ac5760405162461bcd60e51b815260206004820152601660248201527529b2b73232b91034b9903737ba10309026b4b73a32b960511b6044820152606401610504565b6105178282610c14565b6105c03382610cf3565b50565b6105ce82338361097e565b6105178282610cf3565b60008281526097602052604081206105f09083610e41565b9392505050565b60009182526065602090815260408084206001600160a01b0393909316845291905290205460ff1690565b606060cd80546103af9061142e565b6000338161063f82866106f6565b90508381101561069f5760405162461bcd60e51b815260206004820152602560248201527f45524332303a2064656372656173656420616c6c6f77616e63652062656c6f77604482015264207a65726f60d81b6064820152608401610504565b610463828686840361085a565b6000336104408185856109f8565b600081815260976020526040812061039a90610e4d565b6000828152606560205260409020600101546106ec81610bc6565b6104938383610bf2565b6001600160a01b03918216600090815260ca6020908152604080832093909416825291909152205490565b6001600160a01b03163b151590565b600054610100900460ff166107575760405162461bcd60e51b815260040161050490611491565b565b600054610100900460ff166107805760405162461bcd60e51b815260040161050490611491565b6105178282610e57565b61079482826105f7565b6105175760008281526065602090815260408083206001600160a01b03851684529091529020805460ff191660011790556107cc3390565b6001600160a01b0316816001600160a01b0316837f2f8788117e7eff1d82e926ec794901d17c78024a50270940304540a733656f0d60405160405180910390a45050565b60006105f0836001600160a01b038416610e97565b60006001600160e01b03198216637965db0b60e01b148061039a57506301ffc9a760e01b6001600160e01b031983161461039a565b6001600160a01b0383166108bc5760405162461bcd60e51b8152602060048201526024808201527f45524332303a20617070726f76652066726f6d20746865207a65726f206164646044820152637265737360e01b6064820152608401610504565b6001600160a01b03821661091d5760405162461bcd60e51b815260206004820152602260248201527f45524332303a20617070726f766520746f20746865207a65726f206164647265604482015261737360f01b6064820152608401610504565b6001600160a01b03838116600081815260ca602090815260408083209487168084529482529182902085905590518481527f8c5be1e5ebec7d5bd14f71427d1e84f3dd0314c0f7b2291e5b200ac8c7c3b925910160405180910390a3505050565b600061098a84846106f6565b905060001981146109f257818110156109e55760405162461bcd60e51b815260206004820152601d60248201527f45524332303a20696e73756666696369656e7420616c6c6f77616e63650000006044820152606401610504565b6109f2848484840361085a565b50505050565b6001600160a01b038316610a5c5760405162461bcd60e51b815260206004820152602560248201527f45524332303a207472616e736665722066726f6d20746865207a65726f206164604482015264647265737360d81b6064820152608401610504565b6001600160a01b038216610abe5760405162461bcd60e51b815260206004820152602360248201527f45524332303a207472616e7366657220746f20746865207a65726f206164647260448201526265737360e81b6064820152608401610504565b6001600160a01b038316600090815260c9602052604090205481811015610b365760405162461bcd60e51b815260206004820152602660248201527f45524332303a207472616e7366657220616d6f756e7420657863656564732062604482015265616c616e636560d01b6064820152608401610504565b6001600160a01b03808516600090815260c96020526040808220858503905591851681529081208054849290610b6d90849061147e565b92505081905550826001600160a01b0316846001600160a01b03167fddf252ad1be2c89b69c2b068fc378daa952ba7f163c4a11628f55a4df523b3ef84604051610bb991815260200190565b60405180910390a36109f2565b6105c08133610ee6565b610bda828261078a565b60008281526097602052604090206104939082610810565b610bfc8282610f4a565b60008281526097602052604090206104939082610fb1565b6001600160a01b038216610c6a5760405162461bcd60e51b815260206004820152601f60248201527f45524332303a206d696e7420746f20746865207a65726f2061646472657373006044820152606401610504565b8060cb6000828254610c7c919061147e565b90915550506001600160a01b038216600090815260c9602052604081208054839290610ca990849061147e565b90915550506040518181526001600160a01b038316906000907fddf252ad1be2c89b69c2b068fc378daa952ba7f163c4a11628f55a4df523b3ef9060200160405180910390a35050565b6001600160a01b038216610d535760405162461bcd60e51b815260206004820152602160248201527f45524332303a206275726e2066726f6d20746865207a65726f206164647265736044820152607360f81b6064820152608401610504565b6001600160a01b038216600090815260c9602052604090205481811015610dc75760405162461bcd60e51b815260206004820152602260248201527f45524332303a206275726e20616d6f756e7420657863656564732062616c616e604482015261636560f01b6064820152608401610504565b6001600160a01b038316600090815260c960205260408120838303905560cb8054849290610df69084906114dc565b90915550506040518281526000906001600160a01b038516907fddf252ad1be2c89b69c2b068fc378daa952ba7f163c4a11628f55a4df523b3ef9060200160405180910390a3505050565b60006105f08383610fc6565b600061039a825490565b600054610100900460ff16610e7e5760405162461bcd60e51b815260040161050490611491565b60cc610e8a8382611553565b5060cd6104938282611553565b6000818152600183016020526040812054610ede5750815460018181018455600084815260208082209093018490558454848252828601909352604090209190915561039a565b50600061039a565b610ef082826105f7565b61051757610f08816001600160a01b03166014610ff0565b610f13836020610ff0565b604051602001610f24929190611613565b60408051601f198184030181529082905262461bcd60e51b8252610504916004016112cd565b610f5482826105f7565b156105175760008281526065602090815260408083206001600160a01b0385168085529252808320805460ff1916905551339285917ff6391f5c32d9c69d2a47ea670b442974b53935d1edc7fd64eb21e047a839171b9190a45050565b60006105f0836001600160a01b03841661118c565b6000826000018281548110610fdd57610fdd611688565b9060005260206000200154905092915050565b60606000610fff83600261169e565b61100a90600261147e565b67ffffffffffffffff811115611022576110226114ef565b6040519080825280601f01601f19166020018201604052801561104c576020820181803683370190505b509050600360fc1b8160008151811061106757611067611688565b60200101906001600160f81b031916908160001a905350600f60fb1b8160018151811061109657611096611688565b60200101906001600160f81b031916908160001a90535060006110ba84600261169e565b6110c590600161147e565b90505b600181111561113d576f181899199a1a9b1b9c1cb0b131b232b360811b85600f16601081106110f9576110f9611688565b1a60f81b82828151811061110f5761110f611688565b60200101906001600160f81b031916908160001a90535060049490941c93611136816116bd565b90506110c8565b5083156105f05760405162461bcd60e51b815260206004820181905260248201527f537472696e67733a20686578206c656e67746820696e73756666696369656e746044820152606401610504565b600081815260018301602052604081205480156112755760006111b06001836114dc565b85549091506000906111c4906001906114dc565b90508181146112295760008660000182815481106111e4576111e4611688565b906000526020600020015490508087600001848154811061120757611207611688565b6000918252602080832090910192909255918252600188019052604090208390555b855486908061123a5761123a6116d4565b60019003818190600052602060002001600090559055856001016000868152602001908152602001600020600090556001935050505061039a565b600091505061039a565b60006020828403121561129157600080fd5b81356001600160e01b0319811681146105f057600080fd5b60005b838110156112c45781810151838201526020016112ac565b50506000910152565b60208152600082518060208401526112ec8160408501602087016112a9565b601f01601f19169190910160400192915050565b80356001600160a01b038116811461131757600080fd5b919050565b6000806040838503121561132f57600080fd5b61133883611300565b946020939093013593505050565b60008060006060848603121561135b57600080fd5b61136484611300565b925061137260208501611300565b9150604084013590509250925092565b60006020828403121561139457600080fd5b5035919050565b600080604083850312156113ae57600080fd5b823591506113be60208401611300565b90509250929050565b6000602082840312156113d957600080fd5b6105f082611300565b600080604083850312156113f557600080fd5b50508035926020909101359150565b6000806040838503121561141757600080fd5b61142083611300565b91506113be60208401611300565b600181811c9082168061144257607f821691505b60208210810361146257634e487b7160e01b600052602260045260246000fd5b50919050565b634e487b7160e01b600052601160045260246000fd5b8082018082111561039a5761039a611468565b6020808252602b908201527f496e697469616c697a61626c653a20636f6e7472616374206973206e6f74206960408201526a6e697469616c697a696e6760a81b606082015260800190565b8181038181111561039a5761039a611468565b634e487b7160e01b600052604160045260246000fd5b601f82111561049357600081815260208120601f850160051c8101602086101561152c5750805b601f850160051c820191505b8181101561154b57828155600101611538565b505050505050565b815167ffffffffffffffff81111561156d5761156d6114ef565b6115818161157b845461142e565b84611505565b602080601f8311600181146115b6576000841561159e5750858301515b600019600386901b1c1916600185901b17855561154b565b600085815260208120601f198616915b828110156115e5578886015182559484019460019091019084016115c6565b50858210156116035787850151600019600388901b60f8161c191681555b5050505050600190811b01905550565b7f416363657373436f6e74726f6c3a206163636f756e742000000000000000000081526000835161164b8160178501602088016112a9565b7001034b99036b4b9b9b4b733903937b6329607d1b601791840191820152835161167c8160288401602088016112a9565b01602801949350505050565b634e487b7160e01b600052603260045260246000fd5b60008160001904831182151516156116b8576116b8611468565b500290565b6000816116cc576116cc611468565b506000190190565b634e487b7160e01b600052603160045260246000fdfea26469706673582212202f9e9a6091230d31a1843f8d7bfacf836c46ab8210847934d487741528853dc964736f6c63430008100033496e697469616c697a61626c653a20636f6e7472616374206973206e6f7420699f2df0fed2c77648de5860a4cc508cd0818c85b8b8a1ab4ceeef8d981c8956a67164765a3c8bd2513bdfa0c90f1bee9606e920fbf2c9071f310263fbd818684ba26469706673582212204ebd9f8a21f84e520b4563ed09e2192757ca5ba15e1500101b7eca598cb2b6d964736f6c63430008100033",
  "linkReferences": {},
  "deployedLinkReferences": {}
}