{
  "_format": "hh-sol-artifact-1",
  "contractName": "TokenManagerEth",
  "sourceName": "contracts/schain/TokenManagers/TokenManagerEth.sol",
  "abi": [
    {
      "anonymous": false,
      "inputs": [
        {
          "indexed": false,
          "internalType": "address",
          "name": "oldValue",
          "type": "address"
        },
        {
          "indexed": false,
          "internalType": "address",
          "name": "newValue",
          "type": "address"
        }
      ],
      "name": "DepositBoxWasChanged",
      "type": "event"
    },
    {
      "anonymous": false,
      "inputs": [
        {
          "indexed": false,
          "internalType": "uint8",
          "name": "version",
          "type": "uint8"
        }
      ],
      "name": "Initialized",
      "type": "event"
    },
    {
      "anonymous": false,
      "inputs": [
        {
          "indexed": true,
          "internalType": "bytes32",
          "name": "role",
          "type": "bytes32"
        },
        {
          "indexed": true,
          "internalType": "bytes32",
          "name": "previousAdminRole",
          "type": "bytes32"
        },
        {
          "indexed": true,
          "internalType": "bytes32",
          "name": "newAdminRole",
          "type": "bytes32"
        }
      ],
      "name": "RoleAdminChanged",
      "type": "event"
    },
    {
      "anonymous": false,
      "inputs": [
        {
          "indexed": true,
          "internalType": "bytes32",
          "name": "role",
          "type": "bytes32"
        },
        {
          "indexed": true,
          "internalType": "address",
          "name": "account",
          "type": "address"
        },
        {
          "indexed": true,
          "internalType": "address",
          "name": "sender",
          "type": "address"
        }
      ],
      "name": "RoleGranted",
      "type": "event"
    },
    {
      "anonymous": false,
      "inputs": [
        {
          "indexed": true,
          "internalType": "bytes32",
          "name": "role",
          "type": "bytes32"
        },
        {
          "indexed": true,
          "internalType": "address",
          "name": "account",
          "type": "address"
        },
        {
          "indexed": true,
          "internalType": "address",
          "name": "sender",
          "type": "address"
        }
      ],
      "name": "RoleRevoked",
      "type": "event"
    },
    {
      "inputs": [],
      "name": "AUTOMATIC_DEPLOY_ROLE",
      "outputs": [
        {
          "internalType": "bytes32",
          "name": "",
          "type": "bytes32"
        }
      ],
      "stateMutability": "view",
      "type": "function"
    },
    {
      "inputs": [],
      "name": "DEFAULT_ADMIN_ROLE",
      "outputs": [
        {
          "internalType": "bytes32",
          "name": "",
          "type": "bytes32"
        }
      ],
      "stateMutability": "view",
      "type": "function"
    },
    {
      "inputs": [],
      "name": "MAINNET_HASH",
      "outputs": [
        {
          "internalType": "bytes32",
          "name": "",
          "type": "bytes32"
        }
      ],
      "stateMutability": "view",
      "type": "function"
    },
    {
      "inputs": [],
      "name": "MAINNET_NAME",
      "outputs": [
        {
          "internalType": "string",
          "name": "",
          "type": "string"
        }
      ],
      "stateMutability": "view",
      "type": "function"
    },
    {
      "inputs": [],
      "name": "TOKEN_REGISTRAR_ROLE",
      "outputs": [
        {
          "internalType": "bytes32",
          "name": "",
          "type": "bytes32"
        }
      ],
      "stateMutability": "view",
      "type": "function"
    },
    {
      "inputs": [
        {
          "internalType": "string",
          "name": "schainName",
          "type": "string"
        },
        {
          "internalType": "address",
          "name": "newTokenManager",
          "type": "address"
        }
      ],
      "name": "addTokenManager",
      "outputs": [],
      "stateMutability": "nonpayable",
      "type": "function"
    },
    {
      "inputs": [],
      "name": "automaticDeploy",
      "outputs": [
        {
          "internalType": "bool",
          "name": "",
          "type": "bool"
        }
      ],
      "stateMutability": "view",
      "type": "function"
    },
    {
      "inputs": [
        {
          "internalType": "address",
          "name": "newDepositBox",
          "type": "address"
        }
      ],
      "name": "changeDepositBoxAddress",
      "outputs": [],
      "stateMutability": "nonpayable",
      "type": "function"
    },
    {
      "inputs": [],
      "name": "communityLocker",
      "outputs": [
        {
          "internalType": "contract ICommunityLocker",
          "name": "",
          "type": "address"
        }
      ],
      "stateMutability": "view",
      "type": "function"
    },
    {
      "inputs": [],
      "name": "depositBox",
      "outputs": [
        {
          "internalType": "address",
          "name": "",
          "type": "address"
        }
      ],
      "stateMutability": "view",
      "type": "function"
    },
    {
      "inputs": [],
      "name": "disableAutomaticDeploy",
      "outputs": [],
      "stateMutability": "nonpayable",
      "type": "function"
    },
    {
      "inputs": [],
      "name": "enableAutomaticDeploy",
      "outputs": [],
      "stateMutability": "nonpayable",
      "type": "function"
    },
    {
      "inputs": [],
      "name": "ethErc20",
      "outputs": [
        {
          "internalType": "contract IEthErc20",
          "name": "",
          "type": "address"
        }
      ],
      "stateMutability": "view",
      "type": "function"
    },
    {
      "inputs": [
        {
          "internalType": "uint256",
          "name": "amount",
          "type": "uint256"
        }
      ],
      "name": "exitToMain",
      "outputs": [],
      "stateMutability": "nonpayable",
      "type": "function"
    },
    {
      "inputs": [
        {
          "internalType": "bytes32",
          "name": "role",
          "type": "bytes32"
        }
      ],
      "name": "getRoleAdmin",
      "outputs": [
        {
          "internalType": "bytes32",
          "name": "",
          "type": "bytes32"
        }
      ],
      "stateMutability": "view",
      "type": "function"
    },
    {
      "inputs": [
        {
          "internalType": "bytes32",
          "name": "role",
          "type": "bytes32"
        },
        {
          "internalType": "uint256",
          "name": "index",
          "type": "uint256"
        }
      ],
      "name": "getRoleMember",
      "outputs": [
        {
          "internalType": "address",
          "name": "",
          "type": "address"
        }
      ],
      "stateMutability": "view",
      "type": "function"
    },
    {
      "inputs": [
        {
          "internalType": "bytes32",
          "name": "role",
          "type": "bytes32"
        }
      ],
      "name": "getRoleMemberCount",
      "outputs": [
        {
          "internalType": "uint256",
          "name": "",
          "type": "uint256"
        }
      ],
      "stateMutability": "view",
      "type": "function"
    },
    {
      "inputs": [
        {
          "internalType": "bytes32",
          "name": "role",
          "type": "bytes32"
        },
        {
          "internalType": "address",
          "name": "account",
          "type": "address"
        }
      ],
      "name": "grantRole",
      "outputs": [],
      "stateMutability": "nonpayable",
      "type": "function"
    },
    {
      "inputs": [
        {
          "internalType": "bytes32",
          "name": "role",
          "type": "bytes32"
        },
        {
          "internalType": "address",
          "name": "account",
          "type": "address"
        }
      ],
      "name": "hasRole",
      "outputs": [
        {
          "internalType": "bool",
          "name": "",
          "type": "bool"
        }
      ],
      "stateMutability": "view",
      "type": "function"
    },
    {
      "inputs": [
        {
          "internalType": "string",
          "name": "schainName",
          "type": "string"
        }
      ],
      "name": "hasTokenManager",
      "outputs": [
        {
          "internalType": "bool",
          "name": "",
          "type": "bool"
        }
      ],
      "stateMutability": "view",
      "type": "function"
    },
    {
      "inputs": [
        {
          "internalType": "string",
          "name": "newChainName",
          "type": "string"
        },
        {
          "internalType": "contract IMessageProxyForSchain",
          "name": "newMessageProxy",
          "type": "address"
        },
        {
          "internalType": "contract ITokenManagerLinker",
          "name": "newIMALinker",
          "type": "address"
        },
        {
          "internalType": "contract ICommunityLocker",
          "name": "newCommunityLocker",
          "type": "address"
        },
        {
          "internalType": "address",
          "name": "newDepositBox",
          "type": "address"
        },
        {
          "internalType": "contract IEthErc20",
          "name": "ethErc20Address",
          "type": "address"
        }
      ],
      "name": "initialize",
      "outputs": [],
      "stateMutability": "nonpayable",
      "type": "function"
    },
    {
      "inputs": [
        {
          "internalType": "string",
          "name": "newSchainName",
          "type": "string"
        },
        {
          "internalType": "contract IMessageProxyForSchain",
          "name": "newMessageProxy",
          "type": "address"
        },
        {
          "internalType": "contract ITokenManagerLinker",
          "name": "newIMALinker",
          "type": "address"
        },
        {
          "internalType": "contract ICommunityLocker",
          "name": "newCommunityLocker",
          "type": "address"
        },
        {
          "internalType": "address",
          "name": "newDepositBox",
          "type": "address"
        }
      ],
      "name": "initializeTokenManager",
      "outputs": [],
      "stateMutability": "nonpayable",
      "type": "function"
    },
    {
      "inputs": [],
      "name": "messageProxy",
      "outputs": [
        {
          "internalType": "contract IMessageProxyForSchain",
          "name": "",
          "type": "address"
        }
      ],
      "stateMutability": "view",
      "type": "function"
    },
    {
      "inputs": [
        {
          "internalType": "bytes32",
          "name": "fromChainHash",
          "type": "bytes32"
        },
        {
          "internalType": "address",
          "name": "sender",
          "type": "address"
        },
        {
          "internalType": "bytes",
          "name": "data",
          "type": "bytes"
        }
      ],
      "name": "postMessage",
      "outputs": [],
      "stateMutability": "nonpayable",
      "type": "function"
    },
    {
      "inputs": [
        {
          "internalType": "string",
          "name": "schainName",
          "type": "string"
        }
      ],
      "name": "removeTokenManager",
      "outputs": [],
      "stateMutability": "nonpayable",
      "type": "function"
    },
    {
      "inputs": [
        {
          "internalType": "bytes32",
          "name": "role",
          "type": "bytes32"
        },
        {
          "internalType": "address",
          "name": "account",
          "type": "address"
        }
      ],
      "name": "renounceRole",
      "outputs": [],
      "stateMutability": "nonpayable",
      "type": "function"
    },
    {
      "inputs": [
        {
          "internalType": "bytes32",
          "name": "role",
          "type": "bytes32"
        },
        {
          "internalType": "address",
          "name": "account",
          "type": "address"
        }
      ],
      "name": "revokeRole",
      "outputs": [],
      "stateMutability": "nonpayable",
      "type": "function"
    },
    {
      "inputs": [],
      "name": "schainHash",
      "outputs": [
        {
          "internalType": "bytes32",
          "name": "",
          "type": "bytes32"
        }
      ],
      "stateMutability": "view",
      "type": "function"
    },
    {
      "inputs": [
        {
          "internalType": "contract IEthErc20",
          "name": "newEthErc20Address",
          "type": "address"
        }
      ],
      "name": "setEthErc20Address",
      "outputs": [],
      "stateMutability": "nonpayable",
      "type": "function"
    },
    {
      "inputs": [
        {
          "internalType": "bytes4",
          "name": "interfaceId",
          "type": "bytes4"
        }
      ],
      "name": "supportsInterface",
      "outputs": [
        {
          "internalType": "bool",
          "name": "",
          "type": "bool"
        }
      ],
      "stateMutability": "view",
      "type": "function"
    },
    {
      "inputs": [],
      "name": "tokenManagerLinker",
      "outputs": [
        {
          "internalType": "contract ITokenManagerLinker",
          "name": "",
          "type": "address"
        }
      ],
      "stateMutability": "view",
      "type": "function"
    },
    {
      "inputs": [
        {
          "internalType": "bytes32",
          "name": "",
          "type": "bytes32"
        }
      ],
      "name": "tokenManagers",
      "outputs": [
        {
          "internalType": "address",
          "name": "",
          "type": "address"
        }
      ],
      "stateMutability": "view",
      "type": "function"
    }
  ],
  "bytecode": "0x608060405234801561001057600080fd5b50612196806100206000396000f3fe608060405234801561001057600080fd5b50600436106101f05760003560e01c80638182e7071161010f578063c0e312dc116100a2578063d547741f11610071578063d547741f1461046c578063dec2deb61461047f578063edcc12b514610493578063eeeb9601146104a657600080fd5b8063c0e312dc1461040c578063ca15c8731461041f578063cb703bff14610432578063cc5b715b1461044557600080fd5b806391d14854116100de57806391d14854146103d657806392d7846a146103e9578063a217fddf146103fc578063b9581c501461040457600080fd5b80638182e7071461038a578063884cee5a1461039d5780638b71b4b5146103b05780639010d07c146103c357600080fd5b806339927cf9116101875780635573b8b6116101565780635573b8b61461033e5780636ce681d2146103515780636d611286146103645780636d6c68e61461037757600080fd5b806339927cf9146102da5780633b690b6b146102ed5780633fa194ce146102f657806350f442801461030b57600080fd5b806328c5e182116101c357806328c5e182146102995780632dc151de146102a15780632f2ff15d146102b457806336568abe146102c757600080fd5b806301ffc9a7146101f5578063029996b81461021d5780630f1a8f7414610227578063248a9ca314610268575b600080fd5b610208610203366004611963565b6104b9565b60405190151581526020015b60405180910390f35b6102256104e4565b005b61025061023536600461198d565b60ce602052600090815260409020546001600160a01b031681565b6040516001600160a01b039091168152602001610214565b61028b61027636600461198d565b60009081526065602052604090206001015490565b604051908152602001610214565b61028b610536565b60ca54610250906001600160a01b031681565b6102256102c23660046119bb565b61057f565b6102256102d53660046119bb565b6105a9565b6102086102e8366004611a34565b610627565b61028b60cc5481565b61028b60008051602061214183398151915281565b6103316040518060400160405280600781526020016613585a5b9b995d60ca1b81525081565b6040516102149190611ac6565b60c954610250906001600160a01b031681565b61022561035f366004611b7c565b610682565b60cd54610250906001600160a01b031681565b60cb54610250906001600160a01b031681565b610225610398366004611c06565b61089b565b6102256103ab366004611ca1565b61098b565b6102256103be366004611cfd565b610b7d565b6102506103d1366004611d1a565b610c19565b6102086103e43660046119bb565b610c38565b60cf54610250906001600160a01b031681565b61028b600081565b610225610c63565b61022561041a366004611a34565b610ca6565b61028b61042d36600461198d565b610d93565b610225610440366004611d3c565b610daa565b61028b7ffda70c2cc66a36c14884ee85424961f51b1d92b4494751699b6d105b3bcbcba881565b61022561047a3660046119bb565b610efe565b60cd5461020890600160a01b900460ff1681565b6102256104a1366004611cfd565b610f23565b6102256104b436600461198d565b611039565b60006001600160e01b03198216635a05180f60e01b14806104de57506104de82611147565b92915050565b6104fc60008051602061214183398151915233610c38565b6105215760405162461bcd60e51b815260040161051890611d93565b60405180910390fd5b60cd805460ff60a01b1916600160a01b179055565b6040518060400160405280600781526020016613585a5b9b995d60ca1b8152506040516020016105669190611dd4565b6040516020818303038152906040528051906020012081565b60008281526065602052604090206001015461059a8161117c565b6105a48383611186565b505050565b6001600160a01b03811633146106195760405162461bcd60e51b815260206004820152602f60248201527f416363657373436f6e74726f6c3a2063616e206f6e6c792072656e6f756e636560448201526e103937b632b9903337b91039b2b63360891b6064820152608401610518565b61062382826111a8565b5050565b6000806001600160a01b031660ce6000858560405160200161064a929190611df0565b60408051808303601f19018152918152815160209283012083529082019290925201600020546001600160a01b031614159392505050565b600054610100900460ff16158080156106a25750600054600160ff909116105b806106bc5750303b1580156106bc575060005460ff166001145b6106d85760405162461bcd60e51b815260040161051890611e00565b6000805460ff1916600117905580156106fb576000805461ff0019166101001790555b6001600160a01b0382166107515760405162461bcd60e51b815260206004820181905260248201527f4465706f736974426f7820616464726573732068617320746f206265207365746044820152606401610518565b6107596111ca565b610764600033611237565b61077c60008051602061214183398151915233611237565b6107a67ffda70c2cc66a36c14884ee85424961f51b1d92b4494751699b6d105b3bcbcba833611237565b856040516020016107b79190611dd4565b60408051601f19818403018152828252805160209182012060cc5560c980546001600160a01b038a81166001600160a01b03199283161790925560ca80548a841690831617905560cb805489841690831617905560cd8054928816929091168217905560008452908301527fc968af77923193016f61d74ba6827296db5e1f37ec4fab3ad1ef20e193395e59910160405180910390a18015610893576000805461ff0019169055604051600181527f7f26b83ff96e1f2b6a682f133852f6798a09c465da95921460cefb38474024989060200160405180910390a15b505050505050565b600054610100900460ff16158080156108bb5750600054600160ff909116105b806108d55750303b1580156108d5575060005460ff166001145b6108f15760405162461bcd60e51b815260040161051890611e00565b6000805460ff191660011790558015610914576000805461ff0019166101001790555b6109218787878787610682565b60cf80546001600160a01b0319166001600160a01b0384161790558015610982576000805461ff0019169055604051600181527f7f26b83ff96e1f2b6a682f133852f6798a09c465da95921460cefb38474024989060200160405180910390a15b50505050505050565b60c9546001600160a01b031633146109e55760405162461bcd60e51b815260206004820152601c60248201527f53656e646572206973206e6f742061204d65737361676550726f7879000000006044820152606401610518565b838360cc5482141580156109fe57506109fe8282611241565b610a4a5760405162461bcd60e51b815260206004820152601b60248201527f526563656976657220636861696e20697320696e636f727265637400000000006044820152606401610518565b6000610a5685856112a9565b60208101519091506001600160a01b038116610aa95760405162461bcd60e51b815260206004820152601260248201527124b731b7b93932b1ba103932b1b2b4bb32b960711b6044820152606401610518565b60cf5460408381015190516340c10f1960e01b81526001600160a01b03848116600483015260248201929092529116906340c10f1990604401600060405180830381600087803b158015610afc57600080fd5b505af1158015610b10573d6000803e3d6000fd5b505060c95460405163e051116b60e01b81526001600160a01b038581166004830152909116925063e051116b9150602401600060405180830381600087803b158015610b5b57600080fd5b505af1158015610b6f573d6000803e3d6000fd5b505050505050505050505050565b610b88600033610c38565b610ba45760405162461bcd60e51b815260040161051890611e4e565b60cf546001600160a01b03808316911603610bf75760405162461bcd60e51b81526020600482015260136024820152724d757374206265206e6577206164647265737360681b6044820152606401610518565b60cf80546001600160a01b0319166001600160a01b0392909216919091179055565b6000828152609760205260408120610c319083611342565b9392505050565b60009182526065602090815260408084206001600160a01b0393909316845291905290205460ff1690565b610c7b60008051602061214183398151915233610c38565b610c975760405162461bcd60e51b815260040161051890611d93565b60cd805460ff60a01b19169055565b60ca546001600160a01b0316331480610cc55750610cc5600033610c38565b610ce15760405162461bcd60e51b815260040161051890611e4e565b60008282604051602001610cf6929190611df0565b60408051601f198184030181529181528151602092830120600081815260ce9093529120549091506001600160a01b0316610d735760405162461bcd60e51b815260206004820152601860248201527f546f6b656e204d616e61676572206973206e6f742073657400000000000000006044820152606401610518565b600090815260ce6020526040902080546001600160a01b03191690555050565b60008181526097602052604081206104de9061134e565b60ca546001600160a01b0316331480610dc95750610dc9600033610c38565b610de55760405162461bcd60e51b815260040161051890611e4e565b60008383604051602001610dfa929190611df0565b60408051601f198184030181529181528151602092830120600081815260ce9093529120549091506001600160a01b031615610e785760405162461bcd60e51b815260206004820152601c60248201527f546f6b656e204d616e6167657220697320616c726561647920736574000000006044820152606401610518565b6001600160a01b038216610ece5760405162461bcd60e51b815260206004820152601f60248201527f496e636f727265637420546f6b656e204d616e616765722061646472657373006044820152606401610518565b600090815260ce6020526040902080546001600160a01b0319166001600160a01b03929092169190911790555050565b600082815260656020526040902060010154610f198161117c565b6105a483836111a8565b610f2e600033610c38565b610f7a5760405162461bcd60e51b815260206004820152601e60248201527f44454641554c545f41444d494e5f524f4c4520697320726571756972656400006044820152606401610518565b6001600160a01b038116610fd05760405162461bcd60e51b815260206004820181905260248201527f4465706f736974426f7820616464726573732068617320746f206265207365746044820152606401610518565b60cd54604080516001600160a01b03928316815291831660208301527fc968af77923193016f61d74ba6827296db5e1f37ec4fab3ad1ef20e193395e59910160405180910390a160cd80546001600160a01b0319166001600160a01b0392909216919091179055565b60cb54604080518082018252600781526613585a5b9b995d60ca1b60208083019190915291516001600160a01b039093169263593157929261107c929101611dd4565b60408051601f198184030181529082905280516020909101206001600160e01b031960e084901b1682526004820152336024820152604401600060405180830381600087803b1580156110ce57600080fd5b505af11580156110e2573d6000803e3d6000fd5b505050506111446040518060400160405280600781526020016613585a5b9b995d60ca1b8152506040516020016111199190611dd4565b60408051601f19818403018152919052805160209091012060cd546001600160a01b03163384611358565b50565b60006001600160e01b03198216637965db0b60e01b14806104de57506301ffc9a760e01b6001600160e01b03198316146104de565b611144813361143d565b61119082826114a1565b60008281526097602052604090206105a49082611527565b6111b2828261153c565b60008281526097602052604090206105a490826115a3565b600054610100900460ff166112355760405162461bcd60e51b815260206004820152602b60248201527f496e697469616c697a61626c653a20636f6e7472616374206973206e6f74206960448201526a6e697469616c697a696e6760a81b6064820152608401610518565b565b6106238282611186565b60006040518060400160405280600781526020016613585a5b9b995d60ca1b8152506040516020016112739190611dd4565b6040516020818303038152906040528051906020012083148015610c3157505060cd546001600160a01b03908116911614919050565b604080516080810182526000606082018181528252602082018190529181019190915260016112d884846115b8565b600e8111156112e9576112e9611e7d565b146113365760405162461bcd60e51b815260206004820181905260248201527f4d6573736167652074797065206973206e6f7420455448207472616e736665726044820152606401610518565b610c3182840184611ea7565b6000610c318383611603565b60006104de825490565b80156113c35760cf546040516338b5bd8d60e21b8152336004820152602481018390526001600160a01b039091169063e2d6f63490604401600060405180830381600087803b1580156113aa57600080fd5b505af11580156113be573d6000803e3d6000fd5b505050505b60006113cf838361162d565b60c954604051634a24490160e11b81529192506001600160a01b03169063944892029061140490889088908690600401611f47565b600060405180830381600087803b15801561141e57600080fd5b505af1158015611432573d6000803e3d6000fd5b505050505050505050565b6114478282610c38565b6106235761145f816001600160a01b03166014611685565b61146a836020611685565b60405160200161147b929190611f7a565b60408051601f198184030181529082905262461bcd60e51b825261051891600401611ac6565b6114ab8282610c38565b6106235760008281526065602090815260408083206001600160a01b03851684529091529020805460ff191660011790556114e33390565b6001600160a01b0316816001600160a01b0316837f2f8788117e7eff1d82e926ec794901d17c78024a50270940304540a733656f0d60405160405180910390a45050565b6000610c31836001600160a01b038416611821565b6115468282610c38565b156106235760008281526065602090815260408083206001600160a01b0385168085529252808320805460ff1916905551339285917ff6391f5c32d9c69d2a47ea670b442974b53935d1edc7fd64eb21e047a839171b9190a45050565b6000610c31836001600160a01b038416611870565b6000806115c78385018561198d565b90506115d4602082611fef565b6000036115f7576115ef6115ea84838188612011565b6115b8565b9150506104de565b6115ef8385018561203b565b600082600001828154811061161a5761161a612056565b9060005260206000200154905092915050565b60408051608081018252600160608083019182529082526001600160a01b0385166020808401919091528284018590529251909261166d9183910161206c565b60405160208183030381529060405291505092915050565b606060006116948360026120ce565b61169f9060026120ed565b67ffffffffffffffff8111156116b7576116b7611ad9565b6040519080825280601f01601f1916602001820160405280156116e1576020820181803683370190505b509050600360fc1b816000815181106116fc576116fc612056565b60200101906001600160f81b031916908160001a905350600f60fb1b8160018151811061172b5761172b612056565b60200101906001600160f81b031916908160001a905350600061174f8460026120ce565b61175a9060016120ed565b90505b60018111156117d2576f181899199a1a9b1b9c1cb0b131b232b360811b85600f166010811061178e5761178e612056565b1a60f81b8282815181106117a4576117a4612056565b60200101906001600160f81b031916908160001a90535060049490941c936117cb81612100565b905061175d565b508315610c315760405162461bcd60e51b815260206004820181905260248201527f537472696e67733a20686578206c656e67746820696e73756666696369656e746044820152606401610518565b6000818152600183016020526040812054611868575081546001818101845560008481526020808220909301849055845484825282860190935260409020919091556104de565b5060006104de565b60008181526001830160205260408120548015611959576000611894600183612117565b85549091506000906118a890600190612117565b905081811461190d5760008660000182815481106118c8576118c8612056565b90600052602060002001549050808760000184815481106118eb576118eb612056565b6000918252602080832090910192909255918252600188019052604090208390555b855486908061191e5761191e61212a565b6001900381819060005260206000200160009055905585600101600086815260200190815260200160002060009055600193505050506104de565b60009150506104de565b60006020828403121561197557600080fd5b81356001600160e01b031981168114610c3157600080fd5b60006020828403121561199f57600080fd5b5035919050565b6001600160a01b038116811461114457600080fd5b600080604083850312156119ce57600080fd5b8235915060208301356119e0816119a6565b809150509250929050565b60008083601f8401126119fd57600080fd5b50813567ffffffffffffffff811115611a1557600080fd5b602083019150836020828501011115611a2d57600080fd5b9250929050565b60008060208385031215611a4757600080fd5b823567ffffffffffffffff811115611a5e57600080fd5b611a6a858286016119eb565b90969095509350505050565b60005b83811015611a91578181015183820152602001611a79565b50506000910152565b60008151808452611ab2816020860160208601611a76565b601f01601f19169290920160200192915050565b602081526000610c316020830184611a9a565b634e487b7160e01b600052604160045260246000fd5b600082601f830112611b0057600080fd5b813567ffffffffffffffff80821115611b1b57611b1b611ad9565b604051601f8301601f19908116603f01168101908282118183101715611b4357611b43611ad9565b81604052838152866020858801011115611b5c57600080fd5b836020870160208301376000602085830101528094505050505092915050565b600080600080600060a08688031215611b9457600080fd5b853567ffffffffffffffff811115611bab57600080fd5b611bb788828901611aef565b9550506020860135611bc8816119a6565b93506040860135611bd8816119a6565b92506060860135611be8816119a6565b91506080860135611bf8816119a6565b809150509295509295909350565b60008060008060008060c08789031215611c1f57600080fd5b863567ffffffffffffffff811115611c3657600080fd5b611c4289828a01611aef565b9650506020870135611c53816119a6565b94506040870135611c63816119a6565b93506060870135611c73816119a6565b92506080870135611c83816119a6565b915060a0870135611c93816119a6565b809150509295509295509295565b60008060008060608587031215611cb757600080fd5b843593506020850135611cc9816119a6565b9250604085013567ffffffffffffffff811115611ce557600080fd5b611cf1878288016119eb565b95989497509550505050565b600060208284031215611d0f57600080fd5b8135610c31816119a6565b60008060408385031215611d2d57600080fd5b50508035926020909101359150565b600080600060408486031215611d5157600080fd5b833567ffffffffffffffff811115611d6857600080fd5b611d74868287016119eb565b9094509250506020840135611d88816119a6565b809150509250925092565b60208082526021908201527f4155544f4d415449435f4445504c4f595f524f4c4520697320726571756972656040820152601960fa1b606082015260800190565b60008251611de6818460208701611a76565b9190910192915050565b8183823760009101908152919050565b6020808252602e908201527f496e697469616c697a61626c653a20636f6e747261637420697320616c72656160408201526d191e481a5b9a5d1a585b1a5e995960921b606082015260800190565b6020808252601590820152742737ba1030baba3437b934bd32b21031b0b63632b960591b604082015260600190565b634e487b7160e01b600052602160045260246000fd5b8035600f8110611ea257600080fd5b919050565b60008183036060811215611eba57600080fd5b6040516060810167ffffffffffffffff8282108183111715611ede57611ede611ad9565b816040526020841215611ef057600080fd5b6080830193508184108185111715611f0a57611f0a611ad9565b5082604052611f1885611e93565b8152815260208401359150611f2c826119a6565b81602082015260408401356040820152809250505092915050565b8381526001600160a01b0383166020820152606060408201819052600090611f7190830184611a9a565b95945050505050565b7f416363657373436f6e74726f6c3a206163636f756e7420000000000000000000815260008351611fb2816017850160208801611a76565b7001034b99036b4b9b9b4b733903937b6329607d1b6017918401918201528351611fe3816028840160208801611a76565b01602801949350505050565b60008261200c57634e487b7160e01b600052601260045260246000fd5b500690565b6000808585111561202157600080fd5b8386111561202e57600080fd5b5050820193919092039150565b60006020828403121561204d57600080fd5b610c3182611e93565b634e487b7160e01b600052603260045260246000fd5b8151516060820190600f811061209257634e487b7160e01b600052602160045260246000fd5b82526020838101516001600160a01b031690830152604092830151929091019190915290565b634e487b7160e01b600052601160045260246000fd5b60008160001904831182151516156120e8576120e86120b8565b500290565b808201808211156104de576104de6120b8565b60008161210f5761210f6120b8565b506000190190565b818103818111156104de576104de6120b8565b634e487b7160e01b600052603160045260246000fdfe7164765a3c8bd2513bdfa0c90f1bee9606e920fbf2c9071f310263fbd818684ba264697066735822122000d9bf1834aa80f5b4301ad8f553bdf4d991532f622a103604abe44d1f04a20864736f6c63430008100033",
  "linkReferences": {},
  "deployedLinkReferences": {}
}