{
  "_format": "hh-sol-artifact-1",
  "contractName": "MessageProxyForSchain",
  "sourceName": "contracts/schain/MessageProxyForSchain.sol",
  "abi": [
    {
      "anonymous": false,
      "inputs": [
        {
          "indexed": true,
          "internalType": "bytes32",
          "name": "chainHash",
          "type": "bytes32"
        },
        {
          "indexed": false,
          "internalType": "address",
          "name": "contractAddress",
          "type": "address"
        }
      ],
      "name": "ExtraContractRegistered",
      "type": "event"
    },
    {
      "anonymous": false,
      "inputs": [
        {
          "indexed": true,
          "internalType": "bytes32",
          "name": "chainHash",
          "type": "bytes32"
        },
        {
          "indexed": false,
          "internalType": "address",
          "name": "contractAddress",
          "type": "address"
        }
      ],
      "name": "ExtraContractRemoved",
      "type": "event"
    },
    {
      "anonymous": false,
      "inputs": [
        {
          "indexed": false,
          "internalType": "uint256",
          "name": "oldValue",
          "type": "uint256"
        },
        {
          "indexed": false,
          "internalType": "uint256",
          "name": "newValue",
          "type": "uint256"
        }
      ],
      "name": "GasLimitWasChanged",
      "type": "event"
    },
    {
      "anonymous": false,
      "inputs": [
        {
          "indexed": false,
          "internalType": "uint8",
          "name": "version",
          "type": "uint8"
        }
      ],
      "name": "Initialized",
      "type": "event"
    },
    {
      "anonymous": false,
      "inputs": [
        {
          "indexed": false,
          "internalType": "uint256",
          "name": "oldValue",
          "type": "uint256"
        },
        {
          "indexed": false,
          "internalType": "uint256",
          "name": "newValue",
          "type": "uint256"
        }
      ],
      "name": "MinimumReceiverBalanceChanged",
      "type": "event"
    },
    {
      "anonymous": false,
      "inputs": [
        {
          "indexed": true,
          "internalType": "bytes32",
          "name": "dstChainHash",
          "type": "bytes32"
        },
        {
          "indexed": true,
          "internalType": "uint256",
          "name": "msgCounter",
          "type": "uint256"
        },
        {
          "indexed": true,
          "internalType": "address",
          "name": "srcContract",
          "type": "address"
        },
        {
          "indexed": false,
          "internalType": "address",
          "name": "dstContract",
          "type": "address"
        },
        {
          "indexed": false,
          "internalType": "bytes",
          "name": "data",
          "type": "bytes"
        }
      ],
      "name": "OutgoingMessage",
      "type": "event"
    },
    {
      "anonymous": false,
      "inputs": [
        {
          "indexed": true,
          "internalType": "uint256",
          "name": "msgCounter",
          "type": "uint256"
        },
        {
          "indexed": false,
          "internalType": "bytes",
          "name": "message",
          "type": "bytes"
        }
      ],
      "name": "PostMessageError",
      "type": "event"
    },
    {
      "anonymous": false,
      "inputs": [
        {
          "indexed": false,
          "internalType": "uint256",
          "name": "currentMessage",
          "type": "uint256"
        },
        {
          "indexed": false,
          "internalType": "uint256",
          "name": "previousOutgoingMessageBlockId",
          "type": "uint256"
        }
      ],
      "name": "PreviousMessageReference",
      "type": "event"
    },
    {
      "anonymous": false,
      "inputs": [
        {
          "indexed": true,
          "internalType": "bytes32",
          "name": "role",
          "type": "bytes32"
        },
        {
          "indexed": true,
          "internalType": "bytes32",
          "name": "previousAdminRole",
          "type": "bytes32"
        },
        {
          "indexed": true,
          "internalType": "bytes32",
          "name": "newAdminRole",
          "type": "bytes32"
        }
      ],
      "name": "RoleAdminChanged",
      "type": "event"
    },
    {
      "anonymous": false,
      "inputs": [
        {
          "indexed": true,
          "internalType": "bytes32",
          "name": "role",
          "type": "bytes32"
        },
        {
          "indexed": true,
          "internalType": "address",
          "name": "account",
          "type": "address"
        },
        {
          "indexed": true,
          "internalType": "address",
          "name": "sender",
          "type": "address"
        }
      ],
      "name": "RoleGranted",
      "type": "event"
    },
    {
      "anonymous": false,
      "inputs": [
        {
          "indexed": true,
          "internalType": "bytes32",
          "name": "role",
          "type": "bytes32"
        },
        {
          "indexed": true,
          "internalType": "address",
          "name": "account",
          "type": "address"
        },
        {
          "indexed": true,
          "internalType": "address",
          "name": "sender",
          "type": "address"
        }
      ],
      "name": "RoleRevoked",
      "type": "event"
    },
    {
      "anonymous": false,
      "inputs": [
        {
          "indexed": false,
          "internalType": "string",
          "name": "oldVersion",
          "type": "string"
        },
        {
          "indexed": false,
          "internalType": "string",
          "name": "newVersion",
          "type": "string"
        }
      ],
      "name": "VersionUpdated",
      "type": "event"
    },
    {
      "inputs": [],
      "name": "CHAIN_CONNECTOR_ROLE",
      "outputs": [
        {
          "internalType": "bytes32",
          "name": "",
          "type": "bytes32"
        }
      ],
      "stateMutability": "view",
      "type": "function"
    },
    {
      "inputs": [],
      "name": "CONSTANT_SETTER_ROLE",
      "outputs": [
        {
          "internalType": "bytes32",
          "name": "",
          "type": "bytes32"
        }
      ],
      "stateMutability": "view",
      "type": "function"
    },
    {
      "inputs": [],
      "name": "DEFAULT_ADMIN_ROLE",
      "outputs": [
        {
          "internalType": "bytes32",
          "name": "",
          "type": "bytes32"
        }
      ],
      "stateMutability": "view",
      "type": "function"
    },
    {
      "inputs": [],
      "name": "ETHERBASE",
      "outputs": [
        {
          "internalType": "contract IEtherbaseUpgradeable",
          "name": "",
          "type": "address"
        }
      ],
      "stateMutability": "view",
      "type": "function"
    },
    {
      "inputs": [],
      "name": "EXTRA_CONTRACT_REGISTRAR_ROLE",
      "outputs": [
        {
          "internalType": "bytes32",
          "name": "",
          "type": "bytes32"
        }
      ],
      "stateMutability": "view",
      "type": "function"
    },
    {
      "inputs": [],
      "name": "MAINNET_HASH",
      "outputs": [
        {
          "internalType": "bytes32",
          "name": "",
          "type": "bytes32"
        }
      ],
      "stateMutability": "view",
      "type": "function"
    },
    {
      "inputs": [],
      "name": "MESSAGES_LENGTH",
      "outputs": [
        {
          "internalType": "uint256",
          "name": "",
          "type": "uint256"
        }
      ],
      "stateMutability": "view",
      "type": "function"
    },
    {
      "inputs": [],
      "name": "MINIMUM_BALANCE",
      "outputs": [
        {
          "internalType": "uint256",
          "name": "",
          "type": "uint256"
        }
      ],
      "stateMutability": "view",
      "type": "function"
    },
    {
      "inputs": [],
      "name": "REVERT_REASON_LENGTH",
      "outputs": [
        {
          "internalType": "uint256",
          "name": "",
          "type": "uint256"
        }
      ],
      "stateMutability": "view",
      "type": "function"
    },
    {
      "inputs": [
        {
          "internalType": "string",
          "name": "chainName",
          "type": "string"
        }
      ],
      "name": "addConnectedChain",
      "outputs": [],
      "stateMutability": "nonpayable",
      "type": "function"
    },
    {
      "inputs": [
        {
          "internalType": "bytes32",
          "name": "",
          "type": "bytes32"
        }
      ],
      "name": "connectedChains",
      "outputs": [
        {
          "internalType": "uint256",
          "name": "incomingMessageCounter",
          "type": "uint256"
        },
        {
          "internalType": "uint256",
          "name": "outgoingMessageCounter",
          "type": "uint256"
        },
        {
          "internalType": "bool",
          "name": "inited",
          "type": "bool"
        },
        {
          "internalType": "uint256",
          "name": "lastOutgoingMessageBlockId",
          "type": "uint256"
        }
      ],
      "stateMutability": "view",
      "type": "function"
    },
    {
      "inputs": [],
      "name": "gasLimit",
      "outputs": [
        {
          "internalType": "uint256",
          "name": "",
          "type": "uint256"
        }
      ],
      "stateMutability": "view",
      "type": "function"
    },
    {
      "inputs": [
        {
          "internalType": "bytes32",
          "name": "schainHash",
          "type": "bytes32"
        }
      ],
      "name": "getContractRegisteredLength",
      "outputs": [
        {
          "internalType": "uint256",
          "name": "",
          "type": "uint256"
        }
      ],
      "stateMutability": "view",
      "type": "function"
    },
    {
      "inputs": [
        {
          "internalType": "bytes32",
          "name": "schainHash",
          "type": "bytes32"
        },
        {
          "internalType": "uint256",
          "name": "from",
          "type": "uint256"
        },
        {
          "internalType": "uint256",
          "name": "to",
          "type": "uint256"
        }
      ],
      "name": "getContractRegisteredRange",
      "outputs": [
        {
          "internalType": "address[]",
          "name": "contractsInRange",
          "type": "address[]"
        }
      ],
      "stateMutability": "view",
      "type": "function"
    },
    {
      "inputs": [
        {
          "internalType": "string",
          "name": "fromSchainName",
          "type": "string"
        }
      ],
      "name": "getIncomingMessagesCounter",
      "outputs": [
        {
          "internalType": "uint256",
          "name": "",
          "type": "uint256"
        }
      ],
      "stateMutability": "view",
      "type": "function"
    },
    {
      "inputs": [
        {
          "internalType": "string",
          "name": "targetSchainName",
          "type": "string"
        }
      ],
      "name": "getLastOutgoingMessageBlockId",
      "outputs": [
        {
          "internalType": "uint256",
          "name": "",
          "type": "uint256"
        }
      ],
      "stateMutability": "view",
      "type": "function"
    },
    {
      "inputs": [
        {
          "internalType": "string",
          "name": "targetSchainName",
          "type": "string"
        }
      ],
      "name": "getOutgoingMessagesCounter",
      "outputs": [
        {
          "internalType": "uint256",
          "name": "",
          "type": "uint256"
        }
      ],
      "stateMutability": "view",
      "type": "function"
    },
    {
      "inputs": [
        {
          "internalType": "bytes32",
          "name": "role",
          "type": "bytes32"
        }
      ],
      "name": "getRoleAdmin",
      "outputs": [
        {
          "internalType": "bytes32",
          "name": "",
          "type": "bytes32"
        }
      ],
      "stateMutability": "view",
      "type": "function"
    },
    {
      "inputs": [
        {
          "internalType": "bytes32",
          "name": "role",
          "type": "bytes32"
        },
        {
          "internalType": "uint256",
          "name": "index",
          "type": "uint256"
        }
      ],
      "name": "getRoleMember",
      "outputs": [
        {
          "internalType": "address",
          "name": "",
          "type": "address"
        }
      ],
      "stateMutability": "view",
      "type": "function"
    },
    {
      "inputs": [
        {
          "internalType": "bytes32",
          "name": "role",
          "type": "bytes32"
        }
      ],
      "name": "getRoleMemberCount",
      "outputs": [
        {
          "internalType": "uint256",
          "name": "",
          "type": "uint256"
        }
      ],
      "stateMutability": "view",
      "type": "function"
    },
    {
      "inputs": [
        {
          "internalType": "bytes32",
          "name": "role",
          "type": "bytes32"
        },
        {
          "internalType": "address",
          "name": "account",
          "type": "address"
        }
      ],
      "name": "grantRole",
      "outputs": [],
      "stateMutability": "nonpayable",
      "type": "function"
    },
    {
      "inputs": [
        {
          "internalType": "bytes32",
          "name": "role",
          "type": "bytes32"
        },
        {
          "internalType": "address",
          "name": "account",
          "type": "address"
        }
      ],
      "name": "hasRole",
      "outputs": [
        {
          "internalType": "bool",
          "name": "",
          "type": "bool"
        }
      ],
      "stateMutability": "view",
      "type": "function"
    },
    {
      "inputs": [
        {
          "internalType": "contract IKeyStorage",
          "name": "blsKeyStorage",
          "type": "address"
        },
        {
          "internalType": "string",
          "name": "schainName",
          "type": "string"
        }
      ],
      "name": "initialize",
      "outputs": [],
      "stateMutability": "nonpayable",
      "type": "function"
    },
    {
      "inputs": [
        {
          "internalType": "uint256",
          "name": "newGasLimit",
          "type": "uint256"
        }
      ],
      "name": "initializeMessageProxy",
      "outputs": [],
      "stateMutability": "nonpayable",
      "type": "function"
    },
    {
      "inputs": [
        {
          "internalType": "string",
          "name": "schainName",
          "type": "string"
        }
      ],
      "name": "isConnectedChain",
      "outputs": [
        {
          "internalType": "bool",
          "name": "",
          "type": "bool"
        }
      ],
      "stateMutability": "view",
      "type": "function"
    },
    {
      "inputs": [
        {
          "internalType": "bytes32",
          "name": "schainHash",
          "type": "bytes32"
        },
        {
          "internalType": "address",
          "name": "contractAddress",
          "type": "address"
        }
      ],
      "name": "isContractRegistered",
      "outputs": [
        {
          "internalType": "bool",
          "name": "",
          "type": "bool"
        }
      ],
      "stateMutability": "view",
      "type": "function"
    },
    {
      "inputs": [],
      "name": "keyStorage",
      "outputs": [
        {
          "internalType": "contract IKeyStorage",
          "name": "",
          "type": "address"
        }
      ],
      "stateMutability": "view",
      "type": "function"
    },
    {
      "inputs": [],
      "name": "messageInProgress",
      "outputs": [
        {
          "internalType": "bool",
          "name": "",
          "type": "bool"
        }
      ],
      "stateMutability": "view",
      "type": "function"
    },
    {
      "inputs": [],
      "name": "minimumReceiverBalance",
      "outputs": [
        {
          "internalType": "uint256",
          "name": "",
          "type": "uint256"
        }
      ],
      "stateMutability": "view",
      "type": "function"
    },
    {
      "inputs": [
        {
          "internalType": "string",
          "name": "fromChainName",
          "type": "string"
        },
        {
          "internalType": "uint256",
          "name": "startingCounter",
          "type": "uint256"
        },
        {
          "components": [
            {
              "internalType": "address",
              "name": "sender",
              "type": "address"
            },
            {
              "internalType": "address",
              "name": "destinationContract",
              "type": "address"
            },
            {
              "internalType": "bytes",
              "name": "data",
              "type": "bytes"
            }
          ],
          "internalType": "struct IMessageProxy.Message[]",
          "name": "messages",
          "type": "tuple[]"
        },
        {
          "components": [
            {
              "internalType": "uint256[2]",
              "name": "blsSignature",
              "type": "uint256[2]"
            },
            {
              "internalType": "uint256",
              "name": "hashA",
              "type": "uint256"
            },
            {
              "internalType": "uint256",
              "name": "hashB",
              "type": "uint256"
            },
            {
              "internalType": "uint256",
              "name": "counter",
              "type": "uint256"
            }
          ],
          "internalType": "struct IMessageProxy.Signature",
          "name": "signature",
          "type": "tuple"
        }
      ],
      "name": "postIncomingMessages",
      "outputs": [],
      "stateMutability": "nonpayable",
      "type": "function"
    },
    {
      "inputs": [
        {
          "internalType": "bytes32",
          "name": "targetChainHash",
          "type": "bytes32"
        },
        {
          "internalType": "address",
          "name": "targetContract",
          "type": "address"
        },
        {
          "internalType": "bytes",
          "name": "data",
          "type": "bytes"
        }
      ],
      "name": "postOutgoingMessage",
      "outputs": [],
      "stateMutability": "nonpayable",
      "type": "function"
    },
    {
      "inputs": [
        {
          "internalType": "string",
          "name": "chainName",
          "type": "string"
        },
        {
          "internalType": "address",
          "name": "extraContract",
          "type": "address"
        }
      ],
      "name": "registerExtraContract",
      "outputs": [],
      "stateMutability": "nonpayable",
      "type": "function"
    },
    {
      "inputs": [
        {
          "internalType": "address",
          "name": "extraContract",
          "type": "address"
        }
      ],
      "name": "registerExtraContractForAll",
      "outputs": [],
      "stateMutability": "nonpayable",
      "type": "function"
    },
    {
      "inputs": [
        {
          "internalType": "string",
          "name": "chainName",
          "type": "string"
        }
      ],
      "name": "removeConnectedChain",
      "outputs": [],
      "stateMutability": "nonpayable",
      "type": "function"
    },
    {
      "inputs": [
        {
          "internalType": "string",
          "name": "chainName",
          "type": "string"
        },
        {
          "internalType": "address",
          "name": "extraContract",
          "type": "address"
        }
      ],
      "name": "removeExtraContract",
      "outputs": [],
      "stateMutability": "nonpayable",
      "type": "function"
    },
    {
      "inputs": [
        {
          "internalType": "address",
          "name": "extraContract",
          "type": "address"
        }
      ],
      "name": "removeExtraContractForAll",
      "outputs": [],
      "stateMutability": "nonpayable",
      "type": "function"
    },
    {
      "inputs": [
        {
          "internalType": "bytes32",
          "name": "role",
          "type": "bytes32"
        },
        {
          "internalType": "address",
          "name": "account",
          "type": "address"
        }
      ],
      "name": "renounceRole",
      "outputs": [],
      "stateMutability": "nonpayable",
      "type": "function"
    },
    {
      "inputs": [
        {
          "internalType": "bytes32",
          "name": "role",
          "type": "bytes32"
        },
        {
          "internalType": "address",
          "name": "account",
          "type": "address"
        }
      ],
      "name": "revokeRole",
      "outputs": [],
      "stateMutability": "nonpayable",
      "type": "function"
    },
    {
      "inputs": [],
      "name": "schainHash",
      "outputs": [
        {
          "internalType": "bytes32",
          "name": "",
          "type": "bytes32"
        }
      ],
      "stateMutability": "view",
      "type": "function"
    },
    {
      "inputs": [
        {
          "internalType": "uint256",
          "name": "balance",
          "type": "uint256"
        }
      ],
      "name": "setMinimumReceiverBalance",
      "outputs": [],
      "stateMutability": "nonpayable",
      "type": "function"
    },
    {
      "inputs": [
        {
          "internalType": "uint256",
          "name": "newGasLimit",
          "type": "uint256"
        }
      ],
      "name": "setNewGasLimit",
      "outputs": [],
      "stateMutability": "nonpayable",
      "type": "function"
    },
    {
      "inputs": [
        {
          "internalType": "string",
          "name": "newVersion",
          "type": "string"
        }
      ],
      "name": "setVersion",
      "outputs": [],
      "stateMutability": "nonpayable",
      "type": "function"
    },
    {
      "inputs": [
        {
          "internalType": "bytes4",
          "name": "interfaceId",
          "type": "bytes4"
        }
      ],
      "name": "supportsInterface",
      "outputs": [
        {
          "internalType": "bool",
          "name": "",
          "type": "bool"
        }
      ],
      "stateMutability": "view",
      "type": "function"
    },
    {
      "inputs": [
        {
          "internalType": "address payable",
          "name": "receiver",
          "type": "address"
        }
      ],
      "name": "topUpReceiverBalance",
      "outputs": [],
      "stateMutability": "nonpayable",
      "type": "function"
    },
    {
      "inputs": [
        {
          "components": [
            {
              "internalType": "bytes32",
              "name": "dstChainHash",
              "type": "bytes32"
            },
            {
              "internalType": "uint256",
              "name": "msgCounter",
              "type": "uint256"
            },
            {
              "internalType": "address",
              "name": "srcContract",
              "type": "address"
            },
            {
              "internalType": "address",
              "name": "dstContract",
              "type": "address"
            },
            {
              "internalType": "bytes",
              "name": "data",
              "type": "bytes"
            }
          ],
          "internalType": "struct IMessageProxyForSchain.OutgoingMessageData",
          "name": "message",
          "type": "tuple"
        }
      ],
      "name": "verifyOutgoingMessageData",
      "outputs": [
        {
          "internalType": "bool",
          "name": "isValidMessage",
          "type": "bool"
        }
      ],
      "stateMutability": "view",
      "type": "function"
    },
    {
      "inputs": [
        {
          "internalType": "bytes32",
          "name": "hashedMessage",
          "type": "bytes32"
        },
        {
          "components": [
            {
              "internalType": "uint256[2]",
              "name": "blsSignature",
              "type": "uint256[2]"
            },
            {
              "internalType": "uint256",
              "name": "hashA",
              "type": "uint256"
            },
            {
              "internalType": "uint256",
              "name": "hashB",
              "type": "uint256"
            },
            {
              "internalType": "uint256",
              "name": "counter",
              "type": "uint256"
            }
          ],
          "internalType": "struct IMessageProxy.Signature",
          "name": "signature",
          "type": "tuple"
        }
      ],
      "name": "verifySignature",
      "outputs": [
        {
          "internalType": "bool",
          "name": "",
          "type": "bool"
        }
      ],
      "stateMutability": "view",
      "type": "function"
    },
    {
      "inputs": [],
      "name": "version",
      "outputs": [
        {
          "internalType": "string",
          "name": "",
          "type": "string"
        }
      ],
      "stateMutability": "view",
      "type": "function"
    }
  ],
  "bytecode": "0x608060405234801561001057600080fd5b50614385806100206000396000f3fe608060405234801561001057600080fd5b50600436106102955760003560e01c806367ec602011610167578063bbc4e8c2116100ce578063e6ab840311610087578063e6ab8403146105e1578063f2f6360514610642578063f399e22e14610655578063f68016b714610668578063f79f795414610671578063f8c88a161461068457600080fd5b8063bbc4e8c214610578578063bdb40cb01461058d578063ca15c87314610595578063cab010c9146105a8578063d547741f146105bb578063e051116b146105ce57600080fd5b80639010d07c116101205780639010d07c1461051157806391d14854146105245780639448920214610537578063999ab9aa1461054a578063a217fddf1461055d578063a8bb1b7d1461056557600080fd5b806367ec60201461048d5780636a156b9a146104a05780636e2f37b0146104c557806377fe0f31146104d8578063788bc78c146104eb5780637aa38a7c146104fe57600080fd5b806336568abe1161020b578063523c8ab6116101c4578063523c8ab61461041b57806352dc24ee1461043057806353498cdd1461044357806354fd4d5014610452578063603e5d1314610467578063654d88281461047a57600080fd5b806336568abe146103b35780633b597ffe146103c65780633b690b6b146103d95780633bf2f737146103e25780633cdd2cc3146103f55780634d2038591461040857600080fd5b80631cf5379d1161025d5780631cf5379d146103095780632148834014610316578063248a9ca31461033657806328c5e182146103595780632f2ff15d1461038b5780633167f250146103a057600080fd5b806301ffc9a71461029a5780630468ce13146102c25780630fc307a8146102d957806313c52260146102ec578063198e687c14610301575b600080fd5b6102ad6102a83660046134bd565b610697565b60405190151581526020015b60405180910390f35b6102cb60d45481565b6040519081526020016102b9565b6102cb6102e73660046134e7565b6106c2565b6102cb60008051602061431083398151915281565b6102cb604081565b60d3546102ad9060ff1681565b610329610324366004613500565b6106d9565b6040516102b9919061352c565b6102cb6103443660046134e7565b60009081526065602052604090206001015490565b6102cb6040516613585a5b9b995d60ca1b60208201526027016040516020818303038152906040528051906020012081565b61039e61039936600461358e565b610818565b005b61039e6103ae3660046134e7565b610842565b61039e6103c136600461358e565b6108b7565b61039e6103d43660046134e7565b610935565b6102cb60cd5481565b6102cb6103f03660046136b7565b6109aa565b61039e6104033660046136b7565b610a20565b61039e6104163660046136eb565b610b09565b6102cb6000805160206142b083398151915281565b6102ad61043e36600461371a565b610c43565b6102cb670de0b6b3a764000081565b61045a610c56565b6040516102b99190613797565b61039e6104753660046137f2565b610ce4565b6102ad61048836600461358e565b610f87565b6102cb61049b3660046138ac565b610f9f565b6104ad62695d1f60891b81565b6040516001600160a01b0390911681526020016102b9565b61039e6104d33660046134e7565b611018565b6102cb6104e63660046138ac565b61113a565b61039e6104f93660046138ac565b6111e0565b6102ad61050c3660046138ed565b611280565b6104ad61051f366004613997565b6112b9565b6102ad61053236600461358e565b6112d1565b61039e6105453660046139b9565b6112fc565b6102ad6105583660046136b7565b6113b2565b6102cb600081565b61039e6105733660046136eb565b6113fb565b6102cb6000805160206142f083398151915281565b6102cb600a81565b6102cb6105a33660046134e7565b6114f5565b61039e6105b6366004613a11565b61150c565b61039e6105c936600461358e565b611596565b61039e6105dc3660046136eb565b6115bb565b61061c6105ef3660046134e7565b60c96020526000908152604090208054600182015460028301546003909301549192909160ff9091169084565b6040805194855260208501939093529015159183019190915260608201526080016102b9565b61039e6106503660046138ac565b61163c565b61039e610663366004613a57565b6116c3565b6102cb60cb5481565b60cc546104ad906001600160a01b031681565b61039e610692366004613a11565b611874565b60006001600160e01b03198216635a05180f60e01b14806106bc57506106bc826118fe565b92915050565b600081815260d1602052604081206106bc90611933565b606081831080156106f45750600a6106f18484613abc565b11155b80156107165750600084815260d16020526040902061071290611933565b8211155b61075c5760405162461bcd60e51b815260206004820152601260248201527114985b99d9481a5cc81a5b98dbdc9c9958dd60721b60448201526064015b60405180910390fd5b6107668383613abc565b6001600160401b0381111561077d5761077d6135be565b6040519080825280602002602001820160405280156107a6578160200160208202803683370190505b509050825b8281101561081057600085815260d1602052604090206107cb908261193d565b826107d68684613abc565b815181106107e6576107e6613acf565b6001600160a01b03909216602092830291909101909101528061080881613ae5565b9150506107ab565b509392505050565b60008281526065602052604090206001015461083381611949565b61083d8383611956565b505050565b61085a6000805160206142f0833981519152336112d1565b6108765760405162461bcd60e51b815260040161075390613afe565b60d45460408051918252602082018390527f54f8ef35fcc1901c20cd7767a28e12fad4c45cd0d6d1d21cfeee4db6353c8fbf910160405180910390a160d455565b6001600160a01b03811633146109275760405162461bcd60e51b815260206004820152602f60248201527f416363657373436f6e74726f6c3a2063616e206f6e6c792072656e6f756e636560448201526e103937b632b9903337b91039b2b63360891b6064820152608401610753565b6109318282611978565b5050565b61094d6000805160206142f0833981519152336112d1565b6109695760405162461bcd60e51b815260040161075390613afe565b60cb5460408051918252602082018390527f8abddb75fd50f7583079c0b550ec7a54fa3fd8d5dd1d2dfdc473f7ce27e3b9ac910160405180910390a160cb55565b600080826040516020016109be9190613b44565b60408051601f198184030181529181528151602092830120600081815260c990935291206002015490915060ff16610a085760405162461bcd60e51b815260040161075390613b60565b600090815260c9602052604090206003015492915050565b610a38600080516020614310833981519152336112d1565b610a545760405162461bcd60e51b815260040161075390613ba4565b600081604051602001610a679190613b44565b604051602081830303815290604052805190602001209050604051602001610a9c906613585a5b9b995d60ca1b815260070190565b604051602081830303815290604052805190602001208103610b005760405162461bcd60e51b815260206004820152601960248201527f4d61696e6e65742063616e6e6f742062652072656d6f766564000000000000006044820152606401610753565b6109318261199a565b610b216000805160206142b0833981519152336112d1565b610b3d5760405162461bcd60e51b815260040161075390613bd9565b6001600160a01b0381163b610b945760405162461bcd60e51b815260206004820152601f60248201527f476976656e2061646472657373206973206e6f74206120636f6e7472616374006044820152606401610753565b610bb08160d15b60008080526020919091526040902090611a81565b15610bcd5760405162461bcd60e51b815260040161075390613c22565b6000805260d1602052610bff7efa5413e7b01fc543d01f0911de573ace463b956369df4472f39030e8d98b7782611aa3565b506040516001600160a01b03821681526000907f03bcd152926369e3cf05cb7af471a15d680e8ec5d20b13705048d14e94679365906020015b60405180910390a250565b6000610c4f8383611ab8565b9392505050565b60d28054610c6390613c66565b80601f0160208091040260200160405190810160405280929190818152602001828054610c8f90613c66565b8015610cdc5780601f10610cb157610100808354040283529160200191610cdc565b820191906000526020600020905b815481529060010190602001808311610cbf57829003601f168201915b505050505081565b60d35460ff1615610d305760405162461bcd60e51b81526020600482015260166024820152754d65737361676520697320696e2070726f677265737360501b6044820152606401610753565b60d3805460ff19166001179055604051600090610d539088908890602001613c9a565b60408051601f198184030181529181528151602092830120600081815260c990935291206002015490915060ff16610dc85760405162461bcd60e51b815260206004820152601860248201527710da185a5b881a5cc81b9bdd081a5b9a5d1a585b1a5e995960421b6044820152606401610753565b600a831115610e0d5760405162461bcd60e51b8152602060048201526011602482015270546f6f206d616e79206d6573736167657360781b6044820152606401610753565b610e23610e1d8585888b8b611b56565b83611ab8565b610e6f5760405162461bcd60e51b815260206004820152601960248201527f5369676e6174757265206973206e6f74207665726966696564000000000000006044820152606401610753565b600081815260c960205260409020548514610ef25760405162461bcd60e51b815260206004820152603860248201527f5374617274696e6720636f756e746572206973206e6f74207175616c20746f2060448201527f696e636f6d696e67206d65737361676520636f756e74657200000000000000006064820152608401610753565b600081815260c9602052604081208054859290610f10908490613caa565b90915550600090505b83811015610f6b57610f5982868684818110610f3757610f37613acf565b9050602002810190610f499190613cbd565b610f54896001613caa565b611cd1565b80610f6381613ae5565b915050610f19565b50610f74611ef4565b505060d3805460ff191690555050505050565b600082815260d160205260408120610c4f9083611a81565b6000808383604051602001610fb5929190613c9a565b60408051601f198184030181529181528151602092830120600081815260c990935291206002015490915060ff16610fff5760405162461bcd60e51b815260040161075390613b60565b600090815260c960205260409020600101549392505050565b600054610100900460ff16158080156110385750600054600160ff909116105b806110525750303b158015611052575060005460ff166001145b61106e5760405162461bcd60e51b815260040161075390613cd3565b6000805460ff191660011790558015611091576000805461ff0019166101001790555b611099611f35565b6110a4600033611fa2565b6110bc60008051602061431083398151915233611fa2565b6110d46000805160206142b083398151915233611fa2565b6110ec6000805160206142f083398151915233611fa2565b60cb8290558015610931576000805461ff0019169055604051600181527f7f26b83ff96e1f2b6a682f133852f6798a09c465da95921460cefb38474024989060200160405180910390a15050565b6000808383604051602001611150929190613c9a565b60408051601f198184030181529181528151602092830120600081815260c990935291206002015490915060ff166111ca5760405162461bcd60e51b815260206004820152601f60248201527f536f7572636520636861696e206973206e6f7420696e697469616c697a6564006044820152606401610753565b600090815260c960205260409020549392505050565b6111eb6000336112d1565b6112375760405162461bcd60e51b815260206004820152601e60248201527f44454641554c545f41444d494e5f524f4c4520697320726571756972656400006044820152606401610753565b7f22efc5f993dce37856b77dd72d7d7661032380c9728c4133f3c071c591bc6ca760d2838360405161126b93929190613d4a565b60405180910390a160d261083d828483613e2f565b8051600090815260ce602090815260408083208285015184529091528120546112a883611fac565b81036112b357600191505b50919050565b6000828152609760205260408120610c4f908361193d565b60009182526065602090815260408084206001600160a01b0393909316845291905290205460ff1690565b611307838383612022565b60006040518060a00160405280858152602001600160c960008881526020019081526020016000206001015461133d9190613abc565b81523360208201526001600160a01b0385166040820152606001839052805190915061136882611fac565b600082815260ce6020908152604080832060d080845282852080548652918452918420949094558483529052815460019291906113a6908490613caa565b90915550505050505050565b600060c96000836040516020016113c99190613b44565b60408051601f198184030181529181528151602092830120835290820192909252016000206002015460ff1692915050565b6114136000805160206142b0833981519152336112d1565b61142f5760405162461bcd60e51b815260040161075390613bd9565b61143a8160d1610b9b565b6114865760405162461bcd60e51b815260206004820181905260248201527f457874726120636f6e7472616374206973206e6f7420726567697374657265646044820152606401610753565b6000805260d16020526114b87efa5413e7b01fc543d01f0911de573ace463b956369df4472f39030e8d98b7782612135565b506040516001600160a01b03821681526000907f4d393b64277bfc0b02e0459a74c316c7f22069352a678319fd8139ba4085e06190602001610c38565b60008181526097602052604081206106bc90611933565b6115246000805160206142b0833981519152336112d1565b6115405760405162461bcd60e51b815260040161075390613bd9565b6000826040516020016115539190613b44565b60405160208183030381529060405280519060200120905060cd54810361158c5760405162461bcd60e51b815260040161075390613eef565b61083d818361214a565b6000828152606560205260409020600101546115b181611949565b61083d8383611978565b6115c6600033610f87565b6116125760405162461bcd60e51b815260206004820152601860248201527f53656e646572206973206e6f74207265676973746572656400000000000000006044820152606401610753565b60d4546001600160a01b03821631908082101561083d5761083d836116378484613abc565b6122aa565b60008282604051602001611651929190613c9a565b60405160208183030381529060405280519060200120905060cd5481036116ba5760405162461bcd60e51b815260206004820152601c60248201527f53636861696e2063616e6e6f7420636f6e6e65637420697473656c66000000006044820152606401610753565b61083d81612440565b600054610100900460ff16158080156116e35750600054600160ff909116105b806116fd5750303b1580156116fd575060005460ff166001145b6117195760405162461bcd60e51b815260040161075390613cd3565b6000805460ff19166001179055801561173c576000805461ff0019166101001790555b611748622dc6c0611018565b60cc80546001600160a01b0385166001600160a01b03199091161790556040805160808101825260008082526020808301829052600183850152606083018290529251919260c9926117a891016613585a5b9b995d60ca1b815260070190565b60408051808303601f190181529181528151602092830120835282820193909352908201600020835181558382015160018201558383015160028201805460ff19169115159190911790556060909301516003909301929092555161180f91849101613b44565b60408051601f19818403018152919052805160209091012060cd55801561083d576000805461ff0019169055604051600181527f7f26b83ff96e1f2b6a682f133852f6798a09c465da95921460cefb38474024989060200160405180910390a1505050565b61188c6000805160206142b0833981519152336112d1565b6118a85760405162461bcd60e51b815260040161075390613bd9565b6000826040516020016118bb9190613b44565b60405160208183030381529060405280519060200120905060cd5481036118f45760405162461bcd60e51b815260040161075390613eef565b61083d8183612534565b60006001600160e01b03198216637965db0b60e01b14806106bc57506301ffc9a760e01b6001600160e01b03198316146106bc565b60006106bc825490565b6000610c4f83836125df565b6119538133612609565b50565b611960828261266d565b600082815260976020526040902061083d9082611aa3565b61198282826126f3565b600082815260976020526040902061083d9082612135565b6119b2600080516020614310833981519152336112d1565b6119ce5760405162461bcd60e51b815260040161075390613ba4565b6000816040516020016119e19190613b44565b60408051601f198184030181529181528151602092830120600081815260c990935291206002015490915060ff16611a565760405162461bcd60e51b815260206004820152601860248201527710da185a5b881a5cc81b9bdd081a5b9a5d1a585b1a5e995960421b6044820152606401610753565b600090815260c9602052604081208181556001810182905560028101805460ff191690556003015550565b6001600160a01b03811660009081526001830160205260408120541515610c4f565b6000610c4f836001600160a01b03841661275a565b604080518082018252823581526020808401359082015260cc548251632aa77bd360e11b81528351600094610c4f949388936080808a013594938a01359360608b0135936001600160a01b03169263554ef7a69260048083019391928290030181865afa158015611b2d573d6000803e3d6000fd5b505050506040513d601f19601f82011682018060405250810190611b519190613f75565b6127a9565b6000808383604051602001611b6c929190613c9a565b60408051808303601f190181528282528051602091820120908301819052908201879052915060009060600160405160208183030381529060405280519060200120905060005b87811015611cc55781898983818110611bce57611bce613acf565b9050602002810190611be09190613cbd565b611bee9060208101906136eb565b8a8a84818110611c0057611c00613acf565b9050602002810190611c129190613cbd565b611c239060408101906020016136eb565b6040805160208101949094526001600160a01b0392831690840152166060820152608001604051602081830303815290604052898983818110611c6857611c68613acf565b9050602002810190611c7a9190613cbd565b611c88906040810190613fb8565b604051602001611c9a93929190613ffe565b6040516020818303038152906040528051906020012091508080611cbd90613ae5565b915050611bb3565b50979650505050505050565b611cf3611ce460408401602085016136eb565b6001600160a01b03163b151590565b611d615780600080516020614330833981519152604051611d549060208082526026908201527f44657374696e6174696f6e20636f6e7472616374206973206e6f74206120636f6040820152651b9d1c9858dd60d21b606082015260800190565b60405180910390a2505050565b611d7160408301602084016136eb565b6001600160a01b031663884cee5a60cb5485856000016020810190611d9691906136eb565b611da36040880188613fb8565b6040518663ffffffff1660e01b8152600401611dc29493929190614026565b600060405180830381600088803b158015611ddc57600080fd5b5087f193505050508015611dee575060015b61083d57611dfa614051565b806308c379a003611e4f5750611e0e61406d565b80611e195750611ea9565b81600080516020614330833981519152611e34836040612973565b604051611e419190613797565b60405180910390a250505050565b634e487b7103611ea957611e616140f6565b90611e6c5750611ea9565b8160008051602061433083398151915282604051602001611e8f91815260200190565b60408051601f1981840301815290829052611e4191613797565b3d808015611ed3576040519150601f19603f3d011682016040523d82523d6000602084013e611ed8565b606091505b5081600080516020614330833981519152611e34836040612973565b60003a5a611f029190614116565b611f0d903331613caa565b9050670de0b6b3a7640000811015611953576119533361163783670de0b6b3a7640000613abc565b600054610100900460ff16611fa05760405162461bcd60e51b815260206004820152602b60248201527f496e697469616c697a61626c653a20636f6e7472616374206973206e6f74206960448201526a6e697469616c697a696e6760a81b6064820152608401610753565b565b6109318282611956565b6000808260000151836020015160001b846040015160601b6bffffffffffffffffffffffff1916856060015160601b6bffffffffffffffffffffffff19168660800151604051602001612003959493929190614135565b60408051601f1981840301815291905280516020909101209392505050565b600083815260c9602052604090206002015460ff166120535760405162461bcd60e51b815260040161075390613b60565b61205c83612a3d565b600083815260c96020526040908190206001015490513390829086907f803d7f3ca0e5f93fcce39fa29812ed57a95a151594966e17125220132741c6b0906120a79088908890614170565b60405180910390a4600084815260c96020908152604091829020600301548251848152918201527f64ab4eb9f2b913fd01467c69e91e32483420fab6be93c3a7559adbe1b0356845910160405180910390a1600084815260c96020526040812060010180549161211683613ae5565b9091555050506000928352505060c96020526040902043600390910155565b6000610c4f836001600160a01b038416612aae565b6001600160a01b0381163b6121a15760405162461bcd60e51b815260206004820152601f60248201527f476976656e2061646472657373206973206e6f74206120636f6e7472616374006044820152606401610753565b6121bd8160d15b60008581526020919091526040902090611a81565b156121da5760405162461bcd60e51b815260040161075390613c22565b6121e58160d1610b9b565b1561224e5760405162461bcd60e51b815260206004820152603360248201527f457874726120636f6e747261637420697320616c7265616479207265676973746044820152726572656420666f7220616c6c20636861696e7360681b6064820152608401610753565b600082815260d1602052604090206122669082611aa3565b506040516001600160a01b038216815282907f03bcd152926369e3cf05cb7af471a15d680e8ec5d20b13705048d14e94679365906020015b60405180910390a25050565b62695d1f60891b803b158015906123935750806001600160a01b03166391d14854826001600160a01b031663bc2a1e8d6040518163ffffffff1660e01b8152600401602060405180830381865afa158015612309573d6000803e3d6000fd5b505050506040513d601f19601f8201168201806040525081019061232d9190614194565b6040516001600160e01b031960e084901b1681526004810191909152306024820152604401602060405180830381865afa15801561236f573d6000803e3d6000fd5b505050506040513d601f19601f8201168201806040525081019061239391906141ad565b1561083d57806001600160a01b0316318210156124125760405163204a3e9360e01b81526001600160a01b0384811660048301526024820184905282169063204a3e93906044015b600060405180830381600087803b1580156123f557600080fd5b505af1158015612409573d6000803e3d6000fd5b50505050505050565b604051630a79309b60e01b81526001600160a01b038481166004830152821690630a79309b906024016123db565b612458600080516020614310833981519152336112d1565b6124745760405162461bcd60e51b815260040161075390613ba4565b600081815260c9602052604090206002015460ff16156124d65760405162461bcd60e51b815260206004820152601a60248201527f436861696e20697320616c726561647920636f6e6e65637465640000000000006044820152606401610753565b604080516080810182526000808252602080830182815260018486018181526060860185815297855260c99093529490922092518355905192820192909255905160028201805460ff19169115159190911790559051600390910155565b61253f8160d16121a8565b61258b5760405162461bcd60e51b815260206004820181905260248201527f457874726120636f6e7472616374206973206e6f7420726567697374657265646044820152606401610753565b600082815260d1602052604090206125a39082612135565b506040516001600160a01b038216815282907f4d393b64277bfc0b02e0459a74c316c7f22069352a678319fd8139ba4085e0619060200161229e565b60008260000182815481106125f6576125f6613acf565b9060005260206000200154905092915050565b61261382826112d1565b6109315761262b816001600160a01b03166014612ba8565b612636836020612ba8565b6040516020016126479291906141cf565b60408051601f198184030181529082905262461bcd60e51b825261075391600401613797565b61267782826112d1565b6109315760008281526065602090815260408083206001600160a01b03851684529091529020805460ff191660011790556126af3390565b6001600160a01b0316816001600160a01b0316837f2f8788117e7eff1d82e926ec794901d17c78024a50270940304540a733656f0d60405160405180910390a45050565b6126fd82826112d1565b156109315760008281526065602090815260408083206001600160a01b0385168085529252808320805460ff1916905551339285917ff6391f5c32d9c69d2a47ea670b442974b53935d1edc7fd64eb21e047a839171b9190a45050565b60008181526001830160205260408120546127a1575081546001818101845560008481526020808220909301849055845484825282860190935260409020919091556106bc565b5060006106bc565b60006127b487612d43565b6127f95760405162461bcd60e51b815260206004820152601660248201527514da59db985d1d5c99481a5cc81b9bdd081d985b1a5960521b6044820152606401610753565b61280586868686612d79565b61281157506000612969565b60006128208860200151612e67565b9050612830886000015182612e8c565b61286d5760405162461bcd60e51b815260206004820152600e60248201526d5369676e206e6f7420696e20473160901b6044820152606401610753565b6128778585612e8c565b6128b45760405162461bcd60e51b815260206004820152600e60248201526d48617368206e6f7420696e20473160901b6044820152606401610753565b60006128be612ec2565b90506128c984612f82565b61290c5760405162461bcd60e51b8152602060048201526014602482015273283ab13634b19025b2bc903737ba1034b710239960611b6044820152606401610753565b6129648960000151838360000151602001518460000151600001518560200151602001518660200151600001518c8c8c60000151602001518d60000151600001518e60200151602001518f6020015160000151612f96565b925050505b9695505050505050565b6060600083518310612986578351612988565b825b90506000816001600160401b038111156129a4576129a46135be565b6040519080825280601f01601f1916602001820160405280156129ce576020820181803683370190505b50905060005b82811015612a34578581815181106129ee576129ee613acf565b602001015160f81c60f81b828281518110612a0b57612a0b613acf565b60200101906001600160f81b031916908160001a90535080612a2c81613ae5565b9150506129d4565b50949350505050565b612a48600033610f87565b80612a585750612a588133610f87565b6119535760405162461bcd60e51b815260206004820152602160248201527f53656e64657220636f6e7472616374206973206e6f74207265676973746572656044820152601960fa1b6064820152608401610753565b60008181526001830160205260408120548015612b97576000612ad2600183613abc565b8554909150600090612ae690600190613abc565b9050818114612b4b576000866000018281548110612b0657612b06613acf565b9060005260206000200154905080876000018481548110612b2957612b29613acf565b6000918252602080832090910192909255918252600188019052604090208390555b8554869080612b5c57612b5c614244565b6001900381819060005260206000200160009055905585600101600086815260200190815260200160002060009055600193505050506106bc565b60009150506106bc565b5092915050565b60606000612bb7836002614116565b612bc2906002613caa565b6001600160401b03811115612bd957612bd96135be565b6040519080825280601f01601f191660200182016040528015612c03576020820181803683370190505b509050600360fc1b81600081518110612c1e57612c1e613acf565b60200101906001600160f81b031916908160001a905350600f60fb1b81600181518110612c4d57612c4d613acf565b60200101906001600160f81b031916908160001a9053506000612c71846002614116565b612c7c906001613caa565b90505b6001811115612cf4576f181899199a1a9b1b9c1cb0b131b232b360811b85600f1660108110612cb057612cb0613acf565b1a60f81b828281518110612cc657612cc6613acf565b60200101906001600160f81b031916908160001a90535060049490941c93612ced8161425a565b9050612c7f565b508315610c4f5760405162461bcd60e51b815260206004820181905260248201527f537472696e67733a20686578206c656e67746820696e73756666696369656e746044820152606401610753565b60006000805160206142d083398151915282600001511080156106bc575050602001516000805160206142d08339815191521190565b60006064841115612d8c57506000612e5f565b6000612da66000805160206142d083398151915287614287565b90506000805160206142d0833981519152612dc18683613caa565b612dcb9190614287565b905060006000805160206142d083398151915260036000805160206142d0833981519152846000805160206142d083398151915286870909089050612e1f60026000805160206142d083398151915261429b565b841080612e3d5750806000805160206142d083398151915285860914155b80612e485750848214155b15612e5857600092505050612e5f565b6001925050505b949350505050565b60006000805160206142d0833981519152612e828382613abc565b6106bc9190614287565b60006000805160206142d083398151915280600381868188890909088180612eb657612eb6614271565b84850914949350505050565b612eca61343c565b50604080516080810182527f1800deef121f1e76426a00665e5c4479674322d4f75edadd46debd5cd992f6ed8183019081527f198e9393920d483a7260bfb731fb5d25f1aa493335a9e71297e485b7aef312c26060830152815281518083019092527f12c85ea5db8c6deb4aab71808dcb408fe3d1e7690c43d37b4ce6cc0166fa7daa82527f090689d0585ff075ec9e99ad690c3395bc4b313370b38ef355acdadcd122975b60208381019190915281019190915290565b60006106bc82600001518360200151613066565b600080612fa1613480565b8e8152602081018e9052604081018d9052606081018c9052608081018b905260a081018a905260c0810189905260e081018890526101008101879052610120810186905261014081018590526101608101849052612ffd61349f565b602081610180846008600019fa9250826130505760405162461bcd60e51b815260206004820152601460248201527314185a5c9a5b99c818da1958dac819985a5b195960621b6044820152606401610753565b5115159f9e505050505050505050505050505050565b6000613072838361313a565b1561307f575060016106bc565b600061308a8361316d565b9050600061311d6130fa604080518082018252600080825260209182015281518083019092527f2b149d40ceb8aaae81be18991be06ac3b5b4c5e559dbefa33267e6dc24a138e582527e9713b03af0fed4cd2cafadeed8fdf4a74fa084e52d1852e4a2bd0685c315d29082015290565b6131176131108861310a8a61316d565b90613223565b8590613336565b90613336565b805190915015801561313157506020810151155b95945050505050565b815160009015801561314e57506020830151155b801561315b575081516001145b8015610c4f5750506020015115919050565b60408051808201909152600080825260208201526000805160206142d083398151915260008160208501518551099050600082806131ad576131ad614271565b83806131bb576131bb614271565b84806131c9576131c9614271565b60208801516131d9600188613abc565b0987510884806131eb576131eb614271565b60208801518851080990506040518060400160405280828152602001848061321557613215614271565b848508905295945050505050565b604080518082019091526000808252602082015260006000805160206142d0833981519152905060006040518060400160405280838061326557613265614271565b86518851098152602001838061327d5761327d614271565b866020015188602001510990529050818061329a5761329a614271565b82806132a8576132a8614271565b60208301516132b8600186613abc565b09825108835281806132cc576132cc614271565b82806132da576132da614271565b60208301518351086132ec9084613abc565b83806132fa576132fa614271565b848061330857613308614271565b6020880151885108858061331e5761331e614271565b60208a01518a51080908602084015250909392505050565b6040805180820190915260008082526020820152815183516000805160206142d0833981519152911161338757808061337157613371614271565b835161337d9083613abc565b85510882526133bc565b80818061339657613396614271565b85516133a29084613abc565b8551086133af9083613abc565b6133b99190614287565b82525b82602001518460200151106133f85780806133d9576133d9614271565b60208401516133e89083613abc565b8560200151086020830152612ba1565b80818061340757613407614271565b60208601516134169084613abc565b8560200151086134269083613abc565b6134309190614287565b60208301525092915050565b6040805160808101825260009181018281526060820192909252908190815260200161347b604051806040016040528060008152602001600081525090565b905290565b604051806101800160405280600c906020820280368337509192915050565b60405180602001604052806001906020820280368337509192915050565b6000602082840312156134cf57600080fd5b81356001600160e01b031981168114610c4f57600080fd5b6000602082840312156134f957600080fd5b5035919050565b60008060006060848603121561351557600080fd5b505081359360208301359350604090920135919050565b6020808252825182820181905260009190848201906040850190845b8181101561356d5783516001600160a01b031683529284019291840191600101613548565b50909695505050505050565b6001600160a01b038116811461195357600080fd5b600080604083850312156135a157600080fd5b8235915060208301356135b381613579565b809150509250929050565b634e487b7160e01b600052604160045260246000fd5b60a081018181106001600160401b03821117156135f3576135f36135be565b60405250565b604081018181106001600160401b03821117156135f3576135f36135be565b601f8201601f191681016001600160401b038111828210171561363d5761363d6135be565b6040525050565b600082601f83011261365557600080fd5b81356001600160401b0381111561366e5761366e6135be565b604051613685601f8301601f191660200182613618565b81815284602083860101111561369a57600080fd5b816020850160208301376000918101602001919091529392505050565b6000602082840312156136c957600080fd5b81356001600160401b038111156136df57600080fd5b612e5f84828501613644565b6000602082840312156136fd57600080fd5b8135610c4f81613579565b600060a082840312156112b357600080fd5b60008060c0838503121561372d57600080fd5b8235915061373e8460208501613708565b90509250929050565b60005b8381101561376257818101518382015260200161374a565b50506000910152565b60008151808452613783816020860160208601613747565b601f01601f19169290920160200192915050565b602081526000610c4f602083018461376b565b60008083601f8401126137bc57600080fd5b5081356001600160401b038111156137d357600080fd5b6020830191508360208285010111156137eb57600080fd5b9250929050565b600080600080600080610100878903121561380c57600080fd5b86356001600160401b038082111561382357600080fd5b61382f8a838b016137aa565b909850965060208901359550604089013591508082111561384f57600080fd5b818901915089601f83011261386357600080fd5b81358181111561387257600080fd5b8a60208260051b850101111561388757600080fd5b6020830195508094505050506138a08860608901613708565b90509295509295509295565b600080602083850312156138bf57600080fd5b82356001600160401b038111156138d557600080fd5b6138e1858286016137aa565b90969095509350505050565b6000602082840312156138ff57600080fd5b81356001600160401b038082111561391657600080fd5b9083019060a0828603121561392a57600080fd5b604051613936816135d4565b8235815260208301356020820152604083013561395281613579565b6040820152606083013561396581613579565b606082015260808301358281111561397c57600080fd5b61398887828601613644565b60808301525095945050505050565b600080604083850312156139aa57600080fd5b50508035926020909101359150565b6000806000606084860312156139ce57600080fd5b8335925060208401356139e081613579565b915060408401356001600160401b038111156139fb57600080fd5b613a0786828701613644565b9150509250925092565b60008060408385031215613a2457600080fd5b82356001600160401b03811115613a3a57600080fd5b613a4685828601613644565b92505060208301356135b381613579565b60008060408385031215613a6a57600080fd5b8235613a7581613579565b915060208301356001600160401b03811115613a9057600080fd5b613a9c85828601613644565b9150509250929050565b634e487b7160e01b600052601160045260246000fd5b818103818111156106bc576106bc613aa6565b634e487b7160e01b600052603260045260246000fd5b600060018201613af757613af7613aa6565b5060010190565b60208082526026908201527f4e6f7420656e6f756768207065726d697373696f6e7320746f2073657420636f6040820152651b9cdd185b9d60d21b606082015260800190565b60008251613b56818460208701613747565b9190910192915050565b60208082526024908201527f44657374696e6174696f6e20636861696e206973206e6f7420696e697469616c6040820152631a5e995960e21b606082015260800190565b6020808252818101527f434841494e5f434f4e4e4543544f525f524f4c45206973207265717569726564604082015260600190565b60208082526029908201527f45585452415f434f4e54524143545f5245474953545241525f524f4c45206973604082015268081c995c5d5a5c995960ba1b606082015260800190565b60208082526024908201527f457874726120636f6e747261637420697320616c726561647920726567697374604082015263195c995960e21b606082015260800190565b600181811c90821680613c7a57607f821691505b6020821081036112b357634e487b7160e01b600052602260045260246000fd5b8183823760009101908152919050565b808201808211156106bc576106bc613aa6565b60008235605e19833603018112613b5657600080fd5b6020808252602e908201527f496e697469616c697a61626c653a20636f6e747261637420697320616c72656160408201526d191e481a5b9a5d1a585b1a5e995960921b606082015260800190565b81835281816020850137506000828201602090810191909152601f909101601f19169091010190565b604081526000808554613d5c81613c66565b8060408601526060600180841660008114613d7e5760018114613d9857613dc9565b60ff1985168884015283151560051b880183019550613dc9565b8a60005260208060002060005b86811015613dc05781548b8201870152908401908201613da5565b8a018501975050505b50505050508281036020840152612969818587613d21565b601f82111561083d57600081815260208120601f850160051c81016020861015613e085750805b601f850160051c820191505b81811015613e2757828155600101613e14565b505050505050565b6001600160401b03831115613e4657613e466135be565b613e5a83613e548354613c66565b83613de1565b6000601f841160018114613e8e5760008515613e765750838201355b600019600387901b1c1916600186901b178355613ee8565b600083815260209020601f19861690835b82811015613ebf5786850135825560209485019460019092019101613e9f565b5086821015613edc5760001960f88860031b161c19848701351681555b505060018560011b0183555b5050505050565b60208082526030908201527f44657374696e6174696f6e20636861696e20686173682063616e6e6f7420626560408201526f1032b8bab0b6103a379034ba39b2b63360811b606082015260800190565b600060408284031215613f5157600080fd5b604051613f5d816135f9565b80915082518152602083015160208201525092915050565b600060808284031215613f8757600080fd5b604051613f93816135f9565b613f9d8484613f3f565b8152613fac8460408501613f3f565b60208201529392505050565b6000808335601e19843603018112613fcf57600080fd5b8301803591506001600160401b03821115613fe957600080fd5b6020019150368190038213156137eb57600080fd5b60008451614010818460208901613747565b8201838582376000930192835250909392505050565b8481526001600160a01b03841660208201526060604082018190526000906129699083018486613d21565b600060033d111561406a5760046000803e5060005160e01c5b90565b600060443d101561407b5790565b6040516003193d81016004833e81513d6001600160401b0381602484011181841117156140aa57505050505090565b82850191508151818111156140c25750505050505090565b843d87010160208285010111156140dc5750505050505090565b6140eb60208286010187613618565b509095945050505050565b60008060233d1115614112576020600460003e50506000516001905b9091565b600081600019048311821515161561413057614130613aa6565b500290565b8581528460208201528360408201528260608201526000825161415f816080850160208701613747565b919091016080019695505050505050565b6001600160a01b0383168152604060208201819052600090612e5f9083018461376b565b6000602082840312156141a657600080fd5b5051919050565b6000602082840312156141bf57600080fd5b81518015158114610c4f57600080fd5b7f416363657373436f6e74726f6c3a206163636f756e7420000000000000000000815260008351614207816017850160208801613747565b7001034b99036b4b9b9b4b733903937b6329607d1b6017918401918201528351614238816028840160208801613747565b01602801949350505050565b634e487b7160e01b600052603160045260246000fd5b60008161426957614269613aa6565b506000190190565b634e487b7160e01b600052601260045260246000fd5b60008261429657614296614271565b500690565b6000826142aa576142aa614271565b50049056fe6155b5aac15ce9aa193c0527a6f43be0a36a7e2e7496c2b615c0e5f92284277330644e72e131a029b85045b68181585d97816a916871ca8d3c208c16d87cfd4796e3fc3be15159903e053027cff8a23f39a990e0194abcd8ac1cf1b355b8b93c2785f35fe7d8743aa971942d8474737bb31895d396eff2cc688a481e0221e1914b7d3908626050c0d998d657e4e6f31cb43ed736bf2b9a1a0192494537ca0e59a2646970667358221220cdf32b2578de008017a9b42a388309b5af6019f80150792369611ee43406997464736f6c63430008100033",
  "linkReferences": {},
  "deployedLinkReferences": {}
}