{
  "_format": "hh-sol-artifact-1",
  "contractName": "TokenManagerERC721",
  "sourceName": "contracts/schain/TokenManagers/TokenManagerERC721.sol",
  "abi": [
    {
      "anonymous": false,
      "inputs": [
        {
          "indexed": false,
          "internalType": "address",
          "name": "oldValue",
          "type": "address"
        },
        {
          "indexed": false,
          "internalType": "address",
          "name": "newValue",
          "type": "address"
        }
      ],
      "name": "DepositBoxWasChanged",
      "type": "event"
    },
    {
      "anonymous": false,
      "inputs": [
        {
          "indexed": true,
          "internalType": "bytes32",
          "name": "chainHash",
          "type": "bytes32"
        },
        {
          "indexed": true,
          "internalType": "address",
          "name": "erc721OnMainChain",
          "type": "address"
        },
        {
          "indexed": true,
          "internalType": "address",
          "name": "erc721OnSchain",
          "type": "address"
        }
      ],
      "name": "ERC721TokenAdded",
      "type": "event"
    },
    {
      "anonymous": false,
      "inputs": [
        {
          "indexed": true,
          "internalType": "bytes32",
          "name": "chainHash",
          "type": "bytes32"
        },
        {
          "indexed": true,
          "internalType": "address",
          "name": "erc721OnMainChain",
          "type": "address"
        },
        {
          "indexed": true,
          "internalType": "address",
          "name": "erc721OnSchain",
          "type": "address"
        }
      ],
      "name": "ERC721TokenCreated",
      "type": "event"
    },
    {
      "anonymous": false,
      "inputs": [
        {
          "indexed": true,
          "internalType": "bytes32",
          "name": "chainHash",
          "type": "bytes32"
        },
        {
          "indexed": true,
          "internalType": "address",
          "name": "contractOnMainnet",
          "type": "address"
        },
        {
          "indexed": false,
          "internalType": "uint256",
          "name": "tokenId",
          "type": "uint256"
        }
      ],
      "name": "ERC721TokenReady",
      "type": "event"
    },
    {
      "anonymous": false,
      "inputs": [
        {
          "indexed": true,
          "internalType": "bytes32",
          "name": "chainHash",
          "type": "bytes32"
        },
        {
          "indexed": true,
          "internalType": "address",
          "name": "erc721OnMainChain",
          "type": "address"
        },
        {
          "indexed": true,
          "internalType": "address",
          "name": "erc721OnSchain",
          "type": "address"
        },
        {
          "indexed": false,
          "internalType": "uint256",
          "name": "tokenId",
          "type": "uint256"
        }
      ],
      "name": "ERC721TokenReceived",
      "type": "event"
    },
    {
      "anonymous": false,
      "inputs": [
        {
          "indexed": false,
          "internalType": "uint8",
          "name": "version",
          "type": "uint8"
        }
      ],
      "name": "Initialized",
      "type": "event"
    },
    {
      "anonymous": false,
      "inputs": [
        {
          "indexed": true,
          "internalType": "bytes32",
          "name": "role",
          "type": "bytes32"
        },
        {
          "indexed": true,
          "internalType": "bytes32",
          "name": "previousAdminRole",
          "type": "bytes32"
        },
        {
          "indexed": true,
          "internalType": "bytes32",
          "name": "newAdminRole",
          "type": "bytes32"
        }
      ],
      "name": "RoleAdminChanged",
      "type": "event"
    },
    {
      "anonymous": false,
      "inputs": [
        {
          "indexed": true,
          "internalType": "bytes32",
          "name": "role",
          "type": "bytes32"
        },
        {
          "indexed": true,
          "internalType": "address",
          "name": "account",
          "type": "address"
        },
        {
          "indexed": true,
          "internalType": "address",
          "name": "sender",
          "type": "address"
        }
      ],
      "name": "RoleGranted",
      "type": "event"
    },
    {
      "anonymous": false,
      "inputs": [
        {
          "indexed": true,
          "internalType": "bytes32",
          "name": "role",
          "type": "bytes32"
        },
        {
          "indexed": true,
          "internalType": "address",
          "name": "account",
          "type": "address"
        },
        {
          "indexed": true,
          "internalType": "address",
          "name": "sender",
          "type": "address"
        }
      ],
      "name": "RoleRevoked",
      "type": "event"
    },
    {
      "inputs": [],
      "name": "AUTOMATIC_DEPLOY_ROLE",
      "outputs": [
        {
          "internalType": "bytes32",
          "name": "",
          "type": "bytes32"
        }
      ],
      "stateMutability": "view",
      "type": "function"
    },
    {
      "inputs": [],
      "name": "DEFAULT_ADMIN_ROLE",
      "outputs": [
        {
          "internalType": "bytes32",
          "name": "",
          "type": "bytes32"
        }
      ],
      "stateMutability": "view",
      "type": "function"
    },
    {
      "inputs": [],
      "name": "MAINNET_HASH",
      "outputs": [
        {
          "internalType": "bytes32",
          "name": "",
          "type": "bytes32"
        }
      ],
      "stateMutability": "view",
      "type": "function"
    },
    {
      "inputs": [],
      "name": "MAINNET_NAME",
      "outputs": [
        {
          "internalType": "string",
          "name": "",
          "type": "string"
        }
      ],
      "stateMutability": "view",
      "type": "function"
    },
    {
      "inputs": [],
      "name": "TOKEN_REGISTRAR_ROLE",
      "outputs": [
        {
          "internalType": "bytes32",
          "name": "",
          "type": "bytes32"
        }
      ],
      "stateMutability": "view",
      "type": "function"
    },
    {
      "inputs": [
        {
          "internalType": "string",
          "name": "originChainName",
          "type": "string"
        },
        {
          "internalType": "address",
          "name": "erc721OnOriginChain",
          "type": "address"
        },
        {
          "internalType": "address",
          "name": "newErc721OnSchain",
          "type": "address"
        }
      ],
      "name": "addERC721TokenByOwner",
      "outputs": [],
      "stateMutability": "nonpayable",
      "type": "function"
    },
    {
      "inputs": [
        {
          "internalType": "string",
          "name": "schainName",
          "type": "string"
        },
        {
          "internalType": "address",
          "name": "newTokenManager",
          "type": "address"
        }
      ],
      "name": "addTokenManager",
      "outputs": [],
      "stateMutability": "nonpayable",
      "type": "function"
    },
    {
      "inputs": [
        {
          "internalType": "contract ERC721OnChain",
          "name": "",
          "type": "address"
        }
      ],
      "name": "addedClones",
      "outputs": [
        {
          "internalType": "bool",
          "name": "",
          "type": "bool"
        }
      ],
      "stateMutability": "view",
      "type": "function"
    },
    {
      "inputs": [],
      "name": "automaticDeploy",
      "outputs": [
        {
          "internalType": "bool",
          "name": "",
          "type": "bool"
        }
      ],
      "stateMutability": "view",
      "type": "function"
    },
    {
      "inputs": [
        {
          "internalType": "address",
          "name": "newDepositBox",
          "type": "address"
        }
      ],
      "name": "changeDepositBoxAddress",
      "outputs": [],
      "stateMutability": "nonpayable",
      "type": "function"
    },
    {
      "inputs": [
        {
          "internalType": "bytes32",
          "name": "",
          "type": "bytes32"
        },
        {
          "internalType": "address",
          "name": "",
          "type": "address"
        }
      ],
      "name": "clonesErc721",
      "outputs": [
        {
          "internalType": "contract ERC721OnChain",
          "name": "",
          "type": "address"
        }
      ],
      "stateMutability": "view",
      "type": "function"
    },
    {
      "inputs": [],
      "name": "communityLocker",
      "outputs": [
        {
          "internalType": "contract ICommunityLocker",
          "name": "",
          "type": "address"
        }
      ],
      "stateMutability": "view",
      "type": "function"
    },
    {
      "inputs": [],
      "name": "depositBox",
      "outputs": [
        {
          "internalType": "address",
          "name": "",
          "type": "address"
        }
      ],
      "stateMutability": "view",
      "type": "function"
    },
    {
      "inputs": [
        {
          "internalType": "address",
          "name": "",
          "type": "address"
        }
      ],
      "name": "deprecatedClonesErc721",
      "outputs": [
        {
          "internalType": "contract ERC721OnChain",
          "name": "",
          "type": "address"
        }
      ],
      "stateMutability": "view",
      "type": "function"
    },
    {
      "inputs": [],
      "name": "disableAutomaticDeploy",
      "outputs": [],
      "stateMutability": "nonpayable",
      "type": "function"
    },
    {
      "inputs": [],
      "name": "enableAutomaticDeploy",
      "outputs": [],
      "stateMutability": "nonpayable",
      "type": "function"
    },
    {
      "inputs": [
        {
          "internalType": "address",
          "name": "contractOnMainnet",
          "type": "address"
        },
        {
          "internalType": "uint256",
          "name": "tokenId",
          "type": "uint256"
        }
      ],
      "name": "exitToMainERC721",
      "outputs": [],
      "stateMutability": "nonpayable",
      "type": "function"
    },
    {
      "inputs": [
        {
          "internalType": "bytes32",
          "name": "role",
          "type": "bytes32"
        }
      ],
      "name": "getRoleAdmin",
      "outputs": [
        {
          "internalType": "bytes32",
          "name": "",
          "type": "bytes32"
        }
      ],
      "stateMutability": "view",
      "type": "function"
    },
    {
      "inputs": [
        {
          "internalType": "bytes32",
          "name": "role",
          "type": "bytes32"
        },
        {
          "internalType": "uint256",
          "name": "index",
          "type": "uint256"
        }
      ],
      "name": "getRoleMember",
      "outputs": [
        {
          "internalType": "address",
          "name": "",
          "type": "address"
        }
      ],
      "stateMutability": "view",
      "type": "function"
    },
    {
      "inputs": [
        {
          "internalType": "bytes32",
          "name": "role",
          "type": "bytes32"
        }
      ],
      "name": "getRoleMemberCount",
      "outputs": [
        {
          "internalType": "uint256",
          "name": "",
          "type": "uint256"
        }
      ],
      "stateMutability": "view",
      "type": "function"
    },
    {
      "inputs": [
        {
          "internalType": "bytes32",
          "name": "role",
          "type": "bytes32"
        },
        {
          "internalType": "address",
          "name": "account",
          "type": "address"
        }
      ],
      "name": "grantRole",
      "outputs": [],
      "stateMutability": "nonpayable",
      "type": "function"
    },
    {
      "inputs": [
        {
          "internalType": "bytes32",
          "name": "role",
          "type": "bytes32"
        },
        {
          "internalType": "address",
          "name": "account",
          "type": "address"
        }
      ],
      "name": "hasRole",
      "outputs": [
        {
          "internalType": "bool",
          "name": "",
          "type": "bool"
        }
      ],
      "stateMutability": "view",
      "type": "function"
    },
    {
      "inputs": [
        {
          "internalType": "string",
          "name": "schainName",
          "type": "string"
        }
      ],
      "name": "hasTokenManager",
      "outputs": [
        {
          "internalType": "bool",
          "name": "",
          "type": "bool"
        }
      ],
      "stateMutability": "view",
      "type": "function"
    },
    {
      "inputs": [
        {
          "internalType": "string",
          "name": "newChainName",
          "type": "string"
        },
        {
          "internalType": "contract IMessageProxyForSchain",
          "name": "newMessageProxy",
          "type": "address"
        },
        {
          "internalType": "contract ITokenManagerLinker",
          "name": "newIMALinker",
          "type": "address"
        },
        {
          "internalType": "contract ICommunityLocker",
          "name": "newCommunityLocker",
          "type": "address"
        },
        {
          "internalType": "address",
          "name": "newDepositBox",
          "type": "address"
        }
      ],
      "name": "initialize",
      "outputs": [],
      "stateMutability": "nonpayable",
      "type": "function"
    },
    {
      "inputs": [
        {
          "internalType": "string",
          "name": "newSchainName",
          "type": "string"
        },
        {
          "internalType": "contract IMessageProxyForSchain",
          "name": "newMessageProxy",
          "type": "address"
        },
        {
          "internalType": "contract ITokenManagerLinker",
          "name": "newIMALinker",
          "type": "address"
        },
        {
          "internalType": "contract ICommunityLocker",
          "name": "newCommunityLocker",
          "type": "address"
        },
        {
          "internalType": "address",
          "name": "newDepositBox",
          "type": "address"
        }
      ],
      "name": "initializeTokenManager",
      "outputs": [],
      "stateMutability": "nonpayable",
      "type": "function"
    },
    {
      "inputs": [],
      "name": "messageProxy",
      "outputs": [
        {
          "internalType": "contract IMessageProxyForSchain",
          "name": "",
          "type": "address"
        }
      ],
      "stateMutability": "view",
      "type": "function"
    },
    {
      "inputs": [
        {
          "internalType": "bytes32",
          "name": "fromChainHash",
          "type": "bytes32"
        },
        {
          "internalType": "address",
          "name": "sender",
          "type": "address"
        },
        {
          "internalType": "bytes",
          "name": "data",
          "type": "bytes"
        }
      ],
      "name": "postMessage",
      "outputs": [],
      "stateMutability": "nonpayable",
      "type": "function"
    },
    {
      "inputs": [
        {
          "internalType": "string",
          "name": "schainName",
          "type": "string"
        }
      ],
      "name": "removeTokenManager",
      "outputs": [],
      "stateMutability": "nonpayable",
      "type": "function"
    },
    {
      "inputs": [
        {
          "internalType": "bytes32",
          "name": "role",
          "type": "bytes32"
        },
        {
          "internalType": "address",
          "name": "account",
          "type": "address"
        }
      ],
      "name": "renounceRole",
      "outputs": [],
      "stateMutability": "nonpayable",
      "type": "function"
    },
    {
      "inputs": [
        {
          "internalType": "bytes32",
          "name": "role",
          "type": "bytes32"
        },
        {
          "internalType": "address",
          "name": "account",
          "type": "address"
        }
      ],
      "name": "revokeRole",
      "outputs": [],
      "stateMutability": "nonpayable",
      "type": "function"
    },
    {
      "inputs": [],
      "name": "schainHash",
      "outputs": [
        {
          "internalType": "bytes32",
          "name": "",
          "type": "bytes32"
        }
      ],
      "stateMutability": "view",
      "type": "function"
    },
    {
      "inputs": [
        {
          "internalType": "bytes4",
          "name": "interfaceId",
          "type": "bytes4"
        }
      ],
      "name": "supportsInterface",
      "outputs": [
        {
          "internalType": "bool",
          "name": "",
          "type": "bool"
        }
      ],
      "stateMutability": "view",
      "type": "function"
    },
    {
      "inputs": [],
      "name": "tokenManagerLinker",
      "outputs": [
        {
          "internalType": "contract ITokenManagerLinker",
          "name": "",
          "type": "address"
        }
      ],
      "stateMutability": "view",
      "type": "function"
    },
    {
      "inputs": [
        {
          "internalType": "bytes32",
          "name": "",
          "type": "bytes32"
        }
      ],
      "name": "tokenManagers",
      "outputs": [
        {
          "internalType": "address",
          "name": "",
          "type": "address"
        }
      ],
      "stateMutability": "view",
      "type": "function"
    },
    {
      "inputs": [
        {
          "internalType": "string",
          "name": "targetSchainName",
          "type": "string"
        },
        {
          "internalType": "address",
          "name": "contractOnMainnet",
          "type": "address"
        },
        {
          "internalType": "uint256",
          "name": "tokenId",
          "type": "uint256"
        }
      ],
      "name": "transferToSchainERC721",
      "outputs": [],
      "stateMutability": "nonpayable",
      "type": "function"
    },
    {
      "inputs": [
        {
          "internalType": "address",
          "name": "",
          "type": "address"
        },
        {
          "internalType": "uint256",
          "name": "",
          "type": "uint256"
        }
      ],
      "name": "transferredAmount",
      "outputs": [
        {
          "internalType": "bytes32",
          "name": "",
          "type": "bytes32"
        }
      ],
      "stateMutability": "view",
      "type": "function"
    }
  ],
  "bytecode": "0x608060405234801561001057600080fd5b50616486806100206000396000f3fe60806040523480156200001157600080fd5b5060043610620002495760003560e01c80636d611286116200013d578063b9581c5011620000bb578063cb703bff1162000086578063cb703bff14620005a6578063cc5b715b14620005bd578063d547741f14620005e5578063dec2deb614620005fc578063edcc12b5146200061157600080fd5b8063b9581c501462000537578063c0e312dc1462000541578063ca15c8731462000558578063ca99be02146200056f57600080fd5b80639010d07c11620001085780639010d07c14620004ae57806391d1485414620004c5578063a217fddf14620004dc578063aebaaca914620004e5578063b4a0522b146200050b57600080fd5b80636d61128614620004585780636d6c68e6146200046c5780636e81ae281462000480578063884cee5a146200049757600080fd5b80632f2ff15d11620001cb5780633fa194ce11620001965780633fa194ce14620003c957806350f4428014620003e05780635573b8b61462000416578063680ae2fe146200042a5780636ce681d2146200044157600080fd5b80632f2ff15d146200037a57806336568abe146200039157806339927cf914620003a85780633b690b6b14620003bf57600080fd5b80630f1a8f7411620002185780630f1a8f7414620002da5780631e0594e3146200031f578063248a9ca3146200033657806328c5e182146200035c5780632dc151de146200036657600080fd5b806301ffc9a7146200024e578063029996b8146200027a5780630b6c672314620002865780630b885ac314620002c3575b600080fd5b620002656200025f36600462002ecc565b62000628565b60405190151581526020015b60405180910390f35b6200028462000656565b005b620002b46200029736600462002f0e565b60d260209081526000928352604080842090915290825290205481565b60405190815260200162000271565b62000284620002d436600462003037565b620006ae565b62000306620002eb366004620030cc565b60ce602052600090815260409020546001600160a01b031681565b6040516001600160a01b03909116815260200162000271565b620002846200033036600462003131565b620006c4565b620002b462000347366004620030cc565b60009081526065602052604090206001015490565b620002b462000955565b60ca5462000306906001600160a01b031681565b620002846200038b36600462003193565b620009a0565b62000284620003a236600462003193565b620009ce565b62000265620003b9366004620031c6565b62000a50565b620002b460cc5481565b620002b46000805160206200643183398151915281565b620004076040518060400160405280600781526020016613585a5b9b995d60ca1b81525081565b6040516200027191906200325f565b60c95462000306906001600160a01b031681565b620002846200043b36600462003274565b62000aad565b620002846200045236600462003037565b62000dc6565b60cd5462000306906001600160a01b031681565b60cb5462000306906001600160a01b031681565b620002846200049136600462002f0e565b6200103a565b62000284620004a8366004620032e3565b6200114e565b62000306620004bf36600462003344565b620012bb565b62000265620004d636600462003193565b620012dc565b620002b4600081565b62000265620004f636600462003367565b60d06020526000908152604090205460ff1681565b620003066200051c36600462003367565b60cf602052600090815260409020546001600160a01b031681565b6200028462001307565b6200028462000552366004620031c6565b62001350565b620002b462000569366004620030cc565b6200146e565b620003066200058036600462003193565b60d16020908152600092835260408084209091529082529020546001600160a01b031681565b62000284620005b736600462003387565b62001487565b620002b47ffda70c2cc66a36c14884ee85424961f51b1d92b4494751699b6d105b3bcbcba881565b62000284620005f636600462003193565b6200160e565b60cd546200026590600160a01b900460ff1681565b620002846200062236600462003367565b62001637565b60006001600160e01b03198216635a05180f60e01b1480620006505750620006508262001753565b92915050565b620006716000805160206200643183398151915233620012dc565b620006995760405162461bcd60e51b81526004016200069090620033e3565b60405180910390fd5b60cd805460ff60a01b1916600160a01b179055565b620006bd858585858562000dc6565b5050505050565b83838080601f0160208091040260200160405190810160405280939291908181526020018383808284376000920182905250604051339450909250620007109150849060200162003424565b60408051601f1981840301815282825280516020918201208383018352600784526613585a5b9b995d60ca1b8483015291519193506200075292910162003424565b604051602081830303815290604052805190602001208103620007d15760405162461bcd60e51b815260206004820152603060248201527f546869732066756e6374696f6e206973206e6f7420666f72207472616e73666560448201526f1c9c9a5b99c81d1bc813585a5b9b995d60821b606482015260840162000690565b6001600160a01b038216620008295760405162461bcd60e51b815260206004820152601a60248201527f496e636f72726563742072656365697665722061646472657373000000000000604482015260640162000690565b600081815260ce60205260409020546001600160a01b03166200088f5760405162461bcd60e51b815260206004820152601f60248201527f496e636f727265637420546f6b656e204d616e61676572206164647265737300604482015260640162000690565b60008787604051602001620008a692919062003442565b60408051808303601f1901815290829052805160209091012060cb54632c98abc960e11b8352600483018290523360248401529092506001600160a01b031690635931579290604401600060405180830381600087803b1580156200090a57600080fd5b505af11580156200091f573d6000803e3d6000fd5b505050600082815260ce60205260409020546200094b915082906001600160a01b03168833896200178a565b5050505050505050565b6040518060400160405280600781526020016613585a5b9b995d60ca1b81525060405160200162000987919062003424565b6040516020818303038152906040528051906020012081565b600082815260656020526040902060010154620009bd8162001bd6565b620009c9838362001be5565b505050565b6001600160a01b038116331462000a405760405162461bcd60e51b815260206004820152602f60248201527f416363657373436f6e74726f6c3a2063616e206f6e6c792072656e6f756e636560448201526e103937b632b9903337b91039b2b63360891b606482015260840162000690565b62000a4c828262001c0b565b5050565b6000806001600160a01b031660ce6000858560405160200162000a7592919062003442565b60408051808303601f19018152918152815160209283012083529082019290925201600020546001600160a01b031614159392505050565b62000ad97ffda70c2cc66a36c14884ee85424961f51b1d92b4494751699b6d105b3bcbcba833620012dc565b62000b275760405162461bcd60e51b815260206004820181905260248201527f544f4b454e5f5245474953545241525f524f4c45206973207265717569726564604482015260640162000690565b6000848460405160200162000b3e92919062003442565b60408051601f1981840301815290829052805160209091012060c954634ccd5cd560e11b83529092506001600160a01b03169063999ab9aa9062000b89908890889060040162003452565b602060405180830381865afa15801562000ba7573d6000803e3d6000fd5b505050506040513d601f19601f8201168201806040525081019062000bcd919062003481565b62000c145760405162461bcd60e51b815260206004820152601660248201527510da185a5b881a5cc81b9bdd0818dbdb9b9958dd195960521b604482015260640162000690565b6001600160a01b0382163b62000c6d5760405162461bcd60e51b815260206004820152601f60248201527f476976656e2061646472657373206973206e6f74206120636f6e747261637400604482015260640162000690565b600081815260d1602090815260408083206001600160a01b038781168552925290912054161562000cda5760405162461bcd60e51b8152602060048201526016602482015275436f756c64206e6f742072656c696e6b20636c6f6e6560501b604482015260640162000690565b6001600160a01b038216600090815260d0602052604090205460ff161562000d455760405162461bcd60e51b815260206004820152601760248201527f436c6f6e652077617320616c7265616479206164646564000000000000000000604482015260640162000690565b600081815260d1602090815260408083206001600160a01b0387811680865291845282852080546001600160a01b031916918816918217905580855260d0909352818420805460ff1916600117905590519192909184917f11bec40858c3e219ac2d82dd307a6989e3ea72d1c463dfce7376c149d5ccf30c91a45050505050565b600054610100900460ff161580801562000de75750600054600160ff909116105b8062000e035750303b15801562000e03575060005460ff166001145b62000e685760405162461bcd60e51b815260206004820152602e60248201527f496e697469616c697a61626c653a20636f6e747261637420697320616c72656160448201526d191e481a5b9a5d1a585b1a5e995960921b606482015260840162000690565b6000805460ff19166001179055801562000e8c576000805461ff0019166101001790555b6001600160a01b03821662000ee45760405162461bcd60e51b815260206004820181905260248201527f4465706f736974426f7820616464726573732068617320746f20626520736574604482015260640162000690565b62000eee62001c31565b62000efb60003362001ca0565b62000f16600080516020620064318339815191523362001ca0565b62000f427ffda70c2cc66a36c14884ee85424961f51b1d92b4494751699b6d105b3bcbcba83362001ca0565b8560405160200162000f55919062003424565b60408051601f19818403018152828252805160209182012060cc5560c980546001600160a01b038a81166001600160a01b03199283161790925560ca80548a841690831617905560cb805489841690831617905560cd8054928816929091168217905560008452908301527fc968af77923193016f61d74ba6827296db5e1f37ec4fab3ad1ef20e193395e59910160405180910390a1801562001032576000805461ff0019169055604051600181527f7f26b83ff96e1f2b6a682f133852f6798a09c465da95921460cefb38474024989060200160405180910390a15b505050505050565b60cb54604080518082018252600781526613585a5b9b995d60ca1b60208083019190915291516001600160a01b03909316926359315792926200107f92910162003424565b60408051601f198184030181529082905280516020909101206001600160e01b031960e084901b1682526004820152336024820152604401600060405180830381600087803b158015620010d257600080fd5b505af1158015620010e7573d6000803e3d6000fd5b5050505062000a4c6040518060400160405280600781526020016613585a5b9b995d60ca1b81525060405160200162001121919062003424565b60408051601f19818403018152919052805160209091012060cd546001600160a01b03168433856200178a565b60c9546001600160a01b03163314620011aa5760405162461bcd60e51b815260206004820152601c60248201527f53656e646572206973206e6f742061204d65737361676550726f787900000000604482015260640162000690565b838360cc548214158015620011c65750620011c6828262001cac565b620012145760405162461bcd60e51b815260206004820152601b60248201527f526563656976657220636861696e20697320696e636f72726563740000000000604482015260640162000690565b600062001222858562001d37565b90506000600682600e8111156200123d576200123d620034a5565b14806200125e5750600582600e8111156200125c576200125c620034a5565b145b1562001279576200127188878762001d8e565b90506200094b565b60405162461bcd60e51b815260206004820152601660248201527526b2b9b9b0b3b2aa3cb8329034b9903ab735b737bbb760511b604482015260640162000690565b6000828152609760205260408120620012d5908362002313565b9392505050565b60009182526065602090815260408084206001600160a01b0393909316845291905290205460ff1690565b620013226000805160206200643183398151915233620012dc565b620013415760405162461bcd60e51b81526004016200069090620033e3565b60cd805460ff60a01b19169055565b60ca546001600160a01b031633148062001372575062001372600033620012dc565b620013b85760405162461bcd60e51b81526020600482015260156024820152742737ba1030baba3437b934bd32b21031b0b63632b960591b604482015260640162000690565b60008282604051602001620013cf92919062003442565b60408051601f198184030181529181528151602092830120600081815260ce9093529120549091506001600160a01b03166200144e5760405162461bcd60e51b815260206004820152601860248201527f546f6b656e204d616e61676572206973206e6f74207365740000000000000000604482015260640162000690565b600090815260ce6020526040902080546001600160a01b03191690555050565b6000818152609760205260408120620006509062002321565b60ca546001600160a01b0316331480620014a95750620014a9600033620012dc565b620014ef5760405162461bcd60e51b81526020600482015260156024820152742737ba1030baba3437b934bd32b21031b0b63632b960591b604482015260640162000690565b600083836040516020016200150692919062003442565b60408051601f198184030181529181528151602092830120600081815260ce9093529120549091506001600160a01b031615620015865760405162461bcd60e51b815260206004820152601c60248201527f546f6b656e204d616e6167657220697320616c72656164792073657400000000604482015260640162000690565b6001600160a01b038216620015de5760405162461bcd60e51b815260206004820152601f60248201527f496e636f727265637420546f6b656e204d616e61676572206164647265737300604482015260640162000690565b600090815260ce6020526040902080546001600160a01b0319166001600160a01b03929092169190911790555050565b6000828152606560205260409020600101546200162b8162001bd6565b620009c9838362001c0b565b62001644600033620012dc565b620016925760405162461bcd60e51b815260206004820152601e60248201527f44454641554c545f41444d494e5f524f4c452069732072657175697265640000604482015260640162000690565b6001600160a01b038116620016ea5760405162461bcd60e51b815260206004820181905260248201527f4465706f736974426f7820616464726573732068617320746f20626520736574604482015260640162000690565b60cd54604080516001600160a01b03928316815291831660208301527fc968af77923193016f61d74ba6827296db5e1f37ec4fab3ad1ef20e193395e59910160405180910390a160cd80546001600160a01b0319166001600160a01b0392909216919091179055565b60006001600160e01b03198216637965db0b60e01b14806200065057506301ffc9a760e01b6001600160e01b031983161462000650565b600085815260d1602090815260408083206001600160a01b038088168552925282205416806200182757506001600160a01b038416600090815260d06020526040902054849060ff1615620018225760405162461bcd60e51b815260206004820152601a60248201527f496e636f7272656374206d61696e20636861696e20746f6b656e000000000000604482015260640162000690565b600191505b6001600160a01b0381163b620018805760405162461bcd60e51b815260206004820152601860248201527f4e6f20746f6b656e20636c6f6e65206f6e2073636861696e0000000000000000604482015260640162000690565b60405163020604bf60e21b81526004810184905230906001600160a01b0383169063081812fc90602401602060405180830381865afa158015620018c8573d6000803e3d6000fd5b505050506040513d601f19601f82011682018060405250810190620018ee9190620034bb565b6001600160a01b031614620019465760405162461bcd60e51b815260206004820152601860248201527f4e6f7420616c6c6f7765642045524337323120546f6b656e0000000000000000604482015260640162000690565b6000620019558686866200232c565b9050821562001a9d576040518060400160405280600781526020016613585a5b9b995d60ca1b81525060405160200162001990919062003424565b60405160208183030381529060405280519060200120880362001a125760405162461bcd60e51b815260206004820152603360248201527f4d61696e20636861696e20746f6b656e20636f756c64206e6f74206265207472604482015272185b9cd9995c9959081d1bc813585a5b9b995d606a1b606482015260840162000690565b62001a20888333876200238d565b905062001a2f8883866200243d565b6040516323b872dd60e01b8152336004820152306024820152604481018590526001600160a01b038316906323b872dd90606401600060405180830381600087803b15801562001a7e57600080fd5b505af115801562001a93573d6000803e3d6000fd5b5050505062001b62565b6040516323b872dd60e01b8152336004820152306024820152604481018590526001600160a01b038316906323b872dd90606401600060405180830381600087803b15801562001aec57600080fd5b505af115801562001b01573d6000803e3d6000fd5b5050604051630852cd8d60e31b8152600481018790526001600160a01b03851692506342966c689150602401600060405180830381600087803b15801562001b4857600080fd5b505af115801562001b5d573d6000803e3d6000fd5b505050505b60c954604051634a24490160e11b81526001600160a01b039091169063944892029062001b98908b908b908690600401620034db565b600060405180830381600087803b15801562001bb357600080fd5b505af115801562001bc8573d6000803e3d6000fd5b505050505050505050505050565b62001be28133620024e5565b50565b62001bf1828262002554565b6000828152609760205260409020620009c99082620025de565b62001c178282620025f5565b6000828152609760205260409020620009c990826200265f565b600054610100900460ff1662001c9e5760405162461bcd60e51b815260206004820152602b60248201527f496e697469616c697a61626c653a20636f6e7472616374206973206e6f74206960448201526a6e697469616c697a696e6760a81b606482015260840162000690565b565b62000a4c828262001be5565b60006040518060400160405280600781526020016613585a5b9b995d60ca1b81525060405160200162001ce0919062003424565b60405160208183030381529060405280519060200120831462001d2057600083815260ce60205260409020546001600160a01b03838116911614620012d5565b5060cd546001600160a01b03908116911614919050565b60008062001d4883850185620030cc565b905062001d5760208262003510565b60000362001d805762001d7762001d718483818862003533565b62001d37565b91505062000650565b62001d778385018562003574565b60008062001d9d848462001d37565b90506000808080600585600e81111562001dbb5762001dbb620034a5565b0362001e1557600062001dcf898962002676565b60408082015160208084015160609094015160008f815260d183528481206001600160a01b0380881683529352939093205491985092965090945016915062001fcd9050565b600062001e2389896200272b565b905080600001516040015194508060000151602001519350806000015160600151925060d160008b81526020019081526020016000206000856001600160a01b03166001600160a01b0316815260200190815260200160002060009054906101000a90046001600160a01b0316915060006001600160a01b0316826001600160a01b03160362001fcb5760cd54600160a01b900460ff1662001f085760405162461bcd60e51b815260206004820152601c60248201527f4175746f6d61746963206465706c6f792069732064697361626c656400000000604482015260640162000690565b602080820151805191015160405162001f219062002e67565b62001f2e92919062003592565b604051809103906000f08015801562001f4b573d6000803e3d6000fd5b5060008b815260d1602090815260408083206001600160a01b0389811680865291845282852080546001600160a01b031916918716918217905580855260d0909352818420805460ff191660011790559051939550909290918d917f3db9e29b45c5fe72aaa0bdc4514d68a645660185a44637e9bc6f0b805ea770459190a45b505b600585600e81111562001fe45762001fe4620034a5565b1480156200203957506040518060400160405280600781526020016613585a5b9b995d60ca1b8152506040516020016200201f919062003424565b604051602081830303815290604052805190602001208914155b80156200205b5750600089815260d3602052604090206200205b9084620027d0565b15620021f1576001600160a01b0383163b620020ba5760405162461bcd60e51b815260206004820152601a60248201527f496e636f7272656374206d61696e20636861696e20746f6b656e000000000000604482015260640162000690565b6040516331a9108f60e11b81526004810183905230906001600160a01b03851690636352211e90602401602060405180830381865afa15801562002102573d6000803e3d6000fd5b505050506040513d601f19601f82011682018060405250810190620021289190620034bb565b6001600160a01b031614620021745760405162461bcd60e51b8152602060048201526011602482015270125b98dbdc9c9958dd081d1bdad95b9259607a1b604482015260640162000690565b62002181898484620027f3565b6040516323b872dd60e01b81523060048201526001600160a01b038581166024830152604482018490528416906323b872dd90606401600060405180830381600087803b158015620021d257600080fd5b505af1158015620021e7573d6000803e3d6000fd5b5050505062002256565b6040516340c10f1960e01b81526001600160a01b038581166004830152602482018490528216906340c10f1990604401600060405180830381600087803b1580156200223c57600080fd5b505af115801562002251573d6000803e3d6000fd5b505050505b806001600160a01b0316836001600160a01b03168a7f2735a548eee1cda16c2df4c1a546c0376f3b3bb2ceca4966ef9d251fcbdd3c45856040516200229d91815260200190565b60405180910390a460c95460405163e051116b60e01b81526001600160a01b0386811660048301529091169063e051116b90602401600060405180830381600087803b158015620022ed57600080fd5b505af115801562002302573d6000803e3d6000fd5b50959b9a5050505050505050505050565b6000620012d58383620028a1565b600062000650825490565b6040805160a08101825260056080820190815281526001600160a01b03808616602080840191909152908516828401526060808301859052925162002374918391016200360f565b6040516020818303038152906040529150509392505050565b600084815260d36020526040812060609190620023ab9086620027d0565b905080620023df57620023bf8686620028ce565b620023d7858585620023d189620029e7565b62002ae5565b9150620023ef565b620023ec8585856200232c565b91505b846001600160a01b0316867fd0fe87fb12c7aa2b7f679256044123cb20de43059fb2ddbb4cc6556f217f29dc856040516200242c91815260200190565b60405180910390a350949350505050565b6001600160a01b038216600090815260d26020908152604080832084845290915290205415620024bf5760405162461bcd60e51b815260206004820152602660248201527f546f6b656e2077617320616c7265616479207472616e7366657272656420746f6044820152651031b430b4b760d11b606482015260840162000690565b6001600160a01b03909116600090815260d2602090815260408083209383529290522055565b620024f18282620012dc565b62000a4c576200250c816001600160a01b0316601462002b58565b6200251983602062002b58565b6040516020016200252c9291906200361f565b60408051601f198184030181529082905262461bcd60e51b825262000690916004016200325f565b620025608282620012dc565b62000a4c5760008281526065602090815260408083206001600160a01b03851684529091529020805460ff191660011790556200259a3390565b6001600160a01b0316816001600160a01b0316837f2f8788117e7eff1d82e926ec794901d17c78024a50270940304540a733656f0d60405160405180910390a45050565b6000620012d5836001600160a01b03841662002d11565b620026018282620012dc565b1562000a4c5760008281526065602090815260408083206001600160a01b0385168085529252808320805460ff1916905551339285917ff6391f5c32d9c69d2a47ea670b442974b53935d1edc7fd64eb21e047a839171b9190a45050565b6000620012d5836001600160a01b03841662002d63565b6040805160a08101825260006080820181815282526020820181905291810182905260608101919091526005620026ae848462001d37565b600e811115620026c257620026c2620034a5565b146200271d5760405162461bcd60e51b815260206004820152602360248201527f4d6573736167652074797065206973206e6f7420455243373231207472616e736044820152623332b960e91b606482015260840162000690565b620012d5828401846200375b565b6200273562002e75565b600662002743848462001d37565b600e811115620027575762002757620034a5565b14620027c25760405162461bcd60e51b815260206004820152603360248201527f4d6573736167652074797065206973206e6f7420455243373231207472616e73604482015272666572207769746820746f6b656e20696e666f60681b606482015260840162000690565b620012d5828401846200377a565b6001600160a01b03811660009081526001830160205260408120541515620012d5565b6001600160a01b038216600090815260d2602090815260408083208484529091529020548314620028785760405162461bcd60e51b815260206004820152602860248201527f546f6b656e2077617320616c7265616479207472616e7366657272656420667260448201526737b69031b430b4b760c11b606482015260840162000690565b6001600160a01b03909116600090815260d2602090815260408083209383529290529081205550565b6000826000018281548110620028bb57620028bb62003860565b9060005260206000200154905092915050565b6001600160a01b0381163b620029275760405162461bcd60e51b815260206004820152601f60248201527f476976656e2061646472657373206973206e6f74206120636f6e747261637400604482015260640162000690565b600082815260d360205260409020620029419082620027d0565b15620029905760405162461bcd60e51b815260206004820152601e60248201527f45524337323120546f6b656e2077617320616c72656164792061646465640000604482015260640162000690565b600082815260d360205260409020620029aa9082620025de565b506040516000906001600160a01b0383169084907f11bec40858c3e219ac2d82dd307a6989e3ea72d1c463dfce7376c149d5ccf30c908490a45050565b60408051808201909152606080825260208201526040518060400160405280836001600160a01b03166306fdde036040518163ffffffff1660e01b8152600401600060405180830381865afa15801562002a45573d6000803e3d6000fd5b505050506040513d6000823e601f3d908101601f1916820160405262002a6f919081019062003876565b8152602001836001600160a01b03166395d89b416040518163ffffffff1660e01b8152600401600060405180830381865afa15801562002ab3573d6000803e3d6000fd5b505050506040513d6000823e601f3d908101601f1916820160405262002add919081019062003876565b905292915050565b6040805160e081018252600660c082019081528183019081526001600160a01b03808816606080850191909152908716608084015260a0830186905290825260208083018590529251909262002b3e91839101620038ec565b604051602081830303815290604052915050949350505050565b6060600062002b698360026200395d565b62002b769060026200397f565b6001600160401b0381111562002b905762002b9062002f3d565b6040519080825280601f01601f19166020018201604052801562002bbb576020820181803683370190505b509050600360fc1b8160008151811062002bd95762002bd962003860565b60200101906001600160f81b031916908160001a905350600f60fb1b8160018151811062002c0b5762002c0b62003860565b60200101906001600160f81b031916908160001a905350600062002c318460026200395d565b62002c3e9060016200397f565b90505b600181111562002cc0576f181899199a1a9b1b9c1cb0b131b232b360811b85600f166010811062002c765762002c7662003860565b1a60f81b82828151811062002c8f5762002c8f62003860565b60200101906001600160f81b031916908160001a90535060049490941c9362002cb88162003995565b905062002c41565b508315620012d55760405162461bcd60e51b815260206004820181905260248201527f537472696e67733a20686578206c656e67746820696e73756666696369656e74604482015260640162000690565b600081815260018301602052604081205462002d5a5750815460018181018455600084815260208082209093018490558454848252828601909352604090209190915562000650565b50600062000650565b6000818152600183016020526040812054801562002e5c57600062002d8a600183620039af565b855490915060009062002da090600190620039af565b905081811462002e0c57600086600001828154811062002dc45762002dc462003860565b906000526020600020015490508087600001848154811062002dea5762002dea62003860565b6000918252602080832090910192909255918252600188019052604090208390555b855486908062002e205762002e20620039c5565b60019003818190600052602060002001600090559055856001016000868152602001908152602001600020600090556001935050505062000650565b600091505062000650565b612a5580620039dc83390190565b6040805160e081018252600060c08201818152928201928352606082018190526080820181905260a0820152908190815260200162002ec7604051806040016040528060608152602001606081525090565b905290565b60006020828403121562002edf57600080fd5b81356001600160e01b031981168114620012d557600080fd5b6001600160a01b038116811462001be257600080fd5b6000806040838503121562002f2257600080fd5b823562002f2f8162002ef8565b946020939093013593505050565b634e487b7160e01b600052604160045260246000fd5b604080519081016001600160401b038111828210171562002f785762002f7862002f3d565b60405290565b604051601f8201601f191681016001600160401b038111828210171562002fa95762002fa962002f3d565b604052919050565b60006001600160401b0382111562002fcd5762002fcd62002f3d565b50601f01601f191660200190565b600082601f83011262002fed57600080fd5b81356200300462002ffe8262002fb1565b62002f7e565b8181528460208386010111156200301a57600080fd5b816020850160208301376000918101602001919091529392505050565b600080600080600060a086880312156200305057600080fd5b85356001600160401b038111156200306757600080fd5b620030758882890162002fdb565b9550506020860135620030888162002ef8565b935060408601356200309a8162002ef8565b92506060860135620030ac8162002ef8565b91506080860135620030be8162002ef8565b809150509295509295909350565b600060208284031215620030df57600080fd5b5035919050565b60008083601f840112620030f957600080fd5b5081356001600160401b038111156200311157600080fd5b6020830191508360208285010111156200312a57600080fd5b9250929050565b600080600080606085870312156200314857600080fd5b84356001600160401b038111156200315f57600080fd5b6200316d87828801620030e6565b9095509350506020850135620031838162002ef8565b9396929550929360400135925050565b60008060408385031215620031a757600080fd5b823591506020830135620031bb8162002ef8565b809150509250929050565b60008060208385031215620031da57600080fd5b82356001600160401b03811115620031f157600080fd5b620031ff85828601620030e6565b90969095509350505050565b60005b83811015620032285781810151838201526020016200320e565b50506000910152565b600081518084526200324b8160208601602086016200320b565b601f01601f19169290920160200192915050565b602081526000620012d5602083018462003231565b600080600080606085870312156200328b57600080fd5b84356001600160401b03811115620032a257600080fd5b620032b087828801620030e6565b9095509350506020850135620032c68162002ef8565b91506040850135620032d88162002ef8565b939692955090935050565b60008060008060608587031215620032fa57600080fd5b8435935060208501356200330e8162002ef8565b925060408501356001600160401b038111156200332a57600080fd5b6200333887828801620030e6565b95989497509550505050565b600080604083850312156200335857600080fd5b50508035926020909101359150565b6000602082840312156200337a57600080fd5b8135620012d58162002ef8565b6000806000604084860312156200339d57600080fd5b83356001600160401b03811115620033b457600080fd5b620033c286828701620030e6565b9094509250506020840135620033d88162002ef8565b809150509250925092565b60208082526021908201527f4155544f4d415449435f4445504c4f595f524f4c4520697320726571756972656040820152601960fa1b606082015260800190565b60008251620034388184602087016200320b565b9190910192915050565b8183823760009101908152919050565b60208152816020820152818360408301376000818301604090810191909152601f909201601f19160101919050565b6000602082840312156200349457600080fd5b81518015158114620012d557600080fd5b634e487b7160e01b600052602160045260246000fd5b600060208284031215620034ce57600080fd5b8151620012d58162002ef8565b8381526001600160a01b0383166020820152606060408201819052600090620035079083018462003231565b95945050505050565b6000826200352e57634e487b7160e01b600052601260045260246000fd5b500690565b600080858511156200354457600080fd5b838611156200355257600080fd5b5050820193919092039150565b8035600f81106200356f57600080fd5b919050565b6000602082840312156200358757600080fd5b620012d5826200355f565b604081526000620035a7604083018562003231565b828103602084015262003507818562003231565b805151600f8110620035dd57634e487b7160e01b600052602160045260246000fd5b82526020818101516001600160a01b039081169184019190915260408083015190911690830152606090810151910152565b60808101620006508284620035bb565b7f416363657373436f6e74726f6c3a206163636f756e7420000000000000000000815260008351620036598160178501602088016200320b565b7001034b99036b4b9b9b4b733903937b6329607d1b60179184019182015283516200368c8160288401602088016200320b565b01602801949350505050565b60008183036080811215620036ac57600080fd5b604051608081016001600160401b038282108183111715620036d257620036d262002f3d565b816040528294506020841215620036e857600080fd5b60a083019350818410818511171562003705576200370562002f3d565b508260405262003715856200355f565b81528152602084013591506200372b8262002ef8565b81602082015260408401359150620037438262002ef8565b81604082015260608401356060820152505092915050565b6000608082840312156200376e57600080fd5b620012d5838362003698565b6000602082840312156200378d57600080fd5b81356001600160401b0380821115620037a557600080fd5b9083019060a08286031215620037ba57600080fd5b620037c462002f53565b620037d0868462003698565b8152608083013582811115620037e557600080fd5b929092019160408387031215620037fb57600080fd5b6200380562002f53565b8335838111156200381557600080fd5b620038238882870162002fdb565b8252506020840135838111156200383957600080fd5b620038478882870162002fdb565b6020830152508060208301525080935050505092915050565b634e487b7160e01b600052603260045260246000fd5b6000602082840312156200388957600080fd5b81516001600160401b03811115620038a057600080fd5b8201601f81018413620038b257600080fd5b8051620038c362002ffe8262002fb1565b818152856020838501011115620038d957600080fd5b620035078260208301602086016200320b565b6020815262003900602082018351620035bb565b6000602083015160a0808401528051604060c08501526200392661010085018262003231565b90506020820151915060bf198482030160e085015262003507818362003231565b634e487b7160e01b600052601160045260246000fd5b60008160001904831182151516156200397a576200397a62003947565b500290565b8082018082111562000650576200065062003947565b600081620039a757620039a762003947565b506000190190565b8181038181111562000650576200065062003947565b634e487b7160e01b600052603160045260246000fdfe60806040523480156200001157600080fd5b5060405162002a5538038062002a558339810160408190526200003491620005a0565b600054610100900460ff1615808015620000555750600054600160ff909116105b806200008557506200007230620001d960201b62000a3c1760201c565b15801562000085575060005460ff166001145b620000ee5760405162461bcd60e51b815260206004820152602e60248201527f496e697469616c697a61626c653a20636f6e747261637420697320616c72656160448201526d191e481a5b9a5d1a585b1a5e995960921b60648201526084015b60405180910390fd5b6000805460ff19166001179055801562000112576000805461ff0019166101001790555b62000127620001e860201b62000a4b1760201c565b6200013e83836200024660201b62000a741760201c565b62000153620001e860201b62000a4b1760201c565b6200016e60008051602062002a3583398151915280620002b2565b6200018960008051602062002a3583398151915233620002fd565b8015620001d0576000805461ff0019169055604051600181527f7f26b83ff96e1f2b6a682f133852f6798a09c465da95921460cefb38474024989060200160405180910390a15b50505062000764565b6001600160a01b03163b151590565b600054610100900460ff16620002445760405162461bcd60e51b815260206004820152602b602482015260008051602062002a1583398151915260448201526a6e697469616c697a696e6760a81b6064820152608401620000e5565b565b600054610100900460ff16620002a25760405162461bcd60e51b815260206004820152602b602482015260008051602062002a1583398151915260448201526a6e697469616c697a696e6760a81b6064820152608401620000e5565b620002ae828262000309565b5050565b600082815260656020526040808220600101805490849055905190918391839186917fbd79b86ffe0ab8e8776151514217cd7cacd52c909f66475c3af44e129f0b00ff9190a4505050565b620002ae828262000387565b600054610100900460ff16620003655760405162461bcd60e51b815260206004820152602b602482015260008051602062002a1583398151915260448201526a6e697469616c697a696e6760a81b6064820152608401620000e5565b60c962000373838262000698565b5060ca62000382828262000698565b505050565b6200039e8282620003c560201b62000aa51760201c565b60008281526097602090815260409091206200038291839062000b2b62000469821b17901c565b60008281526065602090815260408083206001600160a01b038516845290915290205460ff16620002ae5760008281526065602090815260408083206001600160a01b03851684529091529020805460ff19166001179055620004253390565b6001600160a01b0316816001600160a01b0316837f2f8788117e7eff1d82e926ec794901d17c78024a50270940304540a733656f0d60405160405180910390a45050565b600062000480836001600160a01b03841662000489565b90505b92915050565b6000818152600183016020526040812054620004d25750815460018181018455600084815260208082209093018490558454848252828601909352604090209190915562000483565b50600062000483565b634e487b7160e01b600052604160045260246000fd5b600082601f8301126200050357600080fd5b81516001600160401b0380821115620005205762000520620004db565b604051601f8301601f19908116603f011681019082821181831017156200054b576200054b620004db565b816040528381526020925086838588010111156200056857600080fd5b600091505b838210156200058c57858201830151818301840152908201906200056d565b600093810190920192909252949350505050565b60008060408385031215620005b457600080fd5b82516001600160401b0380821115620005cc57600080fd5b620005da86838701620004f1565b93506020850151915080821115620005f157600080fd5b506200060085828601620004f1565b9150509250929050565b600181811c908216806200061f57607f821691505b6020821081036200064057634e487b7160e01b600052602260045260246000fd5b50919050565b601f8211156200038257600081815260208120601f850160051c810160208610156200066f5750805b601f850160051c820191505b8181101562000690578281556001016200067b565b505050505050565b81516001600160401b03811115620006b457620006b4620004db565b620006cc81620006c584546200060a565b8462000646565b602080601f831160018114620007045760008415620006eb5750858301515b600019600386901b1c1916600185901b17855562000690565b600085815260208120601f198616915b82811015620007355788860151825594840194600190910190840162000714565b5085821015620007545787850151600019600388901b60f8161c191681555b5050505050600190811b01905550565b6122a180620007746000396000f3fe608060405234801561001057600080fd5b50600436106101735760003560e01c80636352211e116100de578063a22cb46511610097578063ca15c87311610071578063ca15c87314610340578063d539139314610353578063d547741f1461037a578063e985e9c51461038d57600080fd5b8063a22cb46514610307578063b88d4fde1461031a578063c87b56dd1461032d57600080fd5b80636352211e146102ab57806370a08231146102be5780639010d07c146102d157806391d14854146102e457806395d89b41146102f7578063a217fddf146102ff57600080fd5b8063248a9ca311610130578063248a9ca31461021b5780632f2ff15d1461024c57806336568abe1461025f57806340c10f191461027257806342842e0e1461028557806342966c681461029857600080fd5b806301ffc9a71461017857806306fdde03146101a0578063081812fc146101b5578063095ea7b3146101e0578063162094c4146101f557806323b872dd14610208575b600080fd5b61018b610186366004611aed565b6103c9565b60405190151581526020015b60405180910390f35b6101a86103da565b6040516101979190611b5a565b6101c86101c3366004611b6d565b61046c565b6040516001600160a01b039091168152602001610197565b6101f36101ee366004611ba2565b610493565b005b61018b610203366004611bcc565b6105ad565b6101f3610216366004611c48565b6106d9565b61023e610229366004611b6d565b60009081526065602052604090206001015490565b604051908152602001610197565b6101f361025a366004611c84565b61070b565b6101f361026d366004611c84565b610730565b6101f3610280366004611ba2565b6107ae565b6101f3610293366004611c48565b610827565b6101f36102a6366004611b6d565b610842565b6101c86102b9366004611b6d565b610873565b61023e6102cc366004611cb0565b6108d3565b6101c86102df366004611ccb565b610959565b61018b6102f2366004611c84565b610978565b6101a86109a3565b61023e600081565b6101f3610315366004611ced565b6109b2565b6101f3610328366004611d3f565b6109bd565b6101a861033b366004611b6d565b6109f5565b61023e61034e366004611b6d565b610a00565b61023e7f9f2df0fed2c77648de5860a4cc508cd0818c85b8b8a1ab4ceeef8d981c8956a681565b6101f3610388366004611c84565b610a17565b61018b61039b366004611e1b565b6001600160a01b03918216600090815260ce6020908152604080832093909416825291909152205460ff1690565b60006103d482610b40565b92915050565b606060c980546103e990611e45565b80601f016020809104026020016040519081016040528092919081815260200182805461041590611e45565b80156104625780601f1061043757610100808354040283529160200191610462565b820191906000526020600020905b81548152906001019060200180831161044557829003601f168201915b5050505050905090565b600061047782610b80565b50600090815260cd60205260409020546001600160a01b031690565b600061049e82610873565b9050806001600160a01b0316836001600160a01b0316036105105760405162461bcd60e51b815260206004820152602160248201527f4552433732313a20617070726f76616c20746f2063757272656e74206f776e656044820152603960f91b60648201526084015b60405180910390fd5b336001600160a01b038216148061052c575061052c813361039b565b61059e5760405162461bcd60e51b815260206004820152603e60248201527f4552433732313a20617070726f76652063616c6c6572206973206e6f7420746f60448201527f6b656e206f776e6572206e6f7220617070726f76656420666f7220616c6c00006064820152608401610507565b6105a88383610bdf565b505050565b600083815260cb60205260408120546001600160a01b03166106095760405162461bcd60e51b8152602060048201526015602482015274546f6b656e20646f6573206e6f742065786973747360581b6044820152606401610507565b6106133385610c4d565b8061064357506106437f9f2df0fed2c77648de5860a4cc508cd0818c85b8b8a1ab4ceeef8d981c8956a633610978565b61068f5760405162461bcd60e51b815260206004820152601c60248201527f53656e6465722063616e206e6f742073657420746f6b656e20555249000000006044820152606401610507565b6106cf8484848080601f016020809104026020016040519081016040528093929190818152602001838380828437600092019190915250610ccc92505050565b5060019392505050565b6106e4335b82610c4d565b6107005760405162461bcd60e51b815260040161050790611e7f565b6105a8838383610d60565b60008281526065602052604090206001015461072681610efc565b6105a88383610f06565b6001600160a01b03811633146107a05760405162461bcd60e51b815260206004820152602f60248201527f416363657373436f6e74726f6c3a2063616e206f6e6c792072656e6f756e636560448201526e103937b632b9903337b91039b2b63360891b6064820152608401610507565b6107aa8282610f28565b5050565b6107d87f9f2df0fed2c77648de5860a4cc508cd0818c85b8b8a1ab4ceeef8d981c8956a633610978565b61081d5760405162461bcd60e51b815260206004820152601660248201527529b2b73232b91034b9903737ba10309026b4b73a32b960511b6044820152606401610507565b6107aa8282610f4a565b6105a8838383604051806020016040528060008152506109bd565b61084b336106de565b6108675760405162461bcd60e51b815260040161050790611e7f565b6108708161108c565b50565b600081815260cb60205260408120546001600160a01b0316806103d45760405162461bcd60e51b8152602060048201526018602482015277115490cdcc8c4e881a5b9d985b1a59081d1bdad95b88125160421b6044820152606401610507565b60006001600160a01b03821661093d5760405162461bcd60e51b815260206004820152602960248201527f4552433732313a2061646472657373207a65726f206973206e6f7420612076616044820152683634b21037bbb732b960b91b6064820152608401610507565b506001600160a01b0316600090815260cc602052604090205490565b60008281526097602052604081206109719083611095565b9392505050565b60009182526065602090815260408084206001600160a01b0393909316845291905290205460ff1690565b606060ca80546103e990611e45565b6107aa3383836110a1565b6109c73383610c4d565b6109e35760405162461bcd60e51b815260040161050790611e7f565b6109ef8484848461116f565b50505050565b60606103d4826111a2565b60008181526097602052604081206103d4906112ab565b600082815260656020526040902060010154610a3281610efc565b6105a88383610f28565b6001600160a01b03163b151590565b600054610100900460ff16610a725760405162461bcd60e51b815260040161050790611ecd565b565b600054610100900460ff16610a9b5760405162461bcd60e51b815260040161050790611ecd565b6107aa82826112b5565b610aaf8282610978565b6107aa5760008281526065602090815260408083206001600160a01b03851684529091529020805460ff19166001179055610ae73390565b6001600160a01b0316816001600160a01b0316837f2f8788117e7eff1d82e926ec794901d17c78024a50270940304540a733656f0d60405160405180910390a45050565b6000610971836001600160a01b0384166112f5565b60006001600160e01b031982166380ac58cd60e01b1480610b7157506001600160e01b03198216635b5e139f60e01b145b806103d457506103d482611344565b600081815260cb60205260409020546001600160a01b03166108705760405162461bcd60e51b8152602060048201526018602482015277115490cdcc8c4e881a5b9d985b1a59081d1bdad95b88125160421b6044820152606401610507565b600081815260cd6020526040902080546001600160a01b0319166001600160a01b0384169081179091558190610c1482610873565b6001600160a01b03167f8c5be1e5ebec7d5bd14f71427d1e84f3dd0314c0f7b2291e5b200ac8c7c3b92560405160405180910390a45050565b600080610c5983610873565b9050806001600160a01b0316846001600160a01b03161480610ca057506001600160a01b03808216600090815260ce602090815260408083209388168352929052205460ff165b80610cc45750836001600160a01b0316610cb98461046c565b6001600160a01b0316145b949350505050565b600082815260cb60205260409020546001600160a01b0316610d475760405162461bcd60e51b815260206004820152602e60248201527f45524337323155524953746f726167653a2055524920736574206f66206e6f6e60448201526d32bc34b9ba32b73a103a37b5b2b760911b6064820152608401610507565b600082815261012d602052604090206105a88282611f66565b826001600160a01b0316610d7382610873565b6001600160a01b031614610dd75760405162461bcd60e51b815260206004820152602560248201527f4552433732313a207472616e736665722066726f6d20696e636f72726563742060448201526437bbb732b960d91b6064820152608401610507565b6001600160a01b038216610e395760405162461bcd60e51b8152602060048201526024808201527f4552433732313a207472616e7366657220746f20746865207a65726f206164646044820152637265737360e01b6064820152608401610507565b610e44600082610bdf565b6001600160a01b038316600090815260cc60205260408120805460019290610e6d90849061203c565b90915550506001600160a01b038216600090815260cc60205260408120805460019290610e9b90849061204f565b9091555050600081815260cb602052604080822080546001600160a01b0319166001600160a01b0386811691821790925591518493918716917fddf252ad1be2c89b69c2b068fc378daa952ba7f163c4a11628f55a4df523b3ef91a4505050565b6108708133611369565b610f108282610aa5565b60008281526097602052604090206105a89082610b2b565b610f3282826113cd565b60008281526097602052604090206105a89082611434565b6001600160a01b038216610fa05760405162461bcd60e51b815260206004820181905260248201527f4552433732313a206d696e7420746f20746865207a65726f20616464726573736044820152606401610507565b600081815260cb60205260409020546001600160a01b0316156110055760405162461bcd60e51b815260206004820152601c60248201527f4552433732313a20746f6b656e20616c7265616479206d696e746564000000006044820152606401610507565b6001600160a01b038216600090815260cc6020526040812080546001929061102e90849061204f565b9091555050600081815260cb602052604080822080546001600160a01b0319166001600160a01b03861690811790915590518392907fddf252ad1be2c89b69c2b068fc378daa952ba7f163c4a11628f55a4df523b3ef908290a45050565b61087081611449565b6000610971838361148b565b816001600160a01b0316836001600160a01b0316036111025760405162461bcd60e51b815260206004820152601960248201527f4552433732313a20617070726f766520746f2063616c6c6572000000000000006044820152606401610507565b6001600160a01b03838116600081815260ce6020908152604080832094871680845294825291829020805460ff191686151590811790915591519182527f17307eab39ab6107e8899845ad3d59bd9653f200f220920489ca2b5937696c31910160405180910390a3505050565b61117a848484610d60565b611186848484846114b5565b6109ef5760405162461bcd60e51b815260040161050790612062565b60606111ad82610b80565b600082815261012d6020526040812080546111c790611e45565b80601f01602080910402602001604051908101604052809291908181526020018280546111f390611e45565b80156112405780601f1061121557610100808354040283529160200191611240565b820191906000526020600020905b81548152906001019060200180831161122357829003601f168201915b50505050509050600061125e60408051602081019091526000815290565b90508051600003611270575092915050565b8151156112a257808260405160200161128a9291906120b4565b60405160208183030381529060405292505050919050565b610cc4846115b6565b60006103d4825490565b600054610100900460ff166112dc5760405162461bcd60e51b815260040161050790611ecd565b60c96112e88382611f66565b5060ca6105a88282611f66565b600081815260018301602052604081205461133c575081546001818101845560008481526020808220909301849055845484825282860190935260409020919091556103d4565b5060006103d4565b60006001600160e01b03198216635a05180f60e01b14806103d457506103d482611629565b6113738282610978565b6107aa5761138b816001600160a01b0316601461165e565b61139683602061165e565b6040516020016113a79291906120e3565b60408051601f198184030181529082905262461bcd60e51b825261050791600401611b5a565b6113d78282610978565b156107aa5760008281526065602090815260408083206001600160a01b0385168085529252808320805460ff1916905551339285917ff6391f5c32d9c69d2a47ea670b442974b53935d1edc7fd64eb21e047a839171b9190a45050565b6000610971836001600160a01b0384166117fa565b611452816118ed565b600081815261012d60205260409020805461146c90611e45565b15905061087057600081815261012d6020526040812061087091611a89565b60008260000182815481106114a2576114a2612158565b9060005260206000200154905092915050565b60006001600160a01b0384163b156115ab57604051630a85bd0160e11b81526001600160a01b0385169063150b7a02906114f990339089908890889060040161216e565b6020604051808303816000875af1925050508015611534575060408051601f3d908101601f19168201909252611531918101906121ab565b60015b611591573d808015611562576040519150601f19603f3d011682016040523d82523d6000602084013e611567565b606091505b5080516000036115895760405162461bcd60e51b815260040161050790612062565b805181602001fd5b6001600160e01b031916630a85bd0160e11b149050610cc4565b506001949350505050565b60606115c182610b80565b60006115d860408051602081019091526000815290565b905060008151116115f85760405180602001604052806000815250610971565b8061160284611988565b6040516020016116139291906120b4565b6040516020818303038152906040529392505050565b60006001600160e01b03198216637965db0b60e01b14806103d457506301ffc9a760e01b6001600160e01b03198316146103d4565b6060600061166d8360026121c8565b61167890600261204f565b67ffffffffffffffff81111561169057611690611d29565b6040519080825280601f01601f1916602001820160405280156116ba576020820181803683370190505b509050600360fc1b816000815181106116d5576116d5612158565b60200101906001600160f81b031916908160001a905350600f60fb1b8160018151811061170457611704612158565b60200101906001600160f81b031916908160001a90535060006117288460026121c8565b61173390600161204f565b90505b60018111156117ab576f181899199a1a9b1b9c1cb0b131b232b360811b85600f166010811061176757611767612158565b1a60f81b82828151811061177d5761177d612158565b60200101906001600160f81b031916908160001a90535060049490941c936117a4816121e7565b9050611736565b5083156109715760405162461bcd60e51b815260206004820181905260248201527f537472696e67733a20686578206c656e67746820696e73756666696369656e746044820152606401610507565b600081815260018301602052604081205480156118e357600061181e60018361203c565b85549091506000906118329060019061203c565b905081811461189757600086600001828154811061185257611852612158565b906000526020600020015490508087600001848154811061187557611875612158565b6000918252602080832090910192909255918252600188019052604090208390555b85548690806118a8576118a86121fe565b6001900381819060005260206000200160009055905585600101600086815260200190815260200160002060009055600193505050506103d4565b60009150506103d4565b60006118f882610873565b9050611905600083610bdf565b6001600160a01b038116600090815260cc6020526040812080546001929061192e90849061203c565b9091555050600082815260cb602052604080822080546001600160a01b0319169055518391906001600160a01b038416907fddf252ad1be2c89b69c2b068fc378daa952ba7f163c4a11628f55a4df523b3ef908390a45050565b6060816000036119af5750506040805180820190915260018152600360fc1b602082015290565b8160005b81156119d957806119c381612214565b91506119d29050600a83612243565b91506119b3565b60008167ffffffffffffffff8111156119f4576119f4611d29565b6040519080825280601f01601f191660200182016040528015611a1e576020820181803683370190505b5090505b8415610cc457611a3360018361203c565b9150611a40600a86612257565b611a4b90603061204f565b60f81b818381518110611a6057611a60612158565b60200101906001600160f81b031916908160001a905350611a82600a86612243565b9450611a22565b508054611a9590611e45565b6000825580601f10611aa5575050565b601f01602090049060005260206000209081019061087091905b80821115611ad35760008155600101611abf565b5090565b6001600160e01b03198116811461087057600080fd5b600060208284031215611aff57600080fd5b813561097181611ad7565b60005b83811015611b25578181015183820152602001611b0d565b50506000910152565b60008151808452611b46816020860160208601611b0a565b601f01601f19169290920160200192915050565b6020815260006109716020830184611b2e565b600060208284031215611b7f57600080fd5b5035919050565b80356001600160a01b0381168114611b9d57600080fd5b919050565b60008060408385031215611bb557600080fd5b611bbe83611b86565b946020939093013593505050565b600080600060408486031215611be157600080fd5b83359250602084013567ffffffffffffffff80821115611c0057600080fd5b818601915086601f830112611c1457600080fd5b813581811115611c2357600080fd5b876020828501011115611c3557600080fd5b6020830194508093505050509250925092565b600080600060608486031215611c5d57600080fd5b611c6684611b86565b9250611c7460208501611b86565b9150604084013590509250925092565b60008060408385031215611c9757600080fd5b82359150611ca760208401611b86565b90509250929050565b600060208284031215611cc257600080fd5b61097182611b86565b60008060408385031215611cde57600080fd5b50508035926020909101359150565b60008060408385031215611d0057600080fd5b611d0983611b86565b915060208301358015158114611d1e57600080fd5b809150509250929050565b634e487b7160e01b600052604160045260246000fd5b60008060008060808587031215611d5557600080fd5b611d5e85611b86565b9350611d6c60208601611b86565b925060408501359150606085013567ffffffffffffffff80821115611d9057600080fd5b818701915087601f830112611da457600080fd5b813581811115611db657611db6611d29565b604051601f8201601f19908116603f01168101908382118183101715611dde57611dde611d29565b816040528281528a6020848701011115611df757600080fd5b82602086016020830137600060208483010152809550505050505092959194509250565b60008060408385031215611e2e57600080fd5b611e3783611b86565b9150611ca760208401611b86565b600181811c90821680611e5957607f821691505b602082108103611e7957634e487b7160e01b600052602260045260246000fd5b50919050565b6020808252602e908201527f4552433732313a2063616c6c6572206973206e6f7420746f6b656e206f776e6560408201526d1c881b9bdc88185c1c1c9bdd995960921b606082015260800190565b6020808252602b908201527f496e697469616c697a61626c653a20636f6e7472616374206973206e6f74206960408201526a6e697469616c697a696e6760a81b606082015260800190565b601f8211156105a857600081815260208120601f850160051c81016020861015611f3f5750805b601f850160051c820191505b81811015611f5e57828155600101611f4b565b505050505050565b815167ffffffffffffffff811115611f8057611f80611d29565b611f9481611f8e8454611e45565b84611f18565b602080601f831160018114611fc95760008415611fb15750858301515b600019600386901b1c1916600185901b178555611f5e565b600085815260208120601f198616915b82811015611ff857888601518255948401946001909101908401611fd9565b50858210156120165787850151600019600388901b60f8161c191681555b5050505050600190811b01905550565b634e487b7160e01b600052601160045260246000fd5b818103818111156103d4576103d4612026565b808201808211156103d4576103d4612026565b60208082526032908201527f4552433732313a207472616e7366657220746f206e6f6e20455243373231526560408201527131b2b4bb32b91034b6b83632b6b2b73a32b960711b606082015260800190565b600083516120c6818460208801611b0a565b8351908301906120da818360208801611b0a565b01949350505050565b7f416363657373436f6e74726f6c3a206163636f756e742000000000000000000081526000835161211b816017850160208801611b0a565b7001034b99036b4b9b9b4b733903937b6329607d1b601791840191820152835161214c816028840160208801611b0a565b01602801949350505050565b634e487b7160e01b600052603260045260246000fd5b6001600160a01b03858116825284166020820152604081018390526080606082018190526000906121a190830184611b2e565b9695505050505050565b6000602082840312156121bd57600080fd5b815161097181611ad7565b60008160001904831182151516156121e2576121e2612026565b500290565b6000816121f6576121f6612026565b506000190190565b634e487b7160e01b600052603160045260246000fd5b60006001820161222657612226612026565b5060010190565b634e487b7160e01b600052601260045260246000fd5b6000826122525761225261222d565b500490565b6000826122665761226661222d565b50069056fea2646970667358221220bb44f536146db5420851b152450b1223d86620092917329913619d017d6b2d0264736f6c63430008100033496e697469616c697a61626c653a20636f6e7472616374206973206e6f7420699f2df0fed2c77648de5860a4cc508cd0818c85b8b8a1ab4ceeef8d981c8956a67164765a3c8bd2513bdfa0c90f1bee9606e920fbf2c9071f310263fbd818684ba26469706673582212208092b9b6be9b5fe16ca1d8b181df68e2ab98e541f22b7dff8980a8dea10d9ec864736f6c63430008100033",
  "linkReferences": {},
  "deployedLinkReferences": {}
}